{"contracts/adapters/SatsumaAdapter.sol":{"SatsumaAdapter":{"abi":[{"inputs":[{"internalType":"address","name":"_vault","type":"address"},{"internalType":"address","name":"_underlying","type":"address"},{"internalType":"address","name":"_lpVault","type":"address"}],"stateMutability":"nonpayable","type":"constructor"},{"inputs":[{"internalType":"address","name":"owner","type":"address"}],"name":"OwnableInvalidOwner","type":"error"},{"inputs":[{"internalType":"address","name":"account","type":"address"}],"name":"OwnableUnauthorizedAccount","type":"error"},{"anonymous":false,"inputs":[{"indexed":true,"internalType":"address","name":"previousOwner","type":"address"},{"indexed":true,"internalType":"address","name":"newOwner","type":"address"}],"name":"OwnershipTransferred","type":"event"},{"inputs":[{"internalType":"uint256","name":"amountWcBTC","type":"uint256"}],"name":"divest","outputs":[{"internalType":"uint256","name":"withdrawn","type":"uint256"}],"stateMutability":"nonpayable","type":"function"},{"inputs":[{"internalType":"uint256","name":"amountWcBTC","type":"uint256"}],"name":"invest","outputs":[],"stateMutability":"nonpayable","type":"function"},{"inputs":[],"name":"investedBalance","outputs":[{"internalType":"uint256","name":"","type":"uint256"}],"stateMutability":"view","type":"function"},{"inputs":[],"name":"lpVault","outputs":[{"internalType":"contract ISatsumaLPVault","name":"","type":"address"}],"stateMutability":"view","type":"function"},{"inputs":[],"name":"owner","outputs":[{"internalType":"address","name":"","type":"address"}],"stateMutability":"view","type":"function"},{"inputs":[],"name":"renounceOwnership","outputs":[],"stateMutability":"nonpayable","type":"function"},{"inputs":[],"name":"totalAssets","outputs":[{"internalType":"uint256","name":"","type":"uint256"}],"stateMutability":"view","type":"function"},{"inputs":[{"internalType":"address","name":"newOwner","type":"address"}],"name":"transferOwnership","outputs":[],"stateMutability":"nonpayable","type":"function"},{"inputs":[],"name":"underlying","outputs":[{"internalType":"address","name":"","type":"address"}],"stateMutability":"view","type":"function"},{"inputs":[],"name":"vault","outputs":[{"internalType":"address","name":"","type":"address"}],"stateMutability":"view","type":"function"}],"evm":{"bytecode":{"linkReferences":{},"object":"60e060405234801561001057600080fd5b506040516108b43803806108b483398101604081905261002f91610164565b826001600160a01b03811661005e57604051631e4fbdf760e01b81526000600482015260240160405180910390fd5b610067816100f8565b506001600160a01b0383811660805282811660a081905290821660c081905260405163095ea7b360e01b81526004810191909152600019602482015263095ea7b3906044016020604051808303816000875af11580156100cb573d6000803e3d6000fd5b505050506040513d601f19601f820116820180604052508101906100ef91906101a7565b505050506101d0565b600080546001600160a01b038381166001600160a01b0319831681178455604051919092169283917f8be0079c531659141344cd1fd0a4f28419497f9722a3daafe3b4186f6b6457e09190a35050565b80516001600160a01b038116811461015f57600080fd5b919050565b60008060006060848603121561017957600080fd5b61018284610148565b925061019060208501610148565b915061019e60408501610148565b90509250925092565b6000602082840312156101b957600080fd5b815180151581146101c957600080fd5b9392505050565b60805160a05160c05161068c6102286000396000818160d40152818161023501526103730152600081816101130152610436015260008181610182015281816101af015281816102e60152610407015261068c6000f3fe608060405234801561001057600080fd5b506004361061009e5760003560e01c80638ca17995116100665780638ca179951461013d5780638da5cb5b14610150578063c9168a5914610161578063f2fde38b1461016a578063fbfa77cf1461017d57600080fd5b806301e1d114146100a35780632afcf480146100ba5780632f867367146100cf5780636f307dc31461010e578063715018a614610135575b600080fd5b6001545b6040519081526020015b60405180910390f35b6100cd6100c8366004610590565b6101a4565b005b6100f67f000000000000000000000000000000000000000000000000000000000000000081565b6040516001600160a01b0390911681526020016100b1565b6100f67f000000000000000000000000000000000000000000000000000000000000000081565b6100cd6102c5565b6100a761014b366004610590565b6102d9565b6000546001600160a01b03166100f6565b6100a760015481565b6100cd6101783660046105a9565b6104d5565b6100f67f000000000000000000000000000000000000000000000000000000000000000081565b336001600160a01b037f0000000000000000000000000000000000000000000000000000000000000000161461020e5760405162461bcd60e51b815260206004820152600a6024820152691bdb9b1e481d985d5b1d60b21b60448201526064015b60405180910390fd5b806000036102195750565b604051636e553f6560e01b8152600481018290523060248201527f00000000000000000000000000000000000000000000000000000000000000006001600160a01b031690636e553f65906044016020604051808303816000875af1158015610286573d6000803e3d6000fd5b505050506040513d601f19601f820116820180604052508101906102aa91906105d9565b5080600160008282546102bd9190610608565b909155505050565b6102cd610513565b6102d76000610540565b565b6000336001600160a01b037f000000000000000000000000000000000000000000000000000000000000000016146103405760405162461bcd60e51b815260206004820152600a6024820152691bdb9b1e481d985d5b1d60b21b6044820152606401610205565b8160000361035057506000919050565b604051632d182be560e21b815260048101839052306024820181905260448201527f00000000000000000000000000000000000000000000000000000000000000006001600160a01b03169063b460af94906064016020604051808303816000875af11580156103c4573d6000803e3d6000fd5b505050506040513d601f19601f820116820180604052508101906103e891906105d9565b905080156104a55760405163a9059cbb60e01b81526001600160a01b037f000000000000000000000000000000000000000000000000000000000000000081166004830152602482018390527f0000000000000000000000000000000000000000000000000000000000000000169063a9059cbb906044016020604051808303816000875af115801561047f573d6000803e3d6000fd5b505050506040513d601f19601f820116820180604052508101906104a39190610621565b505b6001548111156104b9576000600155919050565b80600160008282546104cb9190610643565b9091555050919050565b6104dd610513565b6001600160a01b03811661050757604051631e4fbdf760e01b815260006004820152602401610205565b61051081610540565b50565b6000546001600160a01b031633146102d75760405163118cdaa760e01b8152336004820152602401610205565b600080546001600160a01b038381166001600160a01b0319831681178455604051919092169283917f8be0079c531659141344cd1fd0a4f28419497f9722a3daafe3b4186f6b6457e09190a35050565b6000602082840312156105a257600080fd5b5035919050565b6000602082840312156105bb57600080fd5b81356001600160a01b03811681146105d257600080fd5b9392505050565b6000602082840312156105eb57600080fd5b5051919050565b634e487b7160e01b600052601160045260246000fd5b8082018082111561061b5761061b6105f2565b92915050565b60006020828403121561063357600080fd5b815180151581146105d257600080fd5b8181038181111561061b5761061b6105f256fea2646970667358221220cb2d6770d98b4cccb7d70d122ef5cf573190195339c12c6f353021bcb4d3925c64736f6c63430008140033","opcodes":"PUSH1 0xE0 PUSH1 0x40 MSTORE CALLVALUE DUP1 ISZERO PUSH2 0x10 JUMPI PUSH1 0x0 DUP1 REVERT JUMPDEST POP PUSH1 0x40 MLOAD PUSH2 0x8B4 CODESIZE SUB DUP1 PUSH2 0x8B4 DUP4 CODECOPY DUP2 ADD PUSH1 0x40 DUP2 SWAP1 MSTORE PUSH2 0x2F SWAP2 PUSH2 0x164 JUMP JUMPDEST DUP3 PUSH1 0x1 PUSH1 0x1 PUSH1 0xA0 SHL SUB DUP2 AND PUSH2 0x5E JUMPI PUSH1 0x40 MLOAD PUSH4 0x1E4FBDF7 PUSH1 0xE0 SHL DUP2 MSTORE PUSH1 0x0 PUSH1 0x4 DUP3 ADD MSTORE PUSH1 0x24 ADD PUSH1 0x40 MLOAD DUP1 SWAP2 SUB SWAP1 REVERT JUMPDEST PUSH2 0x67 DUP2 PUSH2 0xF8 JUMP JUMPDEST POP PUSH1 0x1 PUSH1 0x1 PUSH1 0xA0 SHL SUB DUP4 DUP2 AND PUSH1 0x80 MSTORE DUP3 DUP2 AND PUSH1 0xA0 DUP2 SWAP1 MSTORE SWAP1 DUP3 AND PUSH1 0xC0 DUP2 SWAP1 MSTORE PUSH1 0x40 MLOAD PUSH4 0x95EA7B3 PUSH1 0xE0 SHL DUP2 MSTORE PUSH1 0x4 DUP2 ADD SWAP2 SWAP1 SWAP2 MSTORE PUSH1 0x0 NOT PUSH1 0x24 DUP3 ADD MSTORE PUSH4 0x95EA7B3 SWAP1 PUSH1 0x44 ADD PUSH1 0x20 PUSH1 0x40 MLOAD DUP1 DUP4 SUB DUP2 PUSH1 0x0 DUP8 GAS CALL ISZERO DUP1 ISZERO PUSH2 0xCB JUMPI RETURNDATASIZE PUSH1 0x0 DUP1 RETURNDATACOPY RETURNDATASIZE PUSH1 0x0 REVERT JUMPDEST POP POP POP POP PUSH1 0x40 MLOAD RETURNDATASIZE PUSH1 0x1F NOT PUSH1 0x1F DUP3 ADD AND DUP3 ADD DUP1 PUSH1 0x40 MSTORE POP DUP2 ADD SWAP1 PUSH2 0xEF SWAP2 SWAP1 PUSH2 0x1A7 JUMP JUMPDEST POP POP POP POP PUSH2 0x1D0 JUMP JUMPDEST PUSH1 0x0 DUP1 SLOAD PUSH1 0x1 PUSH1 0x1 PUSH1 0xA0 SHL SUB DUP4 DUP2 AND PUSH1 0x1 PUSH1 0x1 PUSH1 0xA0 SHL SUB NOT DUP4 AND DUP2 OR DUP5 SSTORE PUSH1 0x40 MLOAD SWAP2 SWAP1 SWAP3 AND SWAP3 DUP4 SWAP2 PUSH32 0x8BE0079C531659141344CD1FD0A4F28419497F9722A3DAAFE3B4186F6B6457E0 SWAP2 SWAP1 LOG3 POP POP JUMP JUMPDEST DUP1 MLOAD PUSH1 0x1 PUSH1 0x1 PUSH1 0xA0 SHL SUB DUP2 AND DUP2 EQ PUSH2 0x15F JUMPI PUSH1 0x0 DUP1 REVERT JUMPDEST SWAP2 SWAP1 POP JUMP JUMPDEST PUSH1 0x0 DUP1 PUSH1 0x0 PUSH1 0x60 DUP5 DUP7 SUB SLT ISZERO PUSH2 0x179 JUMPI PUSH1 0x0 DUP1 REVERT JUMPDEST PUSH2 0x182 DUP5 PUSH2 0x148 JUMP JUMPDEST SWAP3 POP PUSH2 0x190 PUSH1 0x20 DUP6 ADD PUSH2 0x148 JUMP JUMPDEST SWAP2 POP PUSH2 0x19E PUSH1 0x40 DUP6 ADD PUSH2 0x148 JUMP JUMPDEST SWAP1 POP SWAP3 POP SWAP3 POP SWAP3 JUMP JUMPDEST PUSH1 0x0 PUSH1 0x20 DUP3 DUP5 SUB SLT ISZERO PUSH2 0x1B9 JUMPI PUSH1 0x0 DUP1 REVERT JUMPDEST DUP2 MLOAD DUP1 ISZERO ISZERO DUP2 EQ PUSH2 0x1C9 JUMPI PUSH1 0x0 DUP1 REVERT JUMPDEST SWAP4 SWAP3 POP POP POP JUMP JUMPDEST PUSH1 0x80 MLOAD PUSH1 0xA0 MLOAD PUSH1 0xC0 MLOAD PUSH2 0x68C PUSH2 0x228 PUSH1 0x0 CODECOPY PUSH1 0x0 DUP2 DUP2 PUSH1 0xD4 ADD MSTORE DUP2 DUP2 PUSH2 0x235 ADD MSTORE PUSH2 0x373 ADD MSTORE PUSH1 0x0 DUP2 DUP2 PUSH2 0x113 ADD MSTORE PUSH2 0x436 ADD MSTORE PUSH1 0x0 DUP2 DUP2 PUSH2 0x182 ADD MSTORE DUP2 DUP2 PUSH2 0x1AF ADD MSTORE DUP2 DUP2 PUSH2 0x2E6 ADD MSTORE PUSH2 0x407 ADD MSTORE PUSH2 0x68C PUSH1 0x0 RETURN INVALID PUSH1 0x80 PUSH1 0x40 MSTORE CALLVALUE DUP1 ISZERO PUSH2 0x10 JUMPI PUSH1 0x0 DUP1 REVERT JUMPDEST POP PUSH1 0x4 CALLDATASIZE LT PUSH2 0x9E JUMPI PUSH1 0x0 CALLDATALOAD PUSH1 0xE0 SHR DUP1 PUSH4 0x8CA17995 GT PUSH2 0x66 JUMPI DUP1 PUSH4 0x8CA17995 EQ PUSH2 0x13D JUMPI DUP1 PUSH4 0x8DA5CB5B EQ PUSH2 0x150 JUMPI DUP1 PUSH4 0xC9168A59 EQ PUSH2 0x161 JUMPI DUP1 PUSH4 0xF2FDE38B EQ PUSH2 0x16A JUMPI DUP1 PUSH4 0xFBFA77CF EQ PUSH2 0x17D JUMPI PUSH1 0x0 DUP1 REVERT JUMPDEST DUP1 PUSH4 0x1E1D114 EQ PUSH2 0xA3 JUMPI DUP1 PUSH4 0x2AFCF480 EQ PUSH2 0xBA JUMPI DUP1 PUSH4 0x2F867367 EQ PUSH2 0xCF JUMPI DUP1 PUSH4 0x6F307DC3 EQ PUSH2 0x10E JUMPI DUP1 PUSH4 0x715018A6 EQ PUSH2 0x135 JUMPI JUMPDEST PUSH1 0x0 DUP1 REVERT JUMPDEST PUSH1 0x1 SLOAD JUMPDEST PUSH1 0x40 MLOAD SWAP1 DUP2 MSTORE PUSH1 0x20 ADD JUMPDEST PUSH1 0x40 MLOAD DUP1 SWAP2 SUB SWAP1 RETURN JUMPDEST PUSH2 0xCD PUSH2 0xC8 CALLDATASIZE PUSH1 0x4 PUSH2 0x590 JUMP JUMPDEST PUSH2 0x1A4 JUMP JUMPDEST STOP JUMPDEST PUSH2 0xF6 PUSH32 0x0 DUP2 JUMP JUMPDEST PUSH1 0x40 MLOAD PUSH1 0x1 PUSH1 0x1 PUSH1 0xA0 SHL SUB SWAP1 SWAP2 AND DUP2 MSTORE PUSH1 0x20 ADD PUSH2 0xB1 JUMP JUMPDEST PUSH2 0xF6 PUSH32 0x0 DUP2 JUMP JUMPDEST PUSH2 0xCD PUSH2 0x2C5 JUMP JUMPDEST PUSH2 0xA7 PUSH2 0x14B CALLDATASIZE PUSH1 0x4 PUSH2 0x590 JUMP JUMPDEST PUSH2 0x2D9 JUMP JUMPDEST PUSH1 0x0 SLOAD PUSH1 0x1 PUSH1 0x1 PUSH1 0xA0 SHL SUB AND PUSH2 0xF6 JUMP JUMPDEST PUSH2 0xA7 PUSH1 0x1 SLOAD DUP2 JUMP JUMPDEST PUSH2 0xCD PUSH2 0x178 CALLDATASIZE PUSH1 0x4 PUSH2 0x5A9 JUMP JUMPDEST PUSH2 0x4D5 JUMP JUMPDEST PUSH2 0xF6 PUSH32 0x0 DUP2 JUMP JUMPDEST CALLER PUSH1 0x1 PUSH1 0x1 PUSH1 0xA0 SHL SUB PUSH32 0x0 AND EQ PUSH2 0x20E JUMPI PUSH1 0x40 MLOAD PUSH3 0x461BCD PUSH1 0xE5 SHL DUP2 MSTORE PUSH1 0x20 PUSH1 0x4 DUP3 ADD MSTORE PUSH1 0xA PUSH1 0x24 DUP3 ADD MSTORE PUSH10 0x1BDB9B1E481D985D5B1D PUSH1 0xB2 SHL PUSH1 0x44 DUP3 ADD MSTORE PUSH1 0x64 ADD JUMPDEST PUSH1 0x40 MLOAD DUP1 SWAP2 SUB SWAP1 REVERT JUMPDEST DUP1 PUSH1 0x0 SUB PUSH2 0x219 JUMPI POP JUMP JUMPDEST PUSH1 0x40 MLOAD PUSH4 0x6E553F65 PUSH1 0xE0 SHL DUP2 MSTORE PUSH1 0x4 DUP2 ADD DUP3 SWAP1 MSTORE ADDRESS PUSH1 0x24 DUP3 ADD MSTORE PUSH32 0x0 PUSH1 0x1 PUSH1 0x1 PUSH1 0xA0 SHL SUB AND SWAP1 PUSH4 0x6E553F65 SWAP1 PUSH1 0x44 ADD PUSH1 0x20 PUSH1 0x40 MLOAD DUP1 DUP4 SUB DUP2 PUSH1 0x0 DUP8 GAS CALL ISZERO DUP1 ISZERO PUSH2 0x286 JUMPI RETURNDATASIZE PUSH1 0x0 DUP1 RETURNDATACOPY RETURNDATASIZE PUSH1 0x0 REVERT JUMPDEST POP POP POP POP PUSH1 0x40 MLOAD RETURNDATASIZE PUSH1 0x1F NOT PUSH1 0x1F DUP3 ADD AND DUP3 ADD DUP1 PUSH1 0x40 MSTORE POP DUP2 ADD SWAP1 PUSH2 0x2AA SWAP2 SWAP1 PUSH2 0x5D9 JUMP JUMPDEST POP DUP1 PUSH1 0x1 PUSH1 0x0 DUP3 DUP3 SLOAD PUSH2 0x2BD SWAP2 SWAP1 PUSH2 0x608 JUMP JUMPDEST SWAP1 SWAP2 SSTORE POP POP POP JUMP JUMPDEST PUSH2 0x2CD PUSH2 0x513 JUMP JUMPDEST PUSH2 0x2D7 PUSH1 0x0 PUSH2 0x540 JUMP JUMPDEST JUMP JUMPDEST PUSH1 0x0 CALLER PUSH1 0x1 PUSH1 0x1 PUSH1 0xA0 SHL SUB PUSH32 0x0 AND EQ PUSH2 0x340 JUMPI PUSH1 0x40 MLOAD PUSH3 0x461BCD PUSH1 0xE5 SHL DUP2 MSTORE PUSH1 0x20 PUSH1 0x4 DUP3 ADD MSTORE PUSH1 0xA PUSH1 0x24 DUP3 ADD MSTORE PUSH10 0x1BDB9B1E481D985D5B1D PUSH1 0xB2 SHL PUSH1 0x44 DUP3 ADD MSTORE PUSH1 0x64 ADD PUSH2 0x205 JUMP JUMPDEST DUP2 PUSH1 0x0 SUB PUSH2 0x350 JUMPI POP PUSH1 0x0 SWAP2 SWAP1 POP JUMP JUMPDEST PUSH1 0x40 MLOAD PUSH4 0x2D182BE5 PUSH1 0xE2 SHL DUP2 MSTORE PUSH1 0x4 DUP2 ADD DUP4 SWAP1 MSTORE ADDRESS PUSH1 0x24 DUP3 ADD DUP2 SWAP1 MSTORE PUSH1 0x44 DUP3 ADD MSTORE PUSH32 0x0 PUSH1 0x1 PUSH1 0x1 PUSH1 0xA0 SHL SUB AND SWAP1 PUSH4 0xB460AF94 SWAP1 PUSH1 0x64 ADD PUSH1 0x20 PUSH1 0x40 MLOAD DUP1 DUP4 SUB DUP2 PUSH1 0x0 DUP8 GAS CALL ISZERO DUP1 ISZERO PUSH2 0x3C4 JUMPI RETURNDATASIZE PUSH1 0x0 DUP1 RETURNDATACOPY RETURNDATASIZE PUSH1 0x0 REVERT JUMPDEST POP POP POP POP PUSH1 0x40 MLOAD RETURNDATASIZE PUSH1 0x1F NOT PUSH1 0x1F DUP3 ADD AND DUP3 ADD DUP1 PUSH1 0x40 MSTORE POP DUP2 ADD SWAP1 PUSH2 0x3E8 SWAP2 SWAP1 PUSH2 0x5D9 JUMP JUMPDEST SWAP1 POP DUP1 ISZERO PUSH2 0x4A5 JUMPI PUSH1 0x40 MLOAD PUSH4 0xA9059CBB PUSH1 0xE0 SHL DUP2 MSTORE PUSH1 0x1 PUSH1 0x1 PUSH1 0xA0 SHL SUB PUSH32 0x0 DUP2 AND PUSH1 0x4 DUP4 ADD MSTORE PUSH1 0x24 DUP3 ADD DUP4 SWAP1 MSTORE PUSH32 0x0 AND SWAP1 PUSH4 0xA9059CBB SWAP1 PUSH1 0x44 ADD PUSH1 0x20 PUSH1 0x40 MLOAD DUP1 DUP4 SUB DUP2 PUSH1 0x0 DUP8 GAS CALL ISZERO DUP1 ISZERO PUSH2 0x47F JUMPI RETURNDATASIZE PUSH1 0x0 DUP1 RETURNDATACOPY RETURNDATASIZE PUSH1 0x0 REVERT JUMPDEST POP POP POP POP PUSH1 0x40 MLOAD RETURNDATASIZE PUSH1 0x1F NOT PUSH1 0x1F DUP3 ADD AND DUP3 ADD DUP1 PUSH1 0x40 MSTORE POP DUP2 ADD SWAP1 PUSH2 0x4A3 SWAP2 SWAP1 PUSH2 0x621 JUMP JUMPDEST POP JUMPDEST PUSH1 0x1 SLOAD DUP2 GT ISZERO PUSH2 0x4B9 JUMPI PUSH1 0x0 PUSH1 0x1 SSTORE SWAP2 SWAP1 POP JUMP JUMPDEST DUP1 PUSH1 0x1 PUSH1 0x0 DUP3 DUP3 SLOAD PUSH2 0x4CB SWAP2 SWAP1 PUSH2 0x643 JUMP JUMPDEST SWAP1 SWAP2 SSTORE POP POP SWAP2 SWAP1 POP JUMP JUMPDEST PUSH2 0x4DD PUSH2 0x513 JUMP JUMPDEST PUSH1 0x1 PUSH1 0x1 PUSH1 0xA0 SHL SUB DUP2 AND PUSH2 0x507 JUMPI PUSH1 0x40 MLOAD PUSH4 0x1E4FBDF7 PUSH1 0xE0 SHL DUP2 MSTORE PUSH1 0x0 PUSH1 0x4 DUP3 ADD MSTORE PUSH1 0x24 ADD PUSH2 0x205 JUMP JUMPDEST PUSH2 0x510 DUP2 PUSH2 0x540 JUMP JUMPDEST POP JUMP JUMPDEST PUSH1 0x0 SLOAD PUSH1 0x1 PUSH1 0x1 PUSH1 0xA0 SHL SUB AND CALLER EQ PUSH2 0x2D7 JUMPI PUSH1 0x40 MLOAD PUSH4 0x118CDAA7 PUSH1 0xE0 SHL DUP2 MSTORE CALLER PUSH1 0x4 DUP3 ADD MSTORE PUSH1 0x24 ADD PUSH2 0x205 JUMP JUMPDEST PUSH1 0x0 DUP1 SLOAD PUSH1 0x1 PUSH1 0x1 PUSH1 0xA0 SHL SUB DUP4 DUP2 AND PUSH1 0x1 PUSH1 0x1 PUSH1 0xA0 SHL SUB NOT DUP4 AND DUP2 OR DUP5 SSTORE PUSH1 0x40 MLOAD SWAP2 SWAP1 SWAP3 AND SWAP3 DUP4 SWAP2 PUSH32 0x8BE0079C531659141344CD1FD0A4F28419497F9722A3DAAFE3B4186F6B6457E0 SWAP2 SWAP1 LOG3 POP POP JUMP JUMPDEST PUSH1 0x0 PUSH1 0x20 DUP3 DUP5 SUB SLT ISZERO PUSH2 0x5A2 JUMPI PUSH1 0x0 DUP1 REVERT JUMPDEST POP CALLDATALOAD SWAP2 SWAP1 POP JUMP JUMPDEST PUSH1 0x0 PUSH1 0x20 DUP3 DUP5 SUB SLT ISZERO PUSH2 0x5BB JUMPI PUSH1 0x0 DUP1 REVERT JUMPDEST DUP2 CALLDATALOAD PUSH1 0x1 PUSH1 0x1 PUSH1 0xA0 SHL SUB DUP2 AND DUP2 EQ PUSH2 0x5D2 JUMPI PUSH1 0x0 DUP1 REVERT JUMPDEST SWAP4 SWAP3 POP POP POP JUMP JUMPDEST PUSH1 0x0 PUSH1 0x20 DUP3 DUP5 SUB SLT ISZERO PUSH2 0x5EB JUMPI PUSH1 0x0 DUP1 REVERT JUMPDEST POP MLOAD SWAP2 SWAP1 POP JUMP JUMPDEST PUSH4 0x4E487B71 PUSH1 0xE0 SHL PUSH1 0x0 MSTORE PUSH1 0x11 PUSH1 0x4 MSTORE PUSH1 0x24 PUSH1 0x0 REVERT JUMPDEST DUP1 DUP3 ADD DUP1 DUP3 GT ISZERO PUSH2 0x61B JUMPI PUSH2 0x61B PUSH2 0x5F2 JUMP JUMPDEST SWAP3 SWAP2 POP POP JUMP JUMPDEST PUSH1 0x0 PUSH1 0x20 DUP3 DUP5 SUB SLT ISZERO PUSH2 0x633 JUMPI PUSH1 0x0 DUP1 REVERT JUMPDEST DUP2 MLOAD DUP1 ISZERO ISZERO DUP2 EQ PUSH2 0x5D2 JUMPI PUSH1 0x0 DUP1 REVERT JUMPDEST DUP2 DUP2 SUB DUP2 DUP2 GT ISZERO PUSH2 0x61B JUMPI PUSH2 0x61B PUSH2 0x5F2 JUMP INVALID LOG2 PUSH5 0x6970667358 0x22 SLT KECCAK256 0xCB 0x2D PUSH8 0x70D98B4CCCB7D70D SLT 0x2E CREATE2 0xCF JUMPI BALANCE SWAP1 NOT MSTORE8 CODECOPY 0xC1 0x2C PUSH16 0x353021BCB4D3925C64736F6C63430008 EQ STOP CALLER "},"methodIdentifiers":{"divest(uint256)":"8ca17995","invest(uint256)":"2afcf480","investedBalance()":"c9168a59","lpVault()":"2f867367","owner()":"8da5cb5b","renounceOwnership()":"715018a6","totalAssets()":"01e1d114","transferOwnership(address)":"f2fde38b","underlying()":"6f307dc3","vault()":"fbfa77cf"}}}}}