{"contracts/adapters/ZentraAdapter.sol":{"ZentraAdapter":{"abi":[{"inputs":[{"internalType":"address","name":"_vault","type":"address"},{"internalType":"address","name":"_underlying","type":"address"},{"internalType":"address","name":"_pool","type":"address"}],"stateMutability":"nonpayable","type":"constructor"},{"inputs":[{"internalType":"address","name":"owner","type":"address"}],"name":"OwnableInvalidOwner","type":"error"},{"inputs":[{"internalType":"address","name":"account","type":"address"}],"name":"OwnableUnauthorizedAccount","type":"error"},{"anonymous":false,"inputs":[{"indexed":true,"internalType":"address","name":"previousOwner","type":"address"},{"indexed":true,"internalType":"address","name":"newOwner","type":"address"}],"name":"OwnershipTransferred","type":"event"},{"inputs":[{"internalType":"uint256","name":"amountWcBTC","type":"uint256"}],"name":"divest","outputs":[{"internalType":"uint256","name":"withdrawn","type":"uint256"}],"stateMutability":"nonpayable","type":"function"},{"inputs":[{"internalType":"uint256","name":"amountWcBTC","type":"uint256"}],"name":"invest","outputs":[],"stateMutability":"nonpayable","type":"function"},{"inputs":[],"name":"investedBalance","outputs":[{"internalType":"uint256","name":"","type":"uint256"}],"stateMutability":"view","type":"function"},{"inputs":[],"name":"owner","outputs":[{"internalType":"address","name":"","type":"address"}],"stateMutability":"view","type":"function"},{"inputs":[],"name":"pool","outputs":[{"internalType":"contract IZentraPoolV2","name":"","type":"address"}],"stateMutability":"view","type":"function"},{"inputs":[],"name":"renounceOwnership","outputs":[],"stateMutability":"nonpayable","type":"function"},{"inputs":[],"name":"totalAssets","outputs":[{"internalType":"uint256","name":"","type":"uint256"}],"stateMutability":"view","type":"function"},{"inputs":[{"internalType":"address","name":"newOwner","type":"address"}],"name":"transferOwnership","outputs":[],"stateMutability":"nonpayable","type":"function"},{"inputs":[],"name":"underlying","outputs":[{"internalType":"address","name":"","type":"address"}],"stateMutability":"view","type":"function"},{"inputs":[],"name":"vault","outputs":[{"internalType":"address","name":"","type":"address"}],"stateMutability":"view","type":"function"}],"evm":{"bytecode":{"linkReferences":{},"object":"60e060405234801561001057600080fd5b5060405161090138038061090183398101604081905261002f91610164565b826001600160a01b03811661005e57604051631e4fbdf760e01b81526000600482015260240160405180910390fd5b610067816100f8565b506001600160a01b0383811660805282811660a081905290821660c081905260405163095ea7b360e01b81526004810191909152600019602482015263095ea7b3906044016020604051808303816000875af11580156100cb573d6000803e3d6000fd5b505050506040513d601f19601f820116820180604052508101906100ef91906101a7565b505050506101d0565b600080546001600160a01b038381166001600160a01b0319831681178455604051919092169283917f8be0079c531659141344cd1fd0a4f28419497f9722a3daafe3b4186f6b6457e09190a35050565b80516001600160a01b038116811461015f57600080fd5b919050565b60008060006060848603121561017957600080fd5b61018284610148565b925061019060208501610148565b915061019e60408501610148565b90509250925092565b6000602082840312156101b957600080fd5b815180151581146101c957600080fd5b9392505050565b60805160a05160c0516106cb6102366000396000818160bf0152818161026c01526103b9015260008181610113015281816102300152818161038401526104a0015260008181610182015281816101af01528181610303015261047101526106cb6000f3fe608060405234801561001057600080fd5b506004361061009e5760003560e01c80638ca17995116100665780638ca179951461013d5780638da5cb5b14610150578063c9168a5914610161578063f2fde38b1461016a578063fbfa77cf1461017d57600080fd5b806301e1d114146100a357806316f0115b146100ba5780632afcf480146100f95780636f307dc31461010e578063715018a614610135575b600080fd5b6001545b6040519081526020015b60405180910390f35b6100e17f000000000000000000000000000000000000000000000000000000000000000081565b6040516001600160a01b0390911681526020016100b1565b61010c6101073660046105cf565b6101a4565b005b6100e17f000000000000000000000000000000000000000000000000000000000000000081565b61010c6102e2565b6100a761014b3660046105cf565b6102f6565b6000546001600160a01b03166100e1565b6100a760015481565b61010c6101783660046105e8565b610514565b6100e17f000000000000000000000000000000000000000000000000000000000000000081565b336001600160a01b037f0000000000000000000000000000000000000000000000000000000000000000161461020e5760405162461bcd60e51b815260206004820152600a6024820152691bdb9b1e481d985d5b1d60b21b60448201526064015b60405180910390fd5b806000036102195750565b60405163617ba03760e01b81526001600160a01b037f00000000000000000000000000000000000000000000000000000000000000008116600483015260248201839052306044830152600060648301527f0000000000000000000000000000000000000000000000000000000000000000169063617ba03790608401600060405180830381600087803b1580156102b057600080fd5b505af11580156102c4573d6000803e3d6000fd5b5050505080600160008282546102da919061062e565b909155505050565b6102ea610552565b6102f4600061057f565b565b6000336001600160a01b037f0000000000000000000000000000000000000000000000000000000000000000161461035d5760405162461bcd60e51b815260206004820152600a6024820152691bdb9b1e481d985d5b1d60b21b6044820152606401610205565b8160000361036d57506000919050565b604051631a4ca37b60e21b81526001600160a01b037f000000000000000000000000000000000000000000000000000000000000000081166004830152602482018490523060448301527f000000000000000000000000000000000000000000000000000000000000000016906369328dec906064016020604051808303816000875af1158015610402573d6000803e3d6000fd5b505050506040513d601f19601f820116820180604052508101906104269190610647565b9050801561050f5760015481111561044257600060015561045a565b80600160008282546104549190610660565b90915550505b60405163a9059cbb60e01b81526001600160a01b037f000000000000000000000000000000000000000000000000000000000000000081166004830152602482018390527f0000000000000000000000000000000000000000000000000000000000000000169063a9059cbb906044016020604051808303816000875af11580156104e9573d6000803e3d6000fd5b505050506040513d601f19601f8201168201806040525081019061050d9190610673565b505b919050565b61051c610552565b6001600160a01b03811661054657604051631e4fbdf760e01b815260006004820152602401610205565b61054f8161057f565b50565b6000546001600160a01b031633146102f45760405163118cdaa760e01b8152336004820152602401610205565b600080546001600160a01b038381166001600160a01b0319831681178455604051919092169283917f8be0079c531659141344cd1fd0a4f28419497f9722a3daafe3b4186f6b6457e09190a35050565b6000602082840312156105e157600080fd5b5035919050565b6000602082840312156105fa57600080fd5b81356001600160a01b038116811461061157600080fd5b9392505050565b634e487b7160e01b600052601160045260246000fd5b8082018082111561064157610641610618565b92915050565b60006020828403121561065957600080fd5b5051919050565b8181038181111561064157610641610618565b60006020828403121561068557600080fd5b8151801515811461061157600080fdfea26469706673582212209629b131ca58b5aa8fbb2e4f3efa4e7105c9a44fa84bffe2f630eddb4196761c64736f6c63430008140033","opcodes":"PUSH1 0xE0 PUSH1 0x40 MSTORE CALLVALUE DUP1 ISZERO PUSH2 0x10 JUMPI PUSH1 0x0 DUP1 REVERT JUMPDEST POP PUSH1 0x40 MLOAD PUSH2 0x901 CODESIZE SUB DUP1 PUSH2 0x901 DUP4 CODECOPY DUP2 ADD PUSH1 0x40 DUP2 SWAP1 MSTORE PUSH2 0x2F SWAP2 PUSH2 0x164 JUMP JUMPDEST DUP3 PUSH1 0x1 PUSH1 0x1 PUSH1 0xA0 SHL SUB DUP2 AND PUSH2 0x5E JUMPI PUSH1 0x40 MLOAD PUSH4 0x1E4FBDF7 PUSH1 0xE0 SHL DUP2 MSTORE PUSH1 0x0 PUSH1 0x4 DUP3 ADD MSTORE PUSH1 0x24 ADD PUSH1 0x40 MLOAD DUP1 SWAP2 SUB SWAP1 REVERT JUMPDEST PUSH2 0x67 DUP2 PUSH2 0xF8 JUMP JUMPDEST POP PUSH1 0x1 PUSH1 0x1 PUSH1 0xA0 SHL SUB DUP4 DUP2 AND PUSH1 0x80 MSTORE DUP3 DUP2 AND PUSH1 0xA0 DUP2 SWAP1 MSTORE SWAP1 DUP3 AND PUSH1 0xC0 DUP2 SWAP1 MSTORE PUSH1 0x40 MLOAD PUSH4 0x95EA7B3 PUSH1 0xE0 SHL DUP2 MSTORE PUSH1 0x4 DUP2 ADD SWAP2 SWAP1 SWAP2 MSTORE PUSH1 0x0 NOT PUSH1 0x24 DUP3 ADD MSTORE PUSH4 0x95EA7B3 SWAP1 PUSH1 0x44 ADD PUSH1 0x20 PUSH1 0x40 MLOAD DUP1 DUP4 SUB DUP2 PUSH1 0x0 DUP8 GAS CALL ISZERO DUP1 ISZERO PUSH2 0xCB JUMPI RETURNDATASIZE PUSH1 0x0 DUP1 RETURNDATACOPY RETURNDATASIZE PUSH1 0x0 REVERT JUMPDEST POP POP POP POP PUSH1 0x40 MLOAD RETURNDATASIZE PUSH1 0x1F NOT PUSH1 0x1F DUP3 ADD AND DUP3 ADD DUP1 PUSH1 0x40 MSTORE POP DUP2 ADD SWAP1 PUSH2 0xEF SWAP2 SWAP1 PUSH2 0x1A7 JUMP JUMPDEST POP POP POP POP PUSH2 0x1D0 JUMP JUMPDEST PUSH1 0x0 DUP1 SLOAD PUSH1 0x1 PUSH1 0x1 PUSH1 0xA0 SHL SUB DUP4 DUP2 AND PUSH1 0x1 PUSH1 0x1 PUSH1 0xA0 SHL SUB NOT DUP4 AND DUP2 OR DUP5 SSTORE PUSH1 0x40 MLOAD SWAP2 SWAP1 SWAP3 AND SWAP3 DUP4 SWAP2 PUSH32 0x8BE0079C531659141344CD1FD0A4F28419497F9722A3DAAFE3B4186F6B6457E0 SWAP2 SWAP1 LOG3 POP POP JUMP JUMPDEST DUP1 MLOAD PUSH1 0x1 PUSH1 0x1 PUSH1 0xA0 SHL SUB DUP2 AND DUP2 EQ PUSH2 0x15F JUMPI PUSH1 0x0 DUP1 REVERT JUMPDEST SWAP2 SWAP1 POP JUMP JUMPDEST PUSH1 0x0 DUP1 PUSH1 0x0 PUSH1 0x60 DUP5 DUP7 SUB SLT ISZERO PUSH2 0x179 JUMPI PUSH1 0x0 DUP1 REVERT JUMPDEST PUSH2 0x182 DUP5 PUSH2 0x148 JUMP JUMPDEST SWAP3 POP PUSH2 0x190 PUSH1 0x20 DUP6 ADD PUSH2 0x148 JUMP JUMPDEST SWAP2 POP PUSH2 0x19E PUSH1 0x40 DUP6 ADD PUSH2 0x148 JUMP JUMPDEST SWAP1 POP SWAP3 POP SWAP3 POP SWAP3 JUMP JUMPDEST PUSH1 0x0 PUSH1 0x20 DUP3 DUP5 SUB SLT ISZERO PUSH2 0x1B9 JUMPI PUSH1 0x0 DUP1 REVERT JUMPDEST DUP2 MLOAD DUP1 ISZERO ISZERO DUP2 EQ PUSH2 0x1C9 JUMPI PUSH1 0x0 DUP1 REVERT JUMPDEST SWAP4 SWAP3 POP POP POP JUMP JUMPDEST PUSH1 0x80 MLOAD PUSH1 0xA0 MLOAD PUSH1 0xC0 MLOAD PUSH2 0x6CB PUSH2 0x236 PUSH1 0x0 CODECOPY PUSH1 0x0 DUP2 DUP2 PUSH1 0xBF ADD MSTORE DUP2 DUP2 PUSH2 0x26C ADD MSTORE PUSH2 0x3B9 ADD MSTORE PUSH1 0x0 DUP2 DUP2 PUSH2 0x113 ADD MSTORE DUP2 DUP2 PUSH2 0x230 ADD MSTORE DUP2 DUP2 PUSH2 0x384 ADD MSTORE PUSH2 0x4A0 ADD MSTORE PUSH1 0x0 DUP2 DUP2 PUSH2 0x182 ADD MSTORE DUP2 DUP2 PUSH2 0x1AF ADD MSTORE DUP2 DUP2 PUSH2 0x303 ADD MSTORE PUSH2 0x471 ADD MSTORE PUSH2 0x6CB PUSH1 0x0 RETURN INVALID PUSH1 0x80 PUSH1 0x40 MSTORE CALLVALUE DUP1 ISZERO PUSH2 0x10 JUMPI PUSH1 0x0 DUP1 REVERT JUMPDEST POP PUSH1 0x4 CALLDATASIZE LT PUSH2 0x9E JUMPI PUSH1 0x0 CALLDATALOAD PUSH1 0xE0 SHR DUP1 PUSH4 0x8CA17995 GT PUSH2 0x66 JUMPI DUP1 PUSH4 0x8CA17995 EQ PUSH2 0x13D JUMPI DUP1 PUSH4 0x8DA5CB5B EQ PUSH2 0x150 JUMPI DUP1 PUSH4 0xC9168A59 EQ PUSH2 0x161 JUMPI DUP1 PUSH4 0xF2FDE38B EQ PUSH2 0x16A JUMPI DUP1 PUSH4 0xFBFA77CF EQ PUSH2 0x17D JUMPI PUSH1 0x0 DUP1 REVERT JUMPDEST DUP1 PUSH4 0x1E1D114 EQ PUSH2 0xA3 JUMPI DUP1 PUSH4 0x16F0115B EQ PUSH2 0xBA JUMPI DUP1 PUSH4 0x2AFCF480 EQ PUSH2 0xF9 JUMPI DUP1 PUSH4 0x6F307DC3 EQ PUSH2 0x10E JUMPI DUP1 PUSH4 0x715018A6 EQ PUSH2 0x135 JUMPI JUMPDEST PUSH1 0x0 DUP1 REVERT JUMPDEST PUSH1 0x1 SLOAD JUMPDEST PUSH1 0x40 MLOAD SWAP1 DUP2 MSTORE PUSH1 0x20 ADD JUMPDEST PUSH1 0x40 MLOAD DUP1 SWAP2 SUB SWAP1 RETURN JUMPDEST PUSH2 0xE1 PUSH32 0x0 DUP2 JUMP JUMPDEST PUSH1 0x40 MLOAD PUSH1 0x1 PUSH1 0x1 PUSH1 0xA0 SHL SUB SWAP1 SWAP2 AND DUP2 MSTORE PUSH1 0x20 ADD PUSH2 0xB1 JUMP JUMPDEST PUSH2 0x10C PUSH2 0x107 CALLDATASIZE PUSH1 0x4 PUSH2 0x5CF JUMP JUMPDEST PUSH2 0x1A4 JUMP JUMPDEST STOP JUMPDEST PUSH2 0xE1 PUSH32 0x0 DUP2 JUMP JUMPDEST PUSH2 0x10C PUSH2 0x2E2 JUMP JUMPDEST PUSH2 0xA7 PUSH2 0x14B CALLDATASIZE PUSH1 0x4 PUSH2 0x5CF JUMP JUMPDEST PUSH2 0x2F6 JUMP JUMPDEST PUSH1 0x0 SLOAD PUSH1 0x1 PUSH1 0x1 PUSH1 0xA0 SHL SUB AND PUSH2 0xE1 JUMP JUMPDEST PUSH2 0xA7 PUSH1 0x1 SLOAD DUP2 JUMP JUMPDEST PUSH2 0x10C PUSH2 0x178 CALLDATASIZE PUSH1 0x4 PUSH2 0x5E8 JUMP JUMPDEST PUSH2 0x514 JUMP JUMPDEST PUSH2 0xE1 PUSH32 0x0 DUP2 JUMP JUMPDEST CALLER PUSH1 0x1 PUSH1 0x1 PUSH1 0xA0 SHL SUB PUSH32 0x0 AND EQ PUSH2 0x20E JUMPI PUSH1 0x40 MLOAD PUSH3 0x461BCD PUSH1 0xE5 SHL DUP2 MSTORE PUSH1 0x20 PUSH1 0x4 DUP3 ADD MSTORE PUSH1 0xA PUSH1 0x24 DUP3 ADD MSTORE PUSH10 0x1BDB9B1E481D985D5B1D PUSH1 0xB2 SHL PUSH1 0x44 DUP3 ADD MSTORE PUSH1 0x64 ADD JUMPDEST PUSH1 0x40 MLOAD DUP1 SWAP2 SUB SWAP1 REVERT JUMPDEST DUP1 PUSH1 0x0 SUB PUSH2 0x219 JUMPI POP JUMP JUMPDEST PUSH1 0x40 MLOAD PUSH4 0x617BA037 PUSH1 0xE0 SHL DUP2 MSTORE PUSH1 0x1 PUSH1 0x1 PUSH1 0xA0 SHL SUB PUSH32 0x0 DUP2 AND PUSH1 0x4 DUP4 ADD MSTORE PUSH1 0x24 DUP3 ADD DUP4 SWAP1 MSTORE ADDRESS PUSH1 0x44 DUP4 ADD MSTORE PUSH1 0x0 PUSH1 0x64 DUP4 ADD MSTORE PUSH32 0x0 AND SWAP1 PUSH4 0x617BA037 SWAP1 PUSH1 0x84 ADD PUSH1 0x0 PUSH1 0x40 MLOAD DUP1 DUP4 SUB DUP2 PUSH1 0x0 DUP8 DUP1 EXTCODESIZE ISZERO DUP1 ISZERO PUSH2 0x2B0 JUMPI PUSH1 0x0 DUP1 REVERT JUMPDEST POP GAS CALL ISZERO DUP1 ISZERO PUSH2 0x2C4 JUMPI RETURNDATASIZE PUSH1 0x0 DUP1 RETURNDATACOPY RETURNDATASIZE PUSH1 0x0 REVERT JUMPDEST POP POP POP POP DUP1 PUSH1 0x1 PUSH1 0x0 DUP3 DUP3 SLOAD PUSH2 0x2DA SWAP2 SWAP1 PUSH2 0x62E JUMP JUMPDEST SWAP1 SWAP2 SSTORE POP POP POP JUMP JUMPDEST PUSH2 0x2EA PUSH2 0x552 JUMP JUMPDEST PUSH2 0x2F4 PUSH1 0x0 PUSH2 0x57F JUMP JUMPDEST JUMP JUMPDEST PUSH1 0x0 CALLER PUSH1 0x1 PUSH1 0x1 PUSH1 0xA0 SHL SUB PUSH32 0x0 AND EQ PUSH2 0x35D JUMPI PUSH1 0x40 MLOAD PUSH3 0x461BCD PUSH1 0xE5 SHL DUP2 MSTORE PUSH1 0x20 PUSH1 0x4 DUP3 ADD MSTORE PUSH1 0xA PUSH1 0x24 DUP3 ADD MSTORE PUSH10 0x1BDB9B1E481D985D5B1D PUSH1 0xB2 SHL PUSH1 0x44 DUP3 ADD MSTORE PUSH1 0x64 ADD PUSH2 0x205 JUMP JUMPDEST DUP2 PUSH1 0x0 SUB PUSH2 0x36D JUMPI POP PUSH1 0x0 SWAP2 SWAP1 POP JUMP JUMPDEST PUSH1 0x40 MLOAD PUSH4 0x1A4CA37B PUSH1 0xE2 SHL DUP2 MSTORE PUSH1 0x1 PUSH1 0x1 PUSH1 0xA0 SHL SUB PUSH32 0x0 DUP2 AND PUSH1 0x4 DUP4 ADD MSTORE PUSH1 0x24 DUP3 ADD DUP5 SWAP1 MSTORE ADDRESS PUSH1 0x44 DUP4 ADD MSTORE PUSH32 0x0 AND SWAP1 PUSH4 0x69328DEC SWAP1 PUSH1 0x64 ADD PUSH1 0x20 PUSH1 0x40 MLOAD DUP1 DUP4 SUB DUP2 PUSH1 0x0 DUP8 GAS CALL ISZERO DUP1 ISZERO PUSH2 0x402 JUMPI RETURNDATASIZE PUSH1 0x0 DUP1 RETURNDATACOPY RETURNDATASIZE PUSH1 0x0 REVERT JUMPDEST POP POP POP POP PUSH1 0x40 MLOAD RETURNDATASIZE PUSH1 0x1F NOT PUSH1 0x1F DUP3 ADD AND DUP3 ADD DUP1 PUSH1 0x40 MSTORE POP DUP2 ADD SWAP1 PUSH2 0x426 SWAP2 SWAP1 PUSH2 0x647 JUMP JUMPDEST SWAP1 POP DUP1 ISZERO PUSH2 0x50F JUMPI PUSH1 0x1 SLOAD DUP2 GT ISZERO PUSH2 0x442 JUMPI PUSH1 0x0 PUSH1 0x1 SSTORE PUSH2 0x45A JUMP JUMPDEST DUP1 PUSH1 0x1 PUSH1 0x0 DUP3 DUP3 SLOAD PUSH2 0x454 SWAP2 SWAP1 PUSH2 0x660 JUMP JUMPDEST SWAP1 SWAP2 SSTORE POP POP JUMPDEST PUSH1 0x40 MLOAD PUSH4 0xA9059CBB PUSH1 0xE0 SHL DUP2 MSTORE PUSH1 0x1 PUSH1 0x1 PUSH1 0xA0 SHL SUB PUSH32 0x0 DUP2 AND PUSH1 0x4 DUP4 ADD MSTORE PUSH1 0x24 DUP3 ADD DUP4 SWAP1 MSTORE PUSH32 0x0 AND SWAP1 PUSH4 0xA9059CBB SWAP1 PUSH1 0x44 ADD PUSH1 0x20 PUSH1 0x40 MLOAD DUP1 DUP4 SUB DUP2 PUSH1 0x0 DUP8 GAS CALL ISZERO DUP1 ISZERO PUSH2 0x4E9 JUMPI RETURNDATASIZE PUSH1 0x0 DUP1 RETURNDATACOPY RETURNDATASIZE PUSH1 0x0 REVERT JUMPDEST POP POP POP POP PUSH1 0x40 MLOAD RETURNDATASIZE PUSH1 0x1F NOT PUSH1 0x1F DUP3 ADD AND DUP3 ADD DUP1 PUSH1 0x40 MSTORE POP DUP2 ADD SWAP1 PUSH2 0x50D SWAP2 SWAP1 PUSH2 0x673 JUMP JUMPDEST POP JUMPDEST SWAP2 SWAP1 POP JUMP JUMPDEST PUSH2 0x51C PUSH2 0x552 JUMP JUMPDEST PUSH1 0x1 PUSH1 0x1 PUSH1 0xA0 SHL SUB DUP2 AND PUSH2 0x546 JUMPI PUSH1 0x40 MLOAD PUSH4 0x1E4FBDF7 PUSH1 0xE0 SHL DUP2 MSTORE PUSH1 0x0 PUSH1 0x4 DUP3 ADD MSTORE PUSH1 0x24 ADD PUSH2 0x205 JUMP JUMPDEST PUSH2 0x54F DUP2 PUSH2 0x57F JUMP JUMPDEST POP JUMP JUMPDEST PUSH1 0x0 SLOAD PUSH1 0x1 PUSH1 0x1 PUSH1 0xA0 SHL SUB AND CALLER EQ PUSH2 0x2F4 JUMPI PUSH1 0x40 MLOAD PUSH4 0x118CDAA7 PUSH1 0xE0 SHL DUP2 MSTORE CALLER PUSH1 0x4 DUP3 ADD MSTORE PUSH1 0x24 ADD PUSH2 0x205 JUMP JUMPDEST PUSH1 0x0 DUP1 SLOAD PUSH1 0x1 PUSH1 0x1 PUSH1 0xA0 SHL SUB DUP4 DUP2 AND PUSH1 0x1 PUSH1 0x1 PUSH1 0xA0 SHL SUB NOT DUP4 AND DUP2 OR DUP5 SSTORE PUSH1 0x40 MLOAD SWAP2 SWAP1 SWAP3 AND SWAP3 DUP4 SWAP2 PUSH32 0x8BE0079C531659141344CD1FD0A4F28419497F9722A3DAAFE3B4186F6B6457E0 SWAP2 SWAP1 LOG3 POP POP JUMP JUMPDEST PUSH1 0x0 PUSH1 0x20 DUP3 DUP5 SUB SLT ISZERO PUSH2 0x5E1 JUMPI PUSH1 0x0 DUP1 REVERT JUMPDEST POP CALLDATALOAD SWAP2 SWAP1 POP JUMP JUMPDEST PUSH1 0x0 PUSH1 0x20 DUP3 DUP5 SUB SLT ISZERO PUSH2 0x5FA JUMPI PUSH1 0x0 DUP1 REVERT JUMPDEST DUP2 CALLDATALOAD PUSH1 0x1 PUSH1 0x1 PUSH1 0xA0 SHL SUB DUP2 AND DUP2 EQ PUSH2 0x611 JUMPI PUSH1 0x0 DUP1 REVERT JUMPDEST SWAP4 SWAP3 POP POP POP JUMP JUMPDEST PUSH4 0x4E487B71 PUSH1 0xE0 SHL PUSH1 0x0 MSTORE PUSH1 0x11 PUSH1 0x4 MSTORE PUSH1 0x24 PUSH1 0x0 REVERT JUMPDEST DUP1 DUP3 ADD DUP1 DUP3 GT ISZERO PUSH2 0x641 JUMPI PUSH2 0x641 PUSH2 0x618 JUMP JUMPDEST SWAP3 SWAP2 POP POP JUMP JUMPDEST PUSH1 0x0 PUSH1 0x20 DUP3 DUP5 SUB SLT ISZERO PUSH2 0x659 JUMPI PUSH1 0x0 DUP1 REVERT JUMPDEST POP MLOAD SWAP2 SWAP1 POP JUMP JUMPDEST DUP2 DUP2 SUB DUP2 DUP2 GT ISZERO PUSH2 0x641 JUMPI PUSH2 0x641 PUSH2 0x618 JUMP JUMPDEST PUSH1 0x0 PUSH1 0x20 DUP3 DUP5 SUB SLT ISZERO PUSH2 0x685 JUMPI PUSH1 0x0 DUP1 REVERT JUMPDEST DUP2 MLOAD DUP1 ISZERO ISZERO DUP2 EQ PUSH2 0x611 JUMPI PUSH1 0x0 DUP1 REVERT INVALID LOG2 PUSH5 0x6970667358 0x22 SLT KECCAK256 SWAP7 0x29 0xB1 BALANCE 0xCA PC 0xB5 0xAA DUP16 0xBB 0x2E 0x4F RETURNDATACOPY STATICCALL 0x4E PUSH18 0x5C9A44FA84BFFE2F630EDDB4196761C6473 PUSH16 0x6C634300081400330000000000000000 "},"methodIdentifiers":{"divest(uint256)":"8ca17995","invest(uint256)":"2afcf480","investedBalance()":"c9168a59","owner()":"8da5cb5b","pool()":"16f0115b","renounceOwnership()":"715018a6","totalAssets()":"01e1d114","transferOwnership(address)":"f2fde38b","underlying()":"6f307dc3","vault()":"fbfa77cf"}}}}}