{"contracts/ObsidianVault.sol":{"LavaOptimizedVault":{"abi":[{"inputs":[{"internalType":"contract IWcBTC","name":"_wcbtc","type":"address"},{"internalType":"contract IZentraPool","name":"_zentraPool","type":"address"},{"internalType":"contract ISatsumaLPVault","name":"_satsumaLPVault","type":"address"}],"stateMutability":"nonpayable","type":"constructor"},{"inputs":[{"internalType":"address","name":"spender","type":"address"},{"internalType":"uint256","name":"allowance","type":"uint256"},{"internalType":"uint256","name":"needed","type":"uint256"}],"name":"ERC20InsufficientAllowance","type":"error"},{"inputs":[{"internalType":"address","name":"sender","type":"address"},{"internalType":"uint256","name":"balance","type":"uint256"},{"internalType":"uint256","name":"needed","type":"uint256"}],"name":"ERC20InsufficientBalance","type":"error"},{"inputs":[{"internalType":"address","name":"approver","type":"address"}],"name":"ERC20InvalidApprover","type":"error"},{"inputs":[{"internalType":"address","name":"receiver","type":"address"}],"name":"ERC20InvalidReceiver","type":"error"},{"inputs":[{"internalType":"address","name":"sender","type":"address"}],"name":"ERC20InvalidSender","type":"error"},{"inputs":[{"internalType":"address","name":"spender","type":"address"}],"name":"ERC20InvalidSpender","type":"error"},{"inputs":[],"name":"EnforcedPause","type":"error"},{"inputs":[],"name":"ExpectedPause","type":"error"},{"inputs":[{"internalType":"address","name":"owner","type":"address"}],"name":"OwnableInvalidOwner","type":"error"},{"inputs":[{"internalType":"address","name":"account","type":"address"}],"name":"OwnableUnauthorizedAccount","type":"error"},{"inputs":[],"name":"ReentrancyGuardReentrantCall","type":"error"},{"anonymous":false,"inputs":[{"indexed":true,"internalType":"uint256","name":"strategyId","type":"uint256"},{"indexed":false,"internalType":"uint256","name":"bps","type":"uint256"}],"name":"AllocationSet","type":"event"},{"anonymous":false,"inputs":[{"indexed":true,"internalType":"address","name":"owner","type":"address"},{"indexed":true,"internalType":"address","name":"spender","type":"address"},{"indexed":false,"internalType":"uint256","name":"value","type":"uint256"}],"name":"Approval","type":"event"},{"anonymous":false,"inputs":[{"indexed":true,"internalType":"address","name":"user","type":"address"},{"indexed":false,"internalType":"uint256","name":"cbtcAmount","type":"uint256"},{"indexed":false,"internalType":"uint256","name":"sharesMinted","type":"uint256"}],"name":"Deposited","type":"event"},{"anonymous":false,"inputs":[{"indexed":true,"internalType":"address","name":"previousOwner","type":"address"},{"indexed":true,"internalType":"address","name":"newOwner","type":"address"}],"name":"OwnershipTransferred","type":"event"},{"anonymous":false,"inputs":[{"indexed":false,"internalType":"address","name":"account","type":"address"}],"name":"Paused","type":"event"},{"anonymous":false,"inputs":[{"indexed":false,"internalType":"int256","name":"zentraDelta","type":"int256"},{"indexed":false,"internalType":"int256","name":"satsumaDelta","type":"int256"}],"name":"Rebalanced","type":"event"},{"anonymous":false,"inputs":[{"indexed":true,"internalType":"address","name":"from","type":"address"},{"indexed":true,"internalType":"address","name":"to","type":"address"},{"indexed":false,"internalType":"uint256","name":"value","type":"uint256"}],"name":"Transfer","type":"event"},{"anonymous":false,"inputs":[{"indexed":false,"internalType":"address","name":"account","type":"address"}],"name":"Unpaused","type":"event"},{"anonymous":false,"inputs":[{"indexed":true,"internalType":"address","name":"user","type":"address"},{"indexed":false,"internalType":"uint256","name":"sharesBurnt","type":"uint256"},{"indexed":false,"internalType":"uint256","name":"cbtcAmount","type":"uint256"}],"name":"Withdrawn","type":"event"},{"inputs":[],"name":"SATSUMA_LP_VAULT","outputs":[{"internalType":"contract ISatsumaLPVault","name":"","type":"address"}],"stateMutability":"view","type":"function"},{"inputs":[],"name":"TOTAL_BPS","outputs":[{"internalType":"uint256","name":"","type":"uint256"}],"stateMutability":"view","type":"function"},{"inputs":[],"name":"ZENTRA_POOL","outputs":[{"internalType":"contract IZentraPool","name":"","type":"address"}],"stateMutability":"view","type":"function"},{"inputs":[],"name":"Z_TOKEN","outputs":[{"internalType":"contract IZToken","name":"","type":"address"}],"stateMutability":"view","type":"function"},{"inputs":[{"internalType":"address","name":"owner","type":"address"},{"internalType":"address","name":"spender","type":"address"}],"name":"allowance","outputs":[{"internalType":"uint256","name":"","type":"uint256"}],"stateMutability":"view","type":"function"},{"inputs":[{"internalType":"address","name":"spender","type":"address"},{"internalType":"uint256","name":"value","type":"uint256"}],"name":"approve","outputs":[{"internalType":"bool","name":"","type":"bool"}],"stateMutability":"nonpayable","type":"function"},{"inputs":[],"name":"asset","outputs":[{"internalType":"contract IWcBTC","name":"","type":"address"}],"stateMutability":"view","type":"function"},{"inputs":[{"internalType":"address","name":"account","type":"address"}],"name":"balanceOf","outputs":[{"internalType":"uint256","name":"","type":"uint256"}],"stateMutability":"view","type":"function"},{"inputs":[{"internalType":"uint256","name":"shares","type":"uint256"}],"name":"convertToAssets","outputs":[{"internalType":"uint256","name":"","type":"uint256"}],"stateMutability":"view","type":"function"},{"inputs":[{"internalType":"uint256","name":"assets","type":"uint256"}],"name":"convertToShares","outputs":[{"internalType":"uint256","name":"","type":"uint256"}],"stateMutability":"view","type":"function"},{"inputs":[],"name":"decimals","outputs":[{"internalType":"uint8","name":"","type":"uint8"}],"stateMutability":"view","type":"function"},{"inputs":[{"internalType":"address","name":"receiver","type":"address"}],"name":"deposit","outputs":[],"stateMutability":"payable","type":"function"},{"inputs":[{"internalType":"address","name":"","type":"address"}],"name":"maxDeposit","outputs":[{"internalType":"uint256","name":"","type":"uint256"}],"stateMutability":"pure","type":"function"},{"inputs":[{"internalType":"address","name":"","type":"address"}],"name":"maxMint","outputs":[{"internalType":"uint256","name":"","type":"uint256"}],"stateMutability":"pure","type":"function"},{"inputs":[{"internalType":"address","name":"owner","type":"address"}],"name":"maxRedeem","outputs":[{"internalType":"uint256","name":"","type":"uint256"}],"stateMutability":"view","type":"function"},{"inputs":[{"internalType":"address","name":"owner","type":"address"}],"name":"maxWithdraw","outputs":[{"internalType":"uint256","name":"","type":"uint256"}],"stateMutability":"view","type":"function"},{"inputs":[],"name":"name","outputs":[{"internalType":"string","name":"","type":"string"}],"stateMutability":"view","type":"function"},{"inputs":[],"name":"owner","outputs":[{"internalType":"address","name":"","type":"address"}],"stateMutability":"view","type":"function"},{"inputs":[],"name":"pause","outputs":[],"stateMutability":"nonpayable","type":"function"},{"inputs":[],"name":"paused","outputs":[{"internalType":"bool","name":"","type":"bool"}],"stateMutability":"view","type":"function"},{"inputs":[{"internalType":"uint256","name":"assets","type":"uint256"}],"name":"previewDeposit","outputs":[{"internalType":"uint256","name":"","type":"uint256"}],"stateMutability":"view","type":"function"},{"inputs":[{"internalType":"uint256","name":"shares","type":"uint256"}],"name":"previewMint","outputs":[{"internalType":"uint256","name":"","type":"uint256"}],"stateMutability":"view","type":"function"},{"inputs":[{"internalType":"uint256","name":"shares","type":"uint256"}],"name":"previewRedeem","outputs":[{"internalType":"uint256","name":"","type":"uint256"}],"stateMutability":"view","type":"function"},{"inputs":[{"internalType":"uint256","name":"assets","type":"uint256"}],"name":"previewWithdraw","outputs":[{"internalType":"uint256","name":"","type":"uint256"}],"stateMutability":"view","type":"function"},{"inputs":[],"name":"rebalance","outputs":[],"stateMutability":"nonpayable","type":"function"},{"inputs":[],"name":"renounceOwnership","outputs":[],"stateMutability":"nonpayable","type":"function"},{"inputs":[{"internalType":"uint256","name":"_strategyId","type":"uint256"},{"internalType":"uint128","name":"_bps","type":"uint128"}],"name":"setAllocation","outputs":[],"stateMutability":"nonpayable","type":"function"},{"inputs":[{"internalType":"uint256","name":"","type":"uint256"}],"name":"strategies","outputs":[{"internalType":"uint128","name":"allocationBps","type":"uint128"}],"stateMutability":"view","type":"function"},{"inputs":[],"name":"symbol","outputs":[{"internalType":"string","name":"","type":"string"}],"stateMutability":"view","type":"function"},{"inputs":[],"name":"totalAllocationBps","outputs":[{"internalType":"uint256","name":"","type":"uint256"}],"stateMutability":"view","type":"function"},{"inputs":[],"name":"totalAssets","outputs":[{"internalType":"uint256","name":"","type":"uint256"}],"stateMutability":"view","type":"function"},{"inputs":[],"name":"totalSupply","outputs":[{"internalType":"uint256","name":"","type":"uint256"}],"stateMutability":"view","type":"function"},{"inputs":[{"internalType":"address","name":"to","type":"address"},{"internalType":"uint256","name":"value","type":"uint256"}],"name":"transfer","outputs":[{"internalType":"bool","name":"","type":"bool"}],"stateMutability":"nonpayable","type":"function"},{"inputs":[{"internalType":"address","name":"from","type":"address"},{"internalType":"address","name":"to","type":"address"},{"internalType":"uint256","name":"value","type":"uint256"}],"name":"transferFrom","outputs":[{"internalType":"bool","name":"","type":"bool"}],"stateMutability":"nonpayable","type":"function"},{"inputs":[{"internalType":"address","name":"newOwner","type":"address"}],"name":"transferOwnership","outputs":[],"stateMutability":"nonpayable","type":"function"},{"inputs":[],"name":"unpause","outputs":[],"stateMutability":"nonpayable","type":"function"},{"inputs":[{"internalType":"uint256","name":"shares","type":"uint256"},{"internalType":"address","name":"receiver","type":"address"}],"name":"withdraw","outputs":[],"stateMutability":"nonpayable","type":"function"},{"stateMutability":"payable","type":"receive"}],"evm":{"bytecode":{"linkReferences":{},"object":"6101006040523480156200001257600080fd5b50604051620026203803806200262083398101604081905262000035916200034f565b336040518060400160405280601381526020017f4c617661204f7074696d697a6564206342544300000000000000000000000000815250604051806040016040528060058152602001646f6342544360d81b81525081600390816200009b919062000448565b506004620000aa828262000448565b50506001600555506001600160a01b038116620000e257604051631e4fbdf760e01b8152600060048201526024015b60405180910390fd5b620000ed81620002dc565b506001600160a01b03838116608081905283821660a081905291831660c0526040516335ea6a7560e01b81526004810191909152600091906335ea6a759060240161018060405180830381865afa1580156200014d573d6000803e3d6000fd5b505050506040513d601f19601f8201168201806040525081019062000173919062000550565b50929a50506001600160a01b038a169850620001db9750505050505050505760405162461bcd60e51b815260206004820152601660248201527f496e76616c6964207a546f6b656e2061646472657373000000000000000000006044820152606401620000d9565b6001600160a01b0381811660e05260405163095ea7b360e01b8152848216600482015260001960248201529085169063095ea7b3906044016020604051808303816000875af115801562000233573d6000803e3d6000fd5b505050506040513d601f19601f8201168201806040525081019062000259919062000647565b5060405163095ea7b360e01b81526001600160a01b038381166004830152600019602483015285169063095ea7b3906044016020604051808303816000875af1158015620002ab573d6000803e3d6000fd5b505050506040513d601f19601f82011682018060405250810190620002d1919062000647565b505050505062000672565b600680546001600160a01b03838116610100818102610100600160a81b031985161790945560405193909204169182907f8be0079c531659141344cd1fd0a4f28419497f9722a3daafe3b4186f6b6457e090600090a35050565b6001600160a01b03811681146200034c57600080fd5b50565b6000806000606084860312156200036557600080fd5b8351620003728162000336565b6020850151909350620003858162000336565b6040850151909250620003988162000336565b809150509250925092565b634e487b7160e01b600052604160045260246000fd5b600181811c90821680620003ce57607f821691505b602082108103620003ef57634e487b7160e01b600052602260045260246000fd5b50919050565b601f8211156200044357600081815260208120601f850160051c810160208610156200041e5750805b601f850160051c820191505b818110156200043f578281556001016200042a565b5050505b505050565b81516001600160401b03811115620004645762000464620003a3565b6200047c81620004758454620003b9565b84620003f5565b602080601f831160018114620004b457600084156200049b5750858301515b600019600386901b1c1916600185901b1785556200043f565b600085815260208120601f198616915b82811015620004e557888601518255948401946001909101908401620004c4565b5085821015620005045787850151600019600388901b60f8161c191681555b5050505050600190811b01905550565b80516001600160801b03811681146200052c57600080fd5b919050565b80516200052c8162000336565b805160ff811681146200052c57600080fd5b6000806000806000806000806000806000806101808d8f0312156200057457600080fd5b8c519b506200058660208e0162000514565b9a506200059660408e0162000514565b9950620005a660608e0162000514565b9850620005b660808e0162000514565b9750620005c660a08e0162000514565b965060c08d015164ffffffffff81168114620005e157600080fd5b9550620005f160e08e0162000531565b9450620006026101008e0162000531565b9350620006136101208e0162000531565b9250620006246101408e0162000531565b9150620006356101608e016200053e565b90509295989b509295989b509295989b565b6000602082840312156200065a57600080fd5b815180151581146200066b57600080fd5b9392505050565b60805160a05160c05160e051611eef62000731600039600081816106cb015281816108ea01528181610c19015261142b0152600081816106970152818161096b01528181610dd301528181610e95015281816115b101526119a801526000818161057c01528181610d4701528181610f5e0152818161150b015261192901526000818161037e0152818161078801528181610a0d01528181610d0f01528181610f220152818161128e015281816114d601526118ed0152611eef6000f3fe60806040526004361061021d5760003560e01c80638456cb5911610123578063d3cd52bc116100ab578063ef8b30f71161006f578063ef8b30f7146102e5578063f2fde38b14610652578063f340fa0114610672578063f7010bb114610685578063fceedcdf146106b957600080fd5b8063d3cd52bc14610554578063d4fcd7421461056a578063d574ea3d1461059e578063d905777e146105ec578063dd62ed3e1461060c57600080fd5b8063a9059cbb116100f2578063a9059cbb146104f4578063b3d7f6b9146103ef578063c63d75b6146103cd578063c6e6f59214610514578063ce96cb771461053457600080fd5b80638456cb59146104875780638da5cb5b1461049c57806395d89b41146104bf578063a8ccde78146104d457600080fd5b8063313ce567116101a65780634cdad506116101755780634cdad506146103ef5780635c975abb1461040f57806370a0823114610427578063715018a61461045d5780637d7c2a1c1461047257600080fd5b8063313ce5671461035057806338d52e0f1461036c5780633f4ba83a146103b8578063402d267d146103cd57600080fd5b8063095ea7b3116101ed578063095ea7b3146102b55780630a28a477146102e557806318160ddd1461030557806323b872dd1461031a57806330f2c1301461033a57600080fd5b8062f714ce1461022957806301e1d1141461024b57806306fdde031461027357806307a2d13a1461029557600080fd5b3661022457005b600080fd5b34801561023557600080fd5b50610249610244366004611c5b565b6106ed565b005b34801561025757600080fd5b506102606108d0565b6040519081526020015b60405180910390f35b34801561027f57600080fd5b50610288610a90565b60405161026a9190611c87565b3480156102a157600080fd5b506102606102b0366004611cd5565b610b22565b3480156102c157600080fd5b506102d56102d0366004611cee565b610b61565b604051901515815260200161026a565b3480156102f157600080fd5b50610260610300366004611cd5565b610b79565b34801561031157600080fd5b50600254610260565b34801561032657600080fd5b506102d5610335366004611d18565b610b84565b34801561034657600080fd5b5061026060085481565b34801561035c57600080fd5b506040516012815260200161026a565b34801561037857600080fd5b506103a07f000000000000000000000000000000000000000000000000000000000000000081565b6040516001600160a01b03909116815260200161026a565b3480156103c457600080fd5b50610249610ba8565b3480156103d957600080fd5b506102606103e8366004611d54565b5060001990565b3480156103fb57600080fd5b5061026061040a366004611cd5565b610bba565b34801561041b57600080fd5b5060065460ff166102d5565b34801561043357600080fd5b50610260610442366004611d54565b6001600160a01b031660009081526020819052604090205490565b34801561046957600080fd5b50610249610bc5565b34801561047e57600080fd5b50610249610bd7565b34801561049357600080fd5b50610249611014565b3480156104a857600080fd5b5060065461010090046001600160a01b03166103a0565b3480156104cb57600080fd5b50610288611024565b3480156104e057600080fd5b506102496104ef366004611d6f565b611033565b34801561050057600080fd5b506102d561050f366004611cee565b611186565b34801561052057600080fd5b5061026061052f366004611cd5565b611194565b34801561054057600080fd5b5061026061054f366004611d54565b6111ba565b34801561056057600080fd5b5061026061271081565b34801561057657600080fd5b506103a07f000000000000000000000000000000000000000000000000000000000000000081565b3480156105aa57600080fd5b506105d46105b9366004611cd5565b6007602052600090815260409020546001600160801b031681565b6040516001600160801b03909116815260200161026a565b3480156105f857600080fd5b50610260610607366004611d54565b6111dc565b34801561061857600080fd5b50610260610627366004611dab565b6001600160a01b03918216600090815260016020908152604080832093909416825291909152205490565b34801561065e57600080fd5b5061024961066d366004611d54565b6111fa565b610249610680366004611d54565b611238565b34801561069157600080fd5b506103a07f000000000000000000000000000000000000000000000000000000000000000081565b3480156106c557600080fd5b506103a07f000000000000000000000000000000000000000000000000000000000000000081565b6106f5611377565b6106fd6113a1565b600061070883610b22565b90506000811161075f5760405162461bcd60e51b815260206004820152601b60248201527f576974686472617720616d6f756e74206d757374206265203e2030000000000060448201526064015b60405180910390fd5b61076933846113c5565b610772816113fb565b604051632e1a7d4d60e01b8152600481018290527f00000000000000000000000000000000000000000000000000000000000000006001600160a01b031690632e1a7d4d90602401600060405180830381600087803b1580156107d457600080fd5b505af11580156107e8573d6000803e3d6000fd5b505050506000826001600160a01b03168260405160006040518083038185875af1925050503d8060008114610839576040519150601f19603f3d011682016040523d82523d6000602084013e61083e565b606091505b50509050806108855760405162461bcd60e51b81526020600482015260136024820152724661696c656420746f2073656e64206342544360681b6044820152606401610756565b604080518581526020810184905233917f92ccf450a286a957af52509bc1c9939d1a6a481783e142e41e2499f0bb66ebc6910160405180910390a250506108cc6001600555565b5050565b6040516370a0823160e01b815230600482015260009081907f00000000000000000000000000000000000000000000000000000000000000006001600160a01b0316906370a0823190602401602060405180830381865afa158015610939573d6000803e3d6000fd5b505050506040513d601f19601f8201168201806040525081019061095d9190611dd5565b6109679082611e04565b90507f00000000000000000000000000000000000000000000000000000000000000006001600160a01b03166301e1d1146040518163ffffffff1660e01b8152600401602060405180830381865afa1580156109c7573d6000803e3d6000fd5b505050506040513d601f19601f820116820180604052508101906109eb9190611dd5565b6109f59082611e04565b6040516370a0823160e01b81523060048201529091507f00000000000000000000000000000000000000000000000000000000000000006001600160a01b0316906370a0823190602401602060405180830381865afa158015610a5c573d6000803e3d6000fd5b505050506040513d601f19601f82011682018060405250810190610a809190611dd5565b610a8a9082611e04565b92915050565b606060038054610a9f90611e17565b80601f0160208091040260200160405190810160405280929190818152602001828054610acb90611e17565b8015610b185780601f10610aed57610100808354040283529160200191610b18565b820191906000526020600020905b815481529060010190602001808311610afb57829003601f168201915b5050505050905090565b600080610b2e60025490565b90508015610b585780610b3f6108d0565b610b499085611e51565b610b539190611e68565b610b5a565b825b9392505050565b600033610b6f81858561162f565b5060019392505050565b6000610a8a82611194565b600033610b92858285611641565b610b9d8585856116c0565b506001949350505050565b610bb061171f565b610bb8611752565b565b6000610a8a82610b22565b610bcd61171f565b610bb860006117a4565b610bdf61171f565b610be7611377565b6000610bf16108d0565b905080600003610c01575061100a565b6040516370a0823160e01b81523060048201526000907f00000000000000000000000000000000000000000000000000000000000000006001600160a01b0316906370a0823190602401602060405180830381865afa158015610c68573d6000803e3d6000fd5b505050506040513d601f19601f82011682018060405250810190610c8c9190611dd5565b6001600090815260076020527fb39221ace053465ec3453ce2b36430bd138b997ecea25c1043da0c366812b828549192509061271090610cd5906001600160801b031685611e51565b610cdf9190611e68565b905060008082841115610e5b576000610cf88486611e8a565b604051631a4ca37b60e21b81526001600160a01b037f000000000000000000000000000000000000000000000000000000000000000081166004830152602482018390523060448301529192507f0000000000000000000000000000000000000000000000000000000000000000909116906369328dec906064016020604051808303816000875af1158015610d92573d6000803e3d6000fd5b505050506040513d601f19601f82011682018060405250810190610db69190611dd5565b50604051636e553f6560e01b8152600481018290523060248201527f00000000000000000000000000000000000000000000000000000000000000006001600160a01b031690636e553f65906044016020604051808303816000875af1158015610e24573d6000803e3d6000fd5b505050506040513d601f19601f82011682018060405250810190610e489190611dd5565b50610e5281611e9d565b92509050610fcb565b82841015610fcb576000610e6f8585611e8a565b604051632d182be560e21b815260048101829052306024820181905260448201529091507f00000000000000000000000000000000000000000000000000000000000000006001600160a01b03169063b460af94906064016020604051808303816000875af1158015610ee6573d6000803e3d6000fd5b505050506040513d601f19601f82011682018060405250810190610f0a9190611dd5565b5060405163617ba03760e01b81526001600160a01b037f00000000000000000000000000000000000000000000000000000000000000008116600483015260248201839052306044830152600060648301527f0000000000000000000000000000000000000000000000000000000000000000169063617ba03790608401600060405180830381600087803b158015610fa257600080fd5b505af1158015610fb6573d6000803e3d6000fd5b5050505080925080610fc790611e9d565b9150505b60408051838152602081018390527fe6b7d21138117399ef04d4d7904eabd626c683f9f007b1266adff7ad19e0cbca910160405180910390a150505050505b610bb86001600555565b61101c61171f565b610bb86117fe565b606060048054610a9f90611e17565b61103b61171f565b816001148061104a5750816002145b61108c5760405162461bcd60e51b8152602060048201526013602482015272125b9d985b1a59081cdd1c985d1959de481251606a1b6044820152606401610756565b6000828152600760205260409020546008546001600160801b03918216918316906110b8908390611e8a565b6110c29190611e04565b600881905561271010156111185760405162461bcd60e51b815260206004820152601d60248201527f546f74616c20616c6c6f636174696f6e206578636565647320313030250000006044820152606401610756565b60008381526007602090815260409182902080546fffffffffffffffffffffffffffffffff19166001600160801b038616908117909155915191825284917f083ebe321d32ab7ec630ce122ca15d07a2d1edc7a222fb279084fc24abdfe778910160405180910390a2505050565b600033610b6f8185856116c0565b6000806111a060025490565b90508015610b58576111b06108d0565b610b498285611e51565b6001600160a01b038116600090815260208190526040812054610a8a90610b22565b6001600160a01b038116600090815260208190526040812054610a8a565b61120261171f565b6001600160a01b03811661122c57604051631e4fbdf760e01b815260006004820152602401610756565b611235816117a4565b50565b611240611377565b6112486113a1565b348061128c5760405162461bcd60e51b815260206004820152601360248201527204465706f736974206d757374206265203e203606c1b6044820152606401610756565b7f00000000000000000000000000000000000000000000000000000000000000006001600160a01b031663d0e30db0826040518263ffffffff1660e01b81526004016000604051808303818588803b1580156112e757600080fd5b505af11580156112fb573d6000803e3d6000fd5b50505050506113128261130d83611194565b61183b565b61131b81611871565b6001600160a01b038216600081815260208181526040918290205482518581529182015281517f73a19dd210f1a7f902193214c0ee91dd35ee5b4d920cba8d519eca65a7b488ca929181900390910190a2506112356001600555565b60026005540361139a57604051633ee5aeb560e01b815260040160405180910390fd5b6002600555565b60065460ff1615610bb85760405163d93c066560e01b815260040160405180910390fd5b6001600160a01b0382166113ef57604051634b637e8f60e11b815260006004820152602401610756565b6108cc82600083611a1d565b60006114056108d0565b905080600003611413575050565b6040516370a0823160e01b81523060048201526000907f00000000000000000000000000000000000000000000000000000000000000006001600160a01b0316906370a0823190602401602060405180830381865afa15801561147a573d6000803e3d6000fd5b505050506040513d601f19601f8201168201806040525081019061149e9190611dd5565b90506000826114ad8386611e51565b6114b79190611e68565b9050801561157a57604051631a4ca37b60e21b81526001600160a01b037f000000000000000000000000000000000000000000000000000000000000000081166004830152602482018390523060448301527f000000000000000000000000000000000000000000000000000000000000000016906369328dec906064016020604051808303816000875af1158015611554573d6000803e3d6000fd5b505050506040513d601f19601f820116820180604052508101906115789190611dd5565b505b60006115868286611e8a565b9050801561162857604051632d182be560e21b815260048101829052306024820181905260448201527f00000000000000000000000000000000000000000000000000000000000000006001600160a01b03169063b460af94906064016020604051808303816000875af1158015611602573d6000803e3d6000fd5b505050506040513d601f19601f820116820180604052508101906116269190611dd5565b505b5050505050565b61163c8383836001611b47565b505050565b6001600160a01b038381166000908152600160209081526040808320938616835292905220546000198110156116ba57818110156116ab57604051637dc7a0d960e11b81526001600160a01b03841660048201526024810182905260448101839052606401610756565b6116ba84848484036000611b47565b50505050565b6001600160a01b0383166116ea57604051634b637e8f60e11b815260006004820152602401610756565b6001600160a01b0382166117145760405163ec442f0560e01b815260006004820152602401610756565b61163c838383611a1d565b6006546001600160a01b03610100909104163314610bb85760405163118cdaa760e01b8152336004820152602401610756565b61175a611c1c565b6006805460ff191690557f5db9ee0a495bf2e6ff9c91a7834c1ba4fdd244a5e8aa4e537bd38aeae4b073aa335b6040516001600160a01b03909116815260200160405180910390a1565b600680546001600160a01b03838116610100818102610100600160a81b031985161790945560405193909204169182907f8be0079c531659141344cd1fd0a4f28419497f9722a3daafe3b4186f6b6457e090600090a35050565b6118066113a1565b6006805460ff191660011790557f62e78cea01bee320cd4e420270b5ea74000d11b0c9f74754ebdbfc544b05a2586117873390565b6001600160a01b0382166118655760405163ec442f0560e01b815260006004820152602401610756565b6108cc60008383611a1d565b6001600090815260076020527fb39221ace053465ec3453ce2b36430bd138b997ecea25c1043da0c366812b82854612710906118b6906001600160801b031684611e51565b6118c09190611e68565b905060006118ce8284611e8a565b905081156119865760405163617ba03760e01b81526001600160a01b037f00000000000000000000000000000000000000000000000000000000000000008116600483015260248201849052306044830152600060648301527f0000000000000000000000000000000000000000000000000000000000000000169063617ba03790608401600060405180830381600087803b15801561196d57600080fd5b505af1158015611981573d6000803e3d6000fd5b505050505b801561163c57604051636e553f6560e01b8152600481018290523060248201527f00000000000000000000000000000000000000000000000000000000000000006001600160a01b031690636e553f65906044016020604051808303816000875af11580156119f9573d6000803e3d6000fd5b505050506040513d601f19601f820116820180604052508101906116ba9190611dd5565b6001600160a01b038316611a48578060026000828254611a3d9190611e04565b90915550611aba9050565b6001600160a01b03831660009081526020819052604090205481811015611a9b5760405163391434e360e21b81526001600160a01b03851660048201526024810182905260448101839052606401610756565b6001600160a01b03841660009081526020819052604090209082900390555b6001600160a01b038216611ad657600280548290039055611af5565b6001600160a01b03821660009081526020819052604090208054820190555b816001600160a01b0316836001600160a01b03167fddf252ad1be2c89b69c2b068fc378daa952ba7f163c4a11628f55a4df523b3ef83604051611b3a91815260200190565b60405180910390a3505050565b6001600160a01b038416611b715760405163e602df0560e01b815260006004820152602401610756565b6001600160a01b038316611b9b57604051634a1406b160e11b815260006004820152602401610756565b6001600160a01b03808516600090815260016020908152604080832093871683529290522082905580156116ba57826001600160a01b0316846001600160a01b03167f8c5be1e5ebec7d5bd14f71427d1e84f3dd0314c0f7b2291e5b200ac8c7c3b92584604051611c0e91815260200190565b60405180910390a350505050565b60065460ff16610bb857604051638dfc202b60e01b815260040160405180910390fd5b80356001600160a01b0381168114611c5657600080fd5b919050565b60008060408385031215611c6e57600080fd5b82359150611c7e60208401611c3f565b90509250929050565b600060208083528351808285015260005b81811015611cb457858101830151858201604001528201611c98565b506000604082860101526040601f19601f8301168501019250505092915050565b600060208284031215611ce757600080fd5b5035919050565b60008060408385031215611d0157600080fd5b611d0a83611c3f565b946020939093013593505050565b600080600060608486031215611d2d57600080fd5b611d3684611c3f565b9250611d4460208501611c3f565b9150604084013590509250925092565b600060208284031215611d6657600080fd5b610b5a82611c3f565b60008060408385031215611d8257600080fd5b8235915060208301356001600160801b0381168114611da057600080fd5b809150509250929050565b60008060408385031215611dbe57600080fd5b611dc783611c3f565b9150611c7e60208401611c3f565b600060208284031215611de757600080fd5b5051919050565b634e487b7160e01b600052601160045260246000fd5b80820180821115610a8a57610a8a611dee565b600181811c90821680611e2b57607f821691505b602082108103611e4b57634e487b7160e01b600052602260045260246000fd5b50919050565b8082028115828204841417610a8a57610a8a611dee565b600082611e8557634e487b7160e01b600052601260045260246000fd5b500490565b81810381811115610a8a57610a8a611dee565b6000600160ff1b8201611eb257611eb2611dee565b506000039056fea264697066735822122089a881a01d51b56a583f7d1100da10c201716d8ac5e30cf33c327caf23d547bf64736f6c63430008140033","opcodes":"PUSH2 0x100 PUSH1 0x40 MSTORE CALLVALUE DUP1 ISZERO PUSH3 0x12 JUMPI PUSH1 0x0 DUP1 REVERT JUMPDEST POP PUSH1 0x40 MLOAD PUSH3 0x2620 CODESIZE SUB DUP1 PUSH3 0x2620 DUP4 CODECOPY DUP2 ADD PUSH1 0x40 DUP2 SWAP1 MSTORE PUSH3 0x35 SWAP2 PUSH3 0x34F JUMP JUMPDEST CALLER PUSH1 0x40 MLOAD DUP1 PUSH1 0x40 ADD PUSH1 0x40 MSTORE DUP1 PUSH1 0x13 DUP2 MSTORE PUSH1 0x20 ADD PUSH32 0x4C617661204F7074696D697A6564206342544300000000000000000000000000 DUP2 MSTORE POP PUSH1 0x40 MLOAD DUP1 PUSH1 0x40 ADD PUSH1 0x40 MSTORE DUP1 PUSH1 0x5 DUP2 MSTORE PUSH1 0x20 ADD PUSH5 0x6F63425443 PUSH1 0xD8 SHL DUP2 MSTORE POP DUP2 PUSH1 0x3 SWAP1 DUP2 PUSH3 0x9B SWAP2 SWAP1 PUSH3 0x448 JUMP JUMPDEST POP PUSH1 0x4 PUSH3 0xAA DUP3 DUP3 PUSH3 0x448 JUMP JUMPDEST POP POP PUSH1 0x1 PUSH1 0x5 SSTORE POP PUSH1 0x1 PUSH1 0x1 PUSH1 0xA0 SHL SUB DUP2 AND PUSH3 0xE2 JUMPI PUSH1 0x40 MLOAD PUSH4 0x1E4FBDF7 PUSH1 0xE0 SHL DUP2 MSTORE PUSH1 0x0 PUSH1 0x4 DUP3 ADD MSTORE PUSH1 0x24 ADD JUMPDEST PUSH1 0x40 MLOAD DUP1 SWAP2 SUB SWAP1 REVERT JUMPDEST PUSH3 0xED DUP2 PUSH3 0x2DC JUMP JUMPDEST POP PUSH1 0x1 PUSH1 0x1 PUSH1 0xA0 SHL SUB DUP4 DUP2 AND PUSH1 0x80 DUP2 SWAP1 MSTORE DUP4 DUP3 AND PUSH1 0xA0 DUP2 SWAP1 MSTORE SWAP2 DUP4 AND PUSH1 0xC0 MSTORE PUSH1 0x40 MLOAD PUSH4 0x35EA6A75 PUSH1 0xE0 SHL DUP2 MSTORE PUSH1 0x4 DUP2 ADD SWAP2 SWAP1 SWAP2 MSTORE PUSH1 0x0 SWAP2 SWAP1 PUSH4 0x35EA6A75 SWAP1 PUSH1 0x24 ADD PUSH2 0x180 PUSH1 0x40 MLOAD DUP1 DUP4 SUB DUP2 DUP7 GAS STATICCALL ISZERO DUP1 ISZERO PUSH3 0x14D JUMPI RETURNDATASIZE PUSH1 0x0 DUP1 RETURNDATACOPY RETURNDATASIZE PUSH1 0x0 REVERT JUMPDEST POP POP POP POP PUSH1 0x40 MLOAD RETURNDATASIZE PUSH1 0x1F NOT PUSH1 0x1F DUP3 ADD AND DUP3 ADD DUP1 PUSH1 0x40 MSTORE POP DUP2 ADD SWAP1 PUSH3 0x173 SWAP2 SWAP1 PUSH3 0x550 JUMP JUMPDEST POP SWAP3 SWAP11 POP POP PUSH1 0x1 PUSH1 0x1 PUSH1 0xA0 SHL SUB DUP11 AND SWAP9 POP PUSH3 0x1DB SWAP8 POP POP POP POP POP POP POP POP JUMPI PUSH1 0x40 MLOAD PUSH3 0x461BCD PUSH1 0xE5 SHL DUP2 MSTORE PUSH1 0x20 PUSH1 0x4 DUP3 ADD MSTORE PUSH1 0x16 PUSH1 0x24 DUP3 ADD MSTORE PUSH32 0x496E76616C6964207A546F6B656E206164647265737300000000000000000000 PUSH1 0x44 DUP3 ADD MSTORE PUSH1 0x64 ADD PUSH3 0xD9 JUMP JUMPDEST PUSH1 0x1 PUSH1 0x1 PUSH1 0xA0 SHL SUB DUP2 DUP2 AND PUSH1 0xE0 MSTORE PUSH1 0x40 MLOAD PUSH4 0x95EA7B3 PUSH1 0xE0 SHL DUP2 MSTORE DUP5 DUP3 AND PUSH1 0x4 DUP3 ADD MSTORE PUSH1 0x0 NOT PUSH1 0x24 DUP3 ADD MSTORE SWAP1 DUP6 AND SWAP1 PUSH4 0x95EA7B3 SWAP1 PUSH1 0x44 ADD PUSH1 0x20 PUSH1 0x40 MLOAD DUP1 DUP4 SUB DUP2 PUSH1 0x0 DUP8 GAS CALL ISZERO DUP1 ISZERO PUSH3 0x233 JUMPI RETURNDATASIZE PUSH1 0x0 DUP1 RETURNDATACOPY RETURNDATASIZE PUSH1 0x0 REVERT JUMPDEST POP POP POP POP PUSH1 0x40 MLOAD RETURNDATASIZE PUSH1 0x1F NOT PUSH1 0x1F DUP3 ADD AND DUP3 ADD DUP1 PUSH1 0x40 MSTORE POP DUP2 ADD SWAP1 PUSH3 0x259 SWAP2 SWAP1 PUSH3 0x647 JUMP JUMPDEST POP PUSH1 0x40 MLOAD PUSH4 0x95EA7B3 PUSH1 0xE0 SHL DUP2 MSTORE PUSH1 0x1 PUSH1 0x1 PUSH1 0xA0 SHL SUB DUP4 DUP2 AND PUSH1 0x4 DUP4 ADD MSTORE PUSH1 0x0 NOT PUSH1 0x24 DUP4 ADD MSTORE DUP6 AND SWAP1 PUSH4 0x95EA7B3 SWAP1 PUSH1 0x44 ADD PUSH1 0x20 PUSH1 0x40 MLOAD DUP1 DUP4 SUB DUP2 PUSH1 0x0 DUP8 GAS CALL ISZERO DUP1 ISZERO PUSH3 0x2AB JUMPI RETURNDATASIZE PUSH1 0x0 DUP1 RETURNDATACOPY RETURNDATASIZE PUSH1 0x0 REVERT JUMPDEST POP POP POP POP PUSH1 0x40 MLOAD RETURNDATASIZE PUSH1 0x1F NOT PUSH1 0x1F DUP3 ADD AND DUP3 ADD DUP1 PUSH1 0x40 MSTORE POP DUP2 ADD SWAP1 PUSH3 0x2D1 SWAP2 SWAP1 PUSH3 0x647 JUMP JUMPDEST POP POP POP POP POP PUSH3 0x672 JUMP JUMPDEST PUSH1 0x6 DUP1 SLOAD PUSH1 0x1 PUSH1 0x1 PUSH1 0xA0 SHL SUB DUP4 DUP2 AND PUSH2 0x100 DUP2 DUP2 MUL PUSH2 0x100 PUSH1 0x1 PUSH1 0xA8 SHL SUB NOT DUP6 AND OR SWAP1 SWAP5 SSTORE PUSH1 0x40 MLOAD SWAP4 SWAP1 SWAP3 DIV AND SWAP2 DUP3 SWAP1 PUSH32 0x8BE0079C531659141344CD1FD0A4F28419497F9722A3DAAFE3B4186F6B6457E0 SWAP1 PUSH1 0x0 SWAP1 LOG3 POP POP JUMP JUMPDEST PUSH1 0x1 PUSH1 0x1 PUSH1 0xA0 SHL SUB DUP2 AND DUP2 EQ PUSH3 0x34C JUMPI PUSH1 0x0 DUP1 REVERT JUMPDEST POP JUMP JUMPDEST PUSH1 0x0 DUP1 PUSH1 0x0 PUSH1 0x60 DUP5 DUP7 SUB SLT ISZERO PUSH3 0x365 JUMPI PUSH1 0x0 DUP1 REVERT JUMPDEST DUP4 MLOAD PUSH3 0x372 DUP2 PUSH3 0x336 JUMP JUMPDEST PUSH1 0x20 DUP6 ADD MLOAD SWAP1 SWAP4 POP PUSH3 0x385 DUP2 PUSH3 0x336 JUMP JUMPDEST PUSH1 0x40 DUP6 ADD MLOAD SWAP1 SWAP3 POP PUSH3 0x398 DUP2 PUSH3 0x336 JUMP JUMPDEST DUP1 SWAP2 POP POP SWAP3 POP SWAP3 POP SWAP3 JUMP JUMPDEST PUSH4 0x4E487B71 PUSH1 0xE0 SHL PUSH1 0x0 MSTORE PUSH1 0x41 PUSH1 0x4 MSTORE PUSH1 0x24 PUSH1 0x0 REVERT JUMPDEST PUSH1 0x1 DUP2 DUP2 SHR SWAP1 DUP3 AND DUP1 PUSH3 0x3CE JUMPI PUSH1 0x7F DUP3 AND SWAP2 POP JUMPDEST PUSH1 0x20 DUP3 LT DUP2 SUB PUSH3 0x3EF JUMPI PUSH4 0x4E487B71 PUSH1 0xE0 SHL PUSH1 0x0 MSTORE PUSH1 0x22 PUSH1 0x4 MSTORE PUSH1 0x24 PUSH1 0x0 REVERT JUMPDEST POP SWAP2 SWAP1 POP JUMP JUMPDEST PUSH1 0x1F DUP3 GT ISZERO PUSH3 0x443 JUMPI PUSH1 0x0 DUP2 DUP2 MSTORE PUSH1 0x20 DUP2 KECCAK256 PUSH1 0x1F DUP6 ADD PUSH1 0x5 SHR DUP2 ADD PUSH1 0x20 DUP7 LT ISZERO PUSH3 0x41E JUMPI POP DUP1 JUMPDEST PUSH1 0x1F DUP6 ADD PUSH1 0x5 SHR DUP3 ADD SWAP2 POP JUMPDEST DUP2 DUP2 LT ISZERO PUSH3 0x43F JUMPI DUP3 DUP2 SSTORE PUSH1 0x1 ADD PUSH3 0x42A JUMP JUMPDEST POP POP POP JUMPDEST POP POP POP JUMP JUMPDEST DUP2 MLOAD PUSH1 0x1 PUSH1 0x1 PUSH1 0x40 SHL SUB DUP2 GT ISZERO PUSH3 0x464 JUMPI PUSH3 0x464 PUSH3 0x3A3 JUMP JUMPDEST PUSH3 0x47C DUP2 PUSH3 0x475 DUP5 SLOAD PUSH3 0x3B9 JUMP JUMPDEST DUP5 PUSH3 0x3F5 JUMP JUMPDEST PUSH1 0x20 DUP1 PUSH1 0x1F DUP4 GT PUSH1 0x1 DUP2 EQ PUSH3 0x4B4 JUMPI PUSH1 0x0 DUP5 ISZERO PUSH3 0x49B JUMPI POP DUP6 DUP4 ADD MLOAD JUMPDEST PUSH1 0x0 NOT PUSH1 0x3 DUP7 SWAP1 SHL SHR NOT AND PUSH1 0x1 DUP6 SWAP1 SHL OR DUP6 SSTORE PUSH3 0x43F JUMP JUMPDEST PUSH1 0x0 DUP6 DUP2 MSTORE PUSH1 0x20 DUP2 KECCAK256 PUSH1 0x1F NOT DUP7 AND SWAP2 JUMPDEST DUP3 DUP2 LT ISZERO PUSH3 0x4E5 JUMPI DUP9 DUP7 ADD MLOAD DUP3 SSTORE SWAP5 DUP5 ADD SWAP5 PUSH1 0x1 SWAP1 SWAP2 ADD SWAP1 DUP5 ADD PUSH3 0x4C4 JUMP JUMPDEST POP DUP6 DUP3 LT ISZERO PUSH3 0x504 JUMPI DUP8 DUP6 ADD MLOAD PUSH1 0x0 NOT PUSH1 0x3 DUP9 SWAP1 SHL PUSH1 0xF8 AND SHR NOT AND DUP2 SSTORE JUMPDEST POP POP POP POP POP PUSH1 0x1 SWAP1 DUP2 SHL ADD SWAP1 SSTORE POP JUMP JUMPDEST DUP1 MLOAD PUSH1 0x1 PUSH1 0x1 PUSH1 0x80 SHL SUB DUP2 AND DUP2 EQ PUSH3 0x52C JUMPI PUSH1 0x0 DUP1 REVERT JUMPDEST SWAP2 SWAP1 POP JUMP JUMPDEST DUP1 MLOAD PUSH3 0x52C DUP2 PUSH3 0x336 JUMP JUMPDEST DUP1 MLOAD PUSH1 0xFF DUP2 AND DUP2 EQ PUSH3 0x52C JUMPI PUSH1 0x0 DUP1 REVERT JUMPDEST PUSH1 0x0 DUP1 PUSH1 0x0 DUP1 PUSH1 0x0 DUP1 PUSH1 0x0 DUP1 PUSH1 0x0 DUP1 PUSH1 0x0 DUP1 PUSH2 0x180 DUP14 DUP16 SUB SLT ISZERO PUSH3 0x574 JUMPI PUSH1 0x0 DUP1 REVERT JUMPDEST DUP13 MLOAD SWAP12 POP PUSH3 0x586 PUSH1 0x20 DUP15 ADD PUSH3 0x514 JUMP JUMPDEST SWAP11 POP PUSH3 0x596 PUSH1 0x40 DUP15 ADD PUSH3 0x514 JUMP JUMPDEST SWAP10 POP PUSH3 0x5A6 PUSH1 0x60 DUP15 ADD PUSH3 0x514 JUMP JUMPDEST SWAP9 POP PUSH3 0x5B6 PUSH1 0x80 DUP15 ADD PUSH3 0x514 JUMP JUMPDEST SWAP8 POP PUSH3 0x5C6 PUSH1 0xA0 DUP15 ADD PUSH3 0x514 JUMP JUMPDEST SWAP7 POP PUSH1 0xC0 DUP14 ADD MLOAD PUSH5 0xFFFFFFFFFF DUP2 AND DUP2 EQ PUSH3 0x5E1 JUMPI PUSH1 0x0 DUP1 REVERT JUMPDEST SWAP6 POP PUSH3 0x5F1 PUSH1 0xE0 DUP15 ADD PUSH3 0x531 JUMP JUMPDEST SWAP5 POP PUSH3 0x602 PUSH2 0x100 DUP15 ADD PUSH3 0x531 JUMP JUMPDEST SWAP4 POP PUSH3 0x613 PUSH2 0x120 DUP15 ADD PUSH3 0x531 JUMP JUMPDEST SWAP3 POP PUSH3 0x624 PUSH2 0x140 DUP15 ADD PUSH3 0x531 JUMP JUMPDEST SWAP2 POP PUSH3 0x635 PUSH2 0x160 DUP15 ADD PUSH3 0x53E JUMP JUMPDEST SWAP1 POP SWAP3 SWAP6 SWAP9 SWAP12 POP SWAP3 SWAP6 SWAP9 SWAP12 POP SWAP3 SWAP6 SWAP9 SWAP12 JUMP JUMPDEST PUSH1 0x0 PUSH1 0x20 DUP3 DUP5 SUB SLT ISZERO PUSH3 0x65A JUMPI PUSH1 0x0 DUP1 REVERT JUMPDEST DUP2 MLOAD DUP1 ISZERO ISZERO DUP2 EQ PUSH3 0x66B JUMPI PUSH1 0x0 DUP1 REVERT JUMPDEST SWAP4 SWAP3 POP POP POP JUMP JUMPDEST PUSH1 0x80 MLOAD PUSH1 0xA0 MLOAD PUSH1 0xC0 MLOAD PUSH1 0xE0 MLOAD PUSH2 0x1EEF PUSH3 0x731 PUSH1 0x0 CODECOPY PUSH1 0x0 DUP2 DUP2 PUSH2 0x6CB ADD MSTORE DUP2 DUP2 PUSH2 0x8EA ADD MSTORE DUP2 DUP2 PUSH2 0xC19 ADD MSTORE PUSH2 0x142B ADD MSTORE PUSH1 0x0 DUP2 DUP2 PUSH2 0x697 ADD MSTORE DUP2 DUP2 PUSH2 0x96B ADD MSTORE DUP2 DUP2 PUSH2 0xDD3 ADD MSTORE DUP2 DUP2 PUSH2 0xE95 ADD MSTORE DUP2 DUP2 PUSH2 0x15B1 ADD MSTORE PUSH2 0x19A8 ADD MSTORE PUSH1 0x0 DUP2 DUP2 PUSH2 0x57C ADD MSTORE DUP2 DUP2 PUSH2 0xD47 ADD MSTORE DUP2 DUP2 PUSH2 0xF5E ADD MSTORE DUP2 DUP2 PUSH2 0x150B ADD MSTORE PUSH2 0x1929 ADD MSTORE PUSH1 0x0 DUP2 DUP2 PUSH2 0x37E ADD MSTORE DUP2 DUP2 PUSH2 0x788 ADD MSTORE DUP2 DUP2 PUSH2 0xA0D ADD MSTORE DUP2 DUP2 PUSH2 0xD0F ADD MSTORE DUP2 DUP2 PUSH2 0xF22 ADD MSTORE DUP2 DUP2 PUSH2 0x128E ADD MSTORE DUP2 DUP2 PUSH2 0x14D6 ADD MSTORE PUSH2 0x18ED ADD MSTORE PUSH2 0x1EEF PUSH1 0x0 RETURN INVALID PUSH1 0x80 PUSH1 0x40 MSTORE PUSH1 0x4 CALLDATASIZE LT PUSH2 0x21D JUMPI PUSH1 0x0 CALLDATALOAD PUSH1 0xE0 SHR DUP1 PUSH4 0x8456CB59 GT PUSH2 0x123 JUMPI DUP1 PUSH4 0xD3CD52BC GT PUSH2 0xAB JUMPI DUP1 PUSH4 0xEF8B30F7 GT PUSH2 0x6F JUMPI DUP1 PUSH4 0xEF8B30F7 EQ PUSH2 0x2E5 JUMPI DUP1 PUSH4 0xF2FDE38B EQ PUSH2 0x652 JUMPI DUP1 PUSH4 0xF340FA01 EQ PUSH2 0x672 JUMPI DUP1 PUSH4 0xF7010BB1 EQ PUSH2 0x685 JUMPI DUP1 PUSH4 0xFCEEDCDF EQ PUSH2 0x6B9 JUMPI PUSH1 0x0 DUP1 REVERT JUMPDEST DUP1 PUSH4 0xD3CD52BC EQ PUSH2 0x554 JUMPI DUP1 PUSH4 0xD4FCD742 EQ PUSH2 0x56A JUMPI DUP1 PUSH4 0xD574EA3D EQ PUSH2 0x59E JUMPI DUP1 PUSH4 0xD905777E EQ PUSH2 0x5EC JUMPI DUP1 PUSH4 0xDD62ED3E EQ PUSH2 0x60C JUMPI PUSH1 0x0 DUP1 REVERT JUMPDEST DUP1 PUSH4 0xA9059CBB GT PUSH2 0xF2 JUMPI DUP1 PUSH4 0xA9059CBB EQ PUSH2 0x4F4 JUMPI DUP1 PUSH4 0xB3D7F6B9 EQ PUSH2 0x3EF JUMPI DUP1 PUSH4 0xC63D75B6 EQ PUSH2 0x3CD JUMPI DUP1 PUSH4 0xC6E6F592 EQ PUSH2 0x514 JUMPI DUP1 PUSH4 0xCE96CB77 EQ PUSH2 0x534 JUMPI PUSH1 0x0 DUP1 REVERT JUMPDEST DUP1 PUSH4 0x8456CB59 EQ PUSH2 0x487 JUMPI DUP1 PUSH4 0x8DA5CB5B EQ PUSH2 0x49C JUMPI DUP1 PUSH4 0x95D89B41 EQ PUSH2 0x4BF JUMPI DUP1 PUSH4 0xA8CCDE78 EQ PUSH2 0x4D4 JUMPI PUSH1 0x0 DUP1 REVERT JUMPDEST DUP1 PUSH4 0x313CE567 GT PUSH2 0x1A6 JUMPI DUP1 PUSH4 0x4CDAD506 GT PUSH2 0x175 JUMPI DUP1 PUSH4 0x4CDAD506 EQ PUSH2 0x3EF JUMPI DUP1 PUSH4 0x5C975ABB EQ PUSH2 0x40F JUMPI DUP1 PUSH4 0x70A08231 EQ PUSH2 0x427 JUMPI DUP1 PUSH4 0x715018A6 EQ PUSH2 0x45D JUMPI DUP1 PUSH4 0x7D7C2A1C EQ PUSH2 0x472 JUMPI PUSH1 0x0 DUP1 REVERT JUMPDEST DUP1 PUSH4 0x313CE567 EQ PUSH2 0x350 JUMPI DUP1 PUSH4 0x38D52E0F EQ PUSH2 0x36C JUMPI DUP1 PUSH4 0x3F4BA83A EQ PUSH2 0x3B8 JUMPI DUP1 PUSH4 0x402D267D EQ PUSH2 0x3CD JUMPI PUSH1 0x0 DUP1 REVERT JUMPDEST DUP1 PUSH4 0x95EA7B3 GT PUSH2 0x1ED JUMPI DUP1 PUSH4 0x95EA7B3 EQ PUSH2 0x2B5 JUMPI DUP1 PUSH4 0xA28A477 EQ PUSH2 0x2E5 JUMPI DUP1 PUSH4 0x18160DDD EQ PUSH2 0x305 JUMPI DUP1 PUSH4 0x23B872DD EQ PUSH2 0x31A JUMPI DUP1 PUSH4 0x30F2C130 EQ PUSH2 0x33A JUMPI PUSH1 0x0 DUP1 REVERT JUMPDEST DUP1 PUSH3 0xF714CE EQ PUSH2 0x229 JUMPI DUP1 PUSH4 0x1E1D114 EQ PUSH2 0x24B JUMPI DUP1 PUSH4 0x6FDDE03 EQ PUSH2 0x273 JUMPI DUP1 PUSH4 0x7A2D13A EQ PUSH2 0x295 JUMPI PUSH1 0x0 DUP1 REVERT JUMPDEST CALLDATASIZE PUSH2 0x224 JUMPI STOP JUMPDEST PUSH1 0x0 DUP1 REVERT JUMPDEST CALLVALUE DUP1 ISZERO PUSH2 0x235 JUMPI PUSH1 0x0 DUP1 REVERT JUMPDEST POP PUSH2 0x249 PUSH2 0x244 CALLDATASIZE PUSH1 0x4 PUSH2 0x1C5B JUMP JUMPDEST PUSH2 0x6ED JUMP JUMPDEST STOP JUMPDEST CALLVALUE DUP1 ISZERO PUSH2 0x257 JUMPI PUSH1 0x0 DUP1 REVERT JUMPDEST POP PUSH2 0x260 PUSH2 0x8D0 JUMP JUMPDEST PUSH1 0x40 MLOAD SWAP1 DUP2 MSTORE PUSH1 0x20 ADD JUMPDEST PUSH1 0x40 MLOAD DUP1 SWAP2 SUB SWAP1 RETURN JUMPDEST CALLVALUE DUP1 ISZERO PUSH2 0x27F JUMPI PUSH1 0x0 DUP1 REVERT JUMPDEST POP PUSH2 0x288 PUSH2 0xA90 JUMP JUMPDEST PUSH1 0x40 MLOAD PUSH2 0x26A SWAP2 SWAP1 PUSH2 0x1C87 JUMP JUMPDEST CALLVALUE DUP1 ISZERO PUSH2 0x2A1 JUMPI PUSH1 0x0 DUP1 REVERT JUMPDEST POP PUSH2 0x260 PUSH2 0x2B0 CALLDATASIZE PUSH1 0x4 PUSH2 0x1CD5 JUMP JUMPDEST PUSH2 0xB22 JUMP JUMPDEST CALLVALUE DUP1 ISZERO PUSH2 0x2C1 JUMPI PUSH1 0x0 DUP1 REVERT JUMPDEST POP PUSH2 0x2D5 PUSH2 0x2D0 CALLDATASIZE PUSH1 0x4 PUSH2 0x1CEE JUMP JUMPDEST PUSH2 0xB61 JUMP JUMPDEST PUSH1 0x40 MLOAD SWAP1 ISZERO ISZERO DUP2 MSTORE PUSH1 0x20 ADD PUSH2 0x26A JUMP JUMPDEST CALLVALUE DUP1 ISZERO PUSH2 0x2F1 JUMPI PUSH1 0x0 DUP1 REVERT JUMPDEST POP PUSH2 0x260 PUSH2 0x300 CALLDATASIZE PUSH1 0x4 PUSH2 0x1CD5 JUMP JUMPDEST PUSH2 0xB79 JUMP JUMPDEST CALLVALUE DUP1 ISZERO PUSH2 0x311 JUMPI PUSH1 0x0 DUP1 REVERT JUMPDEST POP PUSH1 0x2 SLOAD PUSH2 0x260 JUMP JUMPDEST CALLVALUE DUP1 ISZERO PUSH2 0x326 JUMPI PUSH1 0x0 DUP1 REVERT JUMPDEST POP PUSH2 0x2D5 PUSH2 0x335 CALLDATASIZE PUSH1 0x4 PUSH2 0x1D18 JUMP JUMPDEST PUSH2 0xB84 JUMP JUMPDEST CALLVALUE DUP1 ISZERO PUSH2 0x346 JUMPI PUSH1 0x0 DUP1 REVERT JUMPDEST POP PUSH2 0x260 PUSH1 0x8 SLOAD DUP2 JUMP JUMPDEST CALLVALUE DUP1 ISZERO PUSH2 0x35C JUMPI PUSH1 0x0 DUP1 REVERT JUMPDEST POP PUSH1 0x40 MLOAD PUSH1 0x12 DUP2 MSTORE PUSH1 0x20 ADD PUSH2 0x26A JUMP JUMPDEST CALLVALUE DUP1 ISZERO PUSH2 0x378 JUMPI PUSH1 0x0 DUP1 REVERT JUMPDEST POP PUSH2 0x3A0 PUSH32 0x0 DUP2 JUMP JUMPDEST PUSH1 0x40 MLOAD PUSH1 0x1 PUSH1 0x1 PUSH1 0xA0 SHL SUB SWAP1 SWAP2 AND DUP2 MSTORE PUSH1 0x20 ADD PUSH2 0x26A JUMP JUMPDEST CALLVALUE DUP1 ISZERO PUSH2 0x3C4 JUMPI PUSH1 0x0 DUP1 REVERT JUMPDEST POP PUSH2 0x249 PUSH2 0xBA8 JUMP JUMPDEST CALLVALUE DUP1 ISZERO PUSH2 0x3D9 JUMPI PUSH1 0x0 DUP1 REVERT JUMPDEST POP PUSH2 0x260 PUSH2 0x3E8 CALLDATASIZE PUSH1 0x4 PUSH2 0x1D54 JUMP JUMPDEST POP PUSH1 0x0 NOT SWAP1 JUMP JUMPDEST CALLVALUE DUP1 ISZERO PUSH2 0x3FB JUMPI PUSH1 0x0 DUP1 REVERT JUMPDEST POP PUSH2 0x260 PUSH2 0x40A CALLDATASIZE PUSH1 0x4 PUSH2 0x1CD5 JUMP JUMPDEST PUSH2 0xBBA JUMP JUMPDEST CALLVALUE DUP1 ISZERO PUSH2 0x41B JUMPI PUSH1 0x0 DUP1 REVERT JUMPDEST POP PUSH1 0x6 SLOAD PUSH1 0xFF AND PUSH2 0x2D5 JUMP JUMPDEST CALLVALUE DUP1 ISZERO PUSH2 0x433 JUMPI PUSH1 0x0 DUP1 REVERT JUMPDEST POP PUSH2 0x260 PUSH2 0x442 CALLDATASIZE PUSH1 0x4 PUSH2 0x1D54 JUMP JUMPDEST PUSH1 0x1 PUSH1 0x1 PUSH1 0xA0 SHL SUB AND PUSH1 0x0 SWAP1 DUP2 MSTORE PUSH1 0x20 DUP2 SWAP1 MSTORE PUSH1 0x40 SWAP1 KECCAK256 SLOAD SWAP1 JUMP JUMPDEST CALLVALUE DUP1 ISZERO PUSH2 0x469 JUMPI PUSH1 0x0 DUP1 REVERT JUMPDEST POP PUSH2 0x249 PUSH2 0xBC5 JUMP JUMPDEST CALLVALUE DUP1 ISZERO PUSH2 0x47E JUMPI PUSH1 0x0 DUP1 REVERT JUMPDEST POP PUSH2 0x249 PUSH2 0xBD7 JUMP JUMPDEST CALLVALUE DUP1 ISZERO PUSH2 0x493 JUMPI PUSH1 0x0 DUP1 REVERT JUMPDEST POP PUSH2 0x249 PUSH2 0x1014 JUMP JUMPDEST CALLVALUE DUP1 ISZERO PUSH2 0x4A8 JUMPI PUSH1 0x0 DUP1 REVERT JUMPDEST POP PUSH1 0x6 SLOAD PUSH2 0x100 SWAP1 DIV PUSH1 0x1 PUSH1 0x1 PUSH1 0xA0 SHL SUB AND PUSH2 0x3A0 JUMP JUMPDEST CALLVALUE DUP1 ISZERO PUSH2 0x4CB JUMPI PUSH1 0x0 DUP1 REVERT JUMPDEST POP PUSH2 0x288 PUSH2 0x1024 JUMP JUMPDEST CALLVALUE DUP1 ISZERO PUSH2 0x4E0 JUMPI PUSH1 0x0 DUP1 REVERT JUMPDEST POP PUSH2 0x249 PUSH2 0x4EF CALLDATASIZE PUSH1 0x4 PUSH2 0x1D6F JUMP JUMPDEST PUSH2 0x1033 JUMP JUMPDEST CALLVALUE DUP1 ISZERO PUSH2 0x500 JUMPI PUSH1 0x0 DUP1 REVERT JUMPDEST POP PUSH2 0x2D5 PUSH2 0x50F CALLDATASIZE PUSH1 0x4 PUSH2 0x1CEE JUMP JUMPDEST PUSH2 0x1186 JUMP JUMPDEST CALLVALUE DUP1 ISZERO PUSH2 0x520 JUMPI PUSH1 0x0 DUP1 REVERT JUMPDEST POP PUSH2 0x260 PUSH2 0x52F CALLDATASIZE PUSH1 0x4 PUSH2 0x1CD5 JUMP JUMPDEST PUSH2 0x1194 JUMP JUMPDEST CALLVALUE DUP1 ISZERO PUSH2 0x540 JUMPI PUSH1 0x0 DUP1 REVERT JUMPDEST POP PUSH2 0x260 PUSH2 0x54F CALLDATASIZE PUSH1 0x4 PUSH2 0x1D54 JUMP JUMPDEST PUSH2 0x11BA JUMP JUMPDEST CALLVALUE DUP1 ISZERO PUSH2 0x560 JUMPI PUSH1 0x0 DUP1 REVERT JUMPDEST POP PUSH2 0x260 PUSH2 0x2710 DUP2 JUMP JUMPDEST CALLVALUE DUP1 ISZERO PUSH2 0x576 JUMPI PUSH1 0x0 DUP1 REVERT JUMPDEST POP PUSH2 0x3A0 PUSH32 0x0 DUP2 JUMP JUMPDEST CALLVALUE DUP1 ISZERO PUSH2 0x5AA JUMPI PUSH1 0x0 DUP1 REVERT JUMPDEST POP PUSH2 0x5D4 PUSH2 0x5B9 CALLDATASIZE PUSH1 0x4 PUSH2 0x1CD5 JUMP JUMPDEST PUSH1 0x7 PUSH1 0x20 MSTORE PUSH1 0x0 SWAP1 DUP2 MSTORE PUSH1 0x40 SWAP1 KECCAK256 SLOAD PUSH1 0x1 PUSH1 0x1 PUSH1 0x80 SHL SUB AND DUP2 JUMP JUMPDEST PUSH1 0x40 MLOAD PUSH1 0x1 PUSH1 0x1 PUSH1 0x80 SHL SUB SWAP1 SWAP2 AND DUP2 MSTORE PUSH1 0x20 ADD PUSH2 0x26A JUMP JUMPDEST CALLVALUE DUP1 ISZERO PUSH2 0x5F8 JUMPI PUSH1 0x0 DUP1 REVERT JUMPDEST POP PUSH2 0x260 PUSH2 0x607 CALLDATASIZE PUSH1 0x4 PUSH2 0x1D54 JUMP JUMPDEST PUSH2 0x11DC JUMP JUMPDEST CALLVALUE DUP1 ISZERO PUSH2 0x618 JUMPI PUSH1 0x0 DUP1 REVERT JUMPDEST POP PUSH2 0x260 PUSH2 0x627 CALLDATASIZE PUSH1 0x4 PUSH2 0x1DAB JUMP JUMPDEST PUSH1 0x1 PUSH1 0x1 PUSH1 0xA0 SHL SUB SWAP2 DUP3 AND PUSH1 0x0 SWAP1 DUP2 MSTORE PUSH1 0x1 PUSH1 0x20 SWAP1 DUP2 MSTORE PUSH1 0x40 DUP1 DUP4 KECCAK256 SWAP4 SWAP1 SWAP5 AND DUP3 MSTORE SWAP2 SWAP1 SWAP2 MSTORE KECCAK256 SLOAD SWAP1 JUMP JUMPDEST CALLVALUE DUP1 ISZERO PUSH2 0x65E JUMPI PUSH1 0x0 DUP1 REVERT JUMPDEST POP PUSH2 0x249 PUSH2 0x66D CALLDATASIZE PUSH1 0x4 PUSH2 0x1D54 JUMP JUMPDEST PUSH2 0x11FA JUMP JUMPDEST PUSH2 0x249 PUSH2 0x680 CALLDATASIZE PUSH1 0x4 PUSH2 0x1D54 JUMP JUMPDEST PUSH2 0x1238 JUMP JUMPDEST CALLVALUE DUP1 ISZERO PUSH2 0x691 JUMPI PUSH1 0x0 DUP1 REVERT JUMPDEST POP PUSH2 0x3A0 PUSH32 0x0 DUP2 JUMP JUMPDEST CALLVALUE DUP1 ISZERO PUSH2 0x6C5 JUMPI PUSH1 0x0 DUP1 REVERT JUMPDEST POP PUSH2 0x3A0 PUSH32 0x0 DUP2 JUMP JUMPDEST PUSH2 0x6F5 PUSH2 0x1377 JUMP JUMPDEST PUSH2 0x6FD PUSH2 0x13A1 JUMP JUMPDEST PUSH1 0x0 PUSH2 0x708 DUP4 PUSH2 0xB22 JUMP JUMPDEST SWAP1 POP PUSH1 0x0 DUP2 GT PUSH2 0x75F JUMPI PUSH1 0x40 MLOAD PUSH3 0x461BCD PUSH1 0xE5 SHL DUP2 MSTORE PUSH1 0x20 PUSH1 0x4 DUP3 ADD MSTORE PUSH1 0x1B PUSH1 0x24 DUP3 ADD MSTORE PUSH32 0x576974686472617720616D6F756E74206D757374206265203E20300000000000 PUSH1 0x44 DUP3 ADD MSTORE PUSH1 0x64 ADD JUMPDEST PUSH1 0x40 MLOAD DUP1 SWAP2 SUB SWAP1 REVERT JUMPDEST PUSH2 0x769 CALLER DUP5 PUSH2 0x13C5 JUMP JUMPDEST PUSH2 0x772 DUP2 PUSH2 0x13FB JUMP JUMPDEST PUSH1 0x40 MLOAD PUSH4 0x2E1A7D4D PUSH1 0xE0 SHL DUP2 MSTORE PUSH1 0x4 DUP2 ADD DUP3 SWAP1 MSTORE PUSH32 0x0 PUSH1 0x1 PUSH1 0x1 PUSH1 0xA0 SHL SUB AND SWAP1 PUSH4 0x2E1A7D4D SWAP1 PUSH1 0x24 ADD PUSH1 0x0 PUSH1 0x40 MLOAD DUP1 DUP4 SUB DUP2 PUSH1 0x0 DUP8 DUP1 EXTCODESIZE ISZERO DUP1 ISZERO PUSH2 0x7D4 JUMPI PUSH1 0x0 DUP1 REVERT JUMPDEST POP GAS CALL ISZERO DUP1 ISZERO PUSH2 0x7E8 JUMPI RETURNDATASIZE PUSH1 0x0 DUP1 RETURNDATACOPY RETURNDATASIZE PUSH1 0x0 REVERT JUMPDEST POP POP POP POP PUSH1 0x0 DUP3 PUSH1 0x1 PUSH1 0x1 PUSH1 0xA0 SHL SUB AND DUP3 PUSH1 0x40 MLOAD PUSH1 0x0 PUSH1 0x40 MLOAD DUP1 DUP4 SUB DUP2 DUP6 DUP8 GAS CALL SWAP3 POP POP POP RETURNDATASIZE DUP1 PUSH1 0x0 DUP2 EQ PUSH2 0x839 JUMPI PUSH1 0x40 MLOAD SWAP2 POP PUSH1 0x1F NOT PUSH1 0x3F RETURNDATASIZE ADD AND DUP3 ADD PUSH1 0x40 MSTORE RETURNDATASIZE DUP3 MSTORE RETURNDATASIZE PUSH1 0x0 PUSH1 0x20 DUP5 ADD RETURNDATACOPY PUSH2 0x83E JUMP JUMPDEST PUSH1 0x60 SWAP2 POP JUMPDEST POP POP SWAP1 POP DUP1 PUSH2 0x885 JUMPI PUSH1 0x40 MLOAD PUSH3 0x461BCD PUSH1 0xE5 SHL DUP2 MSTORE PUSH1 0x20 PUSH1 0x4 DUP3 ADD MSTORE PUSH1 0x13 PUSH1 0x24 DUP3 ADD MSTORE PUSH19 0x4661696C656420746F2073656E642063425443 PUSH1 0x68 SHL PUSH1 0x44 DUP3 ADD MSTORE PUSH1 0x64 ADD PUSH2 0x756 JUMP JUMPDEST PUSH1 0x40 DUP1 MLOAD DUP6 DUP2 MSTORE PUSH1 0x20 DUP2 ADD DUP5 SWAP1 MSTORE CALLER SWAP2 PUSH32 0x92CCF450A286A957AF52509BC1C9939D1A6A481783E142E41E2499F0BB66EBC6 SWAP2 ADD PUSH1 0x40 MLOAD DUP1 SWAP2 SUB SWAP1 LOG2 POP POP PUSH2 0x8CC PUSH1 0x1 PUSH1 0x5 SSTORE JUMP JUMPDEST POP POP JUMP JUMPDEST PUSH1 0x40 MLOAD PUSH4 0x70A08231 PUSH1 0xE0 SHL DUP2 MSTORE ADDRESS PUSH1 0x4 DUP3 ADD MSTORE PUSH1 0x0 SWAP1 DUP2 SWAP1 PUSH32 0x0 PUSH1 0x1 PUSH1 0x1 PUSH1 0xA0 SHL SUB AND SWAP1 PUSH4 0x70A08231 SWAP1 PUSH1 0x24 ADD PUSH1 0x20 PUSH1 0x40 MLOAD DUP1 DUP4 SUB DUP2 DUP7 GAS STATICCALL ISZERO DUP1 ISZERO PUSH2 0x939 JUMPI RETURNDATASIZE PUSH1 0x0 DUP1 RETURNDATACOPY RETURNDATASIZE PUSH1 0x0 REVERT JUMPDEST POP POP POP POP PUSH1 0x40 MLOAD RETURNDATASIZE PUSH1 0x1F NOT PUSH1 0x1F DUP3 ADD AND DUP3 ADD DUP1 PUSH1 0x40 MSTORE POP DUP2 ADD SWAP1 PUSH2 0x95D SWAP2 SWAP1 PUSH2 0x1DD5 JUMP JUMPDEST PUSH2 0x967 SWAP1 DUP3 PUSH2 0x1E04 JUMP JUMPDEST SWAP1 POP PUSH32 0x0 PUSH1 0x1 PUSH1 0x1 PUSH1 0xA0 SHL SUB AND PUSH4 0x1E1D114 PUSH1 0x40 MLOAD DUP2 PUSH4 0xFFFFFFFF AND PUSH1 0xE0 SHL DUP2 MSTORE PUSH1 0x4 ADD PUSH1 0x20 PUSH1 0x40 MLOAD DUP1 DUP4 SUB DUP2 DUP7 GAS STATICCALL ISZERO DUP1 ISZERO PUSH2 0x9C7 JUMPI RETURNDATASIZE PUSH1 0x0 DUP1 RETURNDATACOPY RETURNDATASIZE PUSH1 0x0 REVERT JUMPDEST POP POP POP POP PUSH1 0x40 MLOAD RETURNDATASIZE PUSH1 0x1F NOT PUSH1 0x1F DUP3 ADD AND DUP3 ADD DUP1 PUSH1 0x40 MSTORE POP DUP2 ADD SWAP1 PUSH2 0x9EB SWAP2 SWAP1 PUSH2 0x1DD5 JUMP JUMPDEST PUSH2 0x9F5 SWAP1 DUP3 PUSH2 0x1E04 JUMP JUMPDEST PUSH1 0x40 MLOAD PUSH4 0x70A08231 PUSH1 0xE0 SHL DUP2 MSTORE ADDRESS PUSH1 0x4 DUP3 ADD MSTORE SWAP1 SWAP2 POP PUSH32 0x0 PUSH1 0x1 PUSH1 0x1 PUSH1 0xA0 SHL SUB AND SWAP1 PUSH4 0x70A08231 SWAP1 PUSH1 0x24 ADD PUSH1 0x20 PUSH1 0x40 MLOAD DUP1 DUP4 SUB DUP2 DUP7 GAS STATICCALL ISZERO DUP1 ISZERO PUSH2 0xA5C JUMPI RETURNDATASIZE PUSH1 0x0 DUP1 RETURNDATACOPY RETURNDATASIZE PUSH1 0x0 REVERT JUMPDEST POP POP POP POP PUSH1 0x40 MLOAD RETURNDATASIZE PUSH1 0x1F NOT PUSH1 0x1F DUP3 ADD AND DUP3 ADD DUP1 PUSH1 0x40 MSTORE POP DUP2 ADD SWAP1 PUSH2 0xA80 SWAP2 SWAP1 PUSH2 0x1DD5 JUMP JUMPDEST PUSH2 0xA8A SWAP1 DUP3 PUSH2 0x1E04 JUMP JUMPDEST SWAP3 SWAP2 POP POP JUMP JUMPDEST PUSH1 0x60 PUSH1 0x3 DUP1 SLOAD PUSH2 0xA9F SWAP1 PUSH2 0x1E17 JUMP JUMPDEST DUP1 PUSH1 0x1F ADD PUSH1 0x20 DUP1 SWAP2 DIV MUL PUSH1 0x20 ADD PUSH1 0x40 MLOAD SWAP1 DUP2 ADD PUSH1 0x40 MSTORE DUP1 SWAP3 SWAP2 SWAP1 DUP2 DUP2 MSTORE PUSH1 0x20 ADD DUP3 DUP1 SLOAD PUSH2 0xACB SWAP1 PUSH2 0x1E17 JUMP JUMPDEST DUP1 ISZERO PUSH2 0xB18 JUMPI DUP1 PUSH1 0x1F LT PUSH2 0xAED JUMPI PUSH2 0x100 DUP1 DUP4 SLOAD DIV MUL DUP4 MSTORE SWAP2 PUSH1 0x20 ADD SWAP2 PUSH2 0xB18 JUMP JUMPDEST DUP3 ADD SWAP2 SWAP1 PUSH1 0x0 MSTORE PUSH1 0x20 PUSH1 0x0 KECCAK256 SWAP1 JUMPDEST DUP2 SLOAD DUP2 MSTORE SWAP1 PUSH1 0x1 ADD SWAP1 PUSH1 0x20 ADD DUP1 DUP4 GT PUSH2 0xAFB JUMPI DUP3 SWAP1 SUB PUSH1 0x1F AND DUP3 ADD SWAP2 JUMPDEST POP POP POP POP POP SWAP1 POP SWAP1 JUMP JUMPDEST PUSH1 0x0 DUP1 PUSH2 0xB2E PUSH1 0x2 SLOAD SWAP1 JUMP JUMPDEST SWAP1 POP DUP1 ISZERO PUSH2 0xB58 JUMPI DUP1 PUSH2 0xB3F PUSH2 0x8D0 JUMP JUMPDEST PUSH2 0xB49 SWAP1 DUP6 PUSH2 0x1E51 JUMP JUMPDEST PUSH2 0xB53 SWAP2 SWAP1 PUSH2 0x1E68 JUMP JUMPDEST PUSH2 0xB5A JUMP JUMPDEST DUP3 JUMPDEST SWAP4 SWAP3 POP POP POP JUMP JUMPDEST PUSH1 0x0 CALLER PUSH2 0xB6F DUP2 DUP6 DUP6 PUSH2 0x162F JUMP JUMPDEST POP PUSH1 0x1 SWAP4 SWAP3 POP POP POP JUMP JUMPDEST PUSH1 0x0 PUSH2 0xA8A DUP3 PUSH2 0x1194 JUMP JUMPDEST PUSH1 0x0 CALLER PUSH2 0xB92 DUP6 DUP3 DUP6 PUSH2 0x1641 JUMP JUMPDEST PUSH2 0xB9D DUP6 DUP6 DUP6 PUSH2 0x16C0 JUMP JUMPDEST POP PUSH1 0x1 SWAP5 SWAP4 POP POP POP POP JUMP JUMPDEST PUSH2 0xBB0 PUSH2 0x171F JUMP JUMPDEST PUSH2 0xBB8 PUSH2 0x1752 JUMP JUMPDEST JUMP JUMPDEST PUSH1 0x0 PUSH2 0xA8A DUP3 PUSH2 0xB22 JUMP JUMPDEST PUSH2 0xBCD PUSH2 0x171F JUMP JUMPDEST PUSH2 0xBB8 PUSH1 0x0 PUSH2 0x17A4 JUMP JUMPDEST PUSH2 0xBDF PUSH2 0x171F JUMP JUMPDEST PUSH2 0xBE7 PUSH2 0x1377 JUMP JUMPDEST PUSH1 0x0 PUSH2 0xBF1 PUSH2 0x8D0 JUMP JUMPDEST SWAP1 POP DUP1 PUSH1 0x0 SUB PUSH2 0xC01 JUMPI POP PUSH2 0x100A JUMP JUMPDEST PUSH1 0x40 MLOAD PUSH4 0x70A08231 PUSH1 0xE0 SHL DUP2 MSTORE ADDRESS PUSH1 0x4 DUP3 ADD MSTORE PUSH1 0x0 SWAP1 PUSH32 0x0 PUSH1 0x1 PUSH1 0x1 PUSH1 0xA0 SHL SUB AND SWAP1 PUSH4 0x70A08231 SWAP1 PUSH1 0x24 ADD PUSH1 0x20 PUSH1 0x40 MLOAD DUP1 DUP4 SUB DUP2 DUP7 GAS STATICCALL ISZERO DUP1 ISZERO PUSH2 0xC68 JUMPI RETURNDATASIZE PUSH1 0x0 DUP1 RETURNDATACOPY RETURNDATASIZE PUSH1 0x0 REVERT JUMPDEST POP POP POP POP PUSH1 0x40 MLOAD RETURNDATASIZE PUSH1 0x1F NOT PUSH1 0x1F DUP3 ADD AND DUP3 ADD DUP1 PUSH1 0x40 MSTORE POP DUP2 ADD SWAP1 PUSH2 0xC8C SWAP2 SWAP1 PUSH2 0x1DD5 JUMP JUMPDEST PUSH1 0x1 PUSH1 0x0 SWAP1 DUP2 MSTORE PUSH1 0x7 PUSH1 0x20 MSTORE PUSH32 0xB39221ACE053465EC3453CE2B36430BD138B997ECEA25C1043DA0C366812B828 SLOAD SWAP2 SWAP3 POP SWAP1 PUSH2 0x2710 SWAP1 PUSH2 0xCD5 SWAP1 PUSH1 0x1 PUSH1 0x1 PUSH1 0x80 SHL SUB AND DUP6 PUSH2 0x1E51 JUMP JUMPDEST PUSH2 0xCDF SWAP2 SWAP1 PUSH2 0x1E68 JUMP JUMPDEST SWAP1 POP PUSH1 0x0 DUP1 DUP3 DUP5 GT ISZERO PUSH2 0xE5B JUMPI PUSH1 0x0 PUSH2 0xCF8 DUP5 DUP7 PUSH2 0x1E8A JUMP JUMPDEST PUSH1 0x40 MLOAD PUSH4 0x1A4CA37B PUSH1 0xE2 SHL DUP2 MSTORE PUSH1 0x1 PUSH1 0x1 PUSH1 0xA0 SHL SUB PUSH32 0x0 DUP2 AND PUSH1 0x4 DUP4 ADD MSTORE PUSH1 0x24 DUP3 ADD DUP4 SWAP1 MSTORE ADDRESS PUSH1 0x44 DUP4 ADD MSTORE SWAP2 SWAP3 POP PUSH32 0x0 SWAP1 SWAP2 AND SWAP1 PUSH4 0x69328DEC SWAP1 PUSH1 0x64 ADD PUSH1 0x20 PUSH1 0x40 MLOAD DUP1 DUP4 SUB DUP2 PUSH1 0x0 DUP8 GAS CALL ISZERO DUP1 ISZERO PUSH2 0xD92 JUMPI RETURNDATASIZE PUSH1 0x0 DUP1 RETURNDATACOPY RETURNDATASIZE PUSH1 0x0 REVERT JUMPDEST POP POP POP POP PUSH1 0x40 MLOAD RETURNDATASIZE PUSH1 0x1F NOT PUSH1 0x1F DUP3 ADD AND DUP3 ADD DUP1 PUSH1 0x40 MSTORE POP DUP2 ADD SWAP1 PUSH2 0xDB6 SWAP2 SWAP1 PUSH2 0x1DD5 JUMP JUMPDEST POP PUSH1 0x40 MLOAD PUSH4 0x6E553F65 PUSH1 0xE0 SHL DUP2 MSTORE PUSH1 0x4 DUP2 ADD DUP3 SWAP1 MSTORE ADDRESS PUSH1 0x24 DUP3 ADD MSTORE PUSH32 0x0 PUSH1 0x1 PUSH1 0x1 PUSH1 0xA0 SHL SUB AND SWAP1 PUSH4 0x6E553F65 SWAP1 PUSH1 0x44 ADD PUSH1 0x20 PUSH1 0x40 MLOAD DUP1 DUP4 SUB DUP2 PUSH1 0x0 DUP8 GAS CALL ISZERO DUP1 ISZERO PUSH2 0xE24 JUMPI RETURNDATASIZE PUSH1 0x0 DUP1 RETURNDATACOPY RETURNDATASIZE PUSH1 0x0 REVERT JUMPDEST POP POP POP POP PUSH1 0x40 MLOAD RETURNDATASIZE PUSH1 0x1F NOT PUSH1 0x1F DUP3 ADD AND DUP3 ADD DUP1 PUSH1 0x40 MSTORE POP DUP2 ADD SWAP1 PUSH2 0xE48 SWAP2 SWAP1 PUSH2 0x1DD5 JUMP JUMPDEST POP PUSH2 0xE52 DUP2 PUSH2 0x1E9D JUMP JUMPDEST SWAP3 POP SWAP1 POP PUSH2 0xFCB JUMP JUMPDEST DUP3 DUP5 LT ISZERO PUSH2 0xFCB JUMPI PUSH1 0x0 PUSH2 0xE6F DUP6 DUP6 PUSH2 0x1E8A JUMP JUMPDEST PUSH1 0x40 MLOAD PUSH4 0x2D182BE5 PUSH1 0xE2 SHL DUP2 MSTORE PUSH1 0x4 DUP2 ADD DUP3 SWAP1 MSTORE ADDRESS PUSH1 0x24 DUP3 ADD DUP2 SWAP1 MSTORE PUSH1 0x44 DUP3 ADD MSTORE SWAP1 SWAP2 POP PUSH32 0x0 PUSH1 0x1 PUSH1 0x1 PUSH1 0xA0 SHL SUB AND SWAP1 PUSH4 0xB460AF94 SWAP1 PUSH1 0x64 ADD PUSH1 0x20 PUSH1 0x40 MLOAD DUP1 DUP4 SUB DUP2 PUSH1 0x0 DUP8 GAS CALL ISZERO DUP1 ISZERO PUSH2 0xEE6 JUMPI RETURNDATASIZE PUSH1 0x0 DUP1 RETURNDATACOPY RETURNDATASIZE PUSH1 0x0 REVERT JUMPDEST POP POP POP POP PUSH1 0x40 MLOAD RETURNDATASIZE PUSH1 0x1F NOT PUSH1 0x1F DUP3 ADD AND DUP3 ADD DUP1 PUSH1 0x40 MSTORE POP DUP2 ADD SWAP1 PUSH2 0xF0A SWAP2 SWAP1 PUSH2 0x1DD5 JUMP JUMPDEST POP PUSH1 0x40 MLOAD PUSH4 0x617BA037 PUSH1 0xE0 SHL DUP2 MSTORE PUSH1 0x1 PUSH1 0x1 PUSH1 0xA0 SHL SUB PUSH32 0x0 DUP2 AND PUSH1 0x4 DUP4 ADD MSTORE PUSH1 0x24 DUP3 ADD DUP4 SWAP1 MSTORE ADDRESS PUSH1 0x44 DUP4 ADD MSTORE PUSH1 0x0 PUSH1 0x64 DUP4 ADD MSTORE PUSH32 0x0 AND SWAP1 PUSH4 0x617BA037 SWAP1 PUSH1 0x84 ADD PUSH1 0x0 PUSH1 0x40 MLOAD DUP1 DUP4 SUB DUP2 PUSH1 0x0 DUP8 DUP1 EXTCODESIZE ISZERO DUP1 ISZERO PUSH2 0xFA2 JUMPI PUSH1 0x0 DUP1 REVERT JUMPDEST POP GAS CALL ISZERO DUP1 ISZERO PUSH2 0xFB6 JUMPI RETURNDATASIZE PUSH1 0x0 DUP1 RETURNDATACOPY RETURNDATASIZE PUSH1 0x0 REVERT JUMPDEST POP POP POP POP DUP1 SWAP3 POP DUP1 PUSH2 0xFC7 SWAP1 PUSH2 0x1E9D JUMP JUMPDEST SWAP2 POP POP JUMPDEST PUSH1 0x40 DUP1 MLOAD DUP4 DUP2 MSTORE PUSH1 0x20 DUP2 ADD DUP4 SWAP1 MSTORE PUSH32 0xE6B7D21138117399EF04D4D7904EABD626C683F9F007B1266ADFF7AD19E0CBCA SWAP2 ADD PUSH1 0x40 MLOAD DUP1 SWAP2 SUB SWAP1 LOG1 POP POP POP POP POP JUMPDEST PUSH2 0xBB8 PUSH1 0x1 PUSH1 0x5 SSTORE JUMP JUMPDEST PUSH2 0x101C PUSH2 0x171F JUMP JUMPDEST PUSH2 0xBB8 PUSH2 0x17FE JUMP JUMPDEST PUSH1 0x60 PUSH1 0x4 DUP1 SLOAD PUSH2 0xA9F SWAP1 PUSH2 0x1E17 JUMP JUMPDEST PUSH2 0x103B PUSH2 0x171F JUMP JUMPDEST DUP2 PUSH1 0x1 EQ DUP1 PUSH2 0x104A JUMPI POP DUP2 PUSH1 0x2 EQ JUMPDEST PUSH2 0x108C JUMPI PUSH1 0x40 MLOAD PUSH3 0x461BCD PUSH1 0xE5 SHL DUP2 MSTORE PUSH1 0x20 PUSH1 0x4 DUP3 ADD MSTORE PUSH1 0x13 PUSH1 0x24 DUP3 ADD MSTORE PUSH19 0x125B9D985B1A59081CDD1C985D1959DE481251 PUSH1 0x6A SHL PUSH1 0x44 DUP3 ADD MSTORE PUSH1 0x64 ADD PUSH2 0x756 JUMP JUMPDEST PUSH1 0x0 DUP3 DUP2 MSTORE PUSH1 0x7 PUSH1 0x20 MSTORE PUSH1 0x40 SWAP1 KECCAK256 SLOAD PUSH1 0x8 SLOAD PUSH1 0x1 PUSH1 0x1 PUSH1 0x80 SHL SUB SWAP2 DUP3 AND SWAP2 DUP4 AND SWAP1 PUSH2 0x10B8 SWAP1 DUP4 SWAP1 PUSH2 0x1E8A JUMP JUMPDEST PUSH2 0x10C2 SWAP2 SWAP1 PUSH2 0x1E04 JUMP JUMPDEST PUSH1 0x8 DUP2 SWAP1 SSTORE PUSH2 0x2710 LT ISZERO PUSH2 0x1118 JUMPI PUSH1 0x40 MLOAD PUSH3 0x461BCD PUSH1 0xE5 SHL DUP2 MSTORE PUSH1 0x20 PUSH1 0x4 DUP3 ADD MSTORE PUSH1 0x1D PUSH1 0x24 DUP3 ADD MSTORE PUSH32 0x546F74616C20616C6C6F636174696F6E20657863656564732031303025000000 PUSH1 0x44 DUP3 ADD MSTORE PUSH1 0x64 ADD PUSH2 0x756 JUMP JUMPDEST PUSH1 0x0 DUP4 DUP2 MSTORE PUSH1 0x7 PUSH1 0x20 SWAP1 DUP2 MSTORE PUSH1 0x40 SWAP2 DUP3 SWAP1 KECCAK256 DUP1 SLOAD PUSH16 0xFFFFFFFFFFFFFFFFFFFFFFFFFFFFFFFF NOT AND PUSH1 0x1 PUSH1 0x1 PUSH1 0x80 SHL SUB DUP7 AND SWAP1 DUP2 OR SWAP1 SWAP2 SSTORE SWAP2 MLOAD SWAP2 DUP3 MSTORE DUP5 SWAP2 PUSH32 0x83EBE321D32AB7EC630CE122CA15D07A2D1EDC7A222FB279084FC24ABDFE778 SWAP2 ADD PUSH1 0x40 MLOAD DUP1 SWAP2 SUB SWAP1 LOG2 POP POP POP JUMP JUMPDEST PUSH1 0x0 CALLER PUSH2 0xB6F DUP2 DUP6 DUP6 PUSH2 0x16C0 JUMP JUMPDEST PUSH1 0x0 DUP1 PUSH2 0x11A0 PUSH1 0x2 SLOAD SWAP1 JUMP JUMPDEST SWAP1 POP DUP1 ISZERO PUSH2 0xB58 JUMPI PUSH2 0x11B0 PUSH2 0x8D0 JUMP JUMPDEST PUSH2 0xB49 DUP3 DUP6 PUSH2 0x1E51 JUMP JUMPDEST PUSH1 0x1 PUSH1 0x1 PUSH1 0xA0 SHL SUB DUP2 AND PUSH1 0x0 SWAP1 DUP2 MSTORE PUSH1 0x20 DUP2 SWAP1 MSTORE PUSH1 0x40 DUP2 KECCAK256 SLOAD PUSH2 0xA8A SWAP1 PUSH2 0xB22 JUMP JUMPDEST PUSH1 0x1 PUSH1 0x1 PUSH1 0xA0 SHL SUB DUP2 AND PUSH1 0x0 SWAP1 DUP2 MSTORE PUSH1 0x20 DUP2 SWAP1 MSTORE PUSH1 0x40 DUP2 KECCAK256 SLOAD PUSH2 0xA8A JUMP JUMPDEST PUSH2 0x1202 PUSH2 0x171F JUMP JUMPDEST PUSH1 0x1 PUSH1 0x1 PUSH1 0xA0 SHL SUB DUP2 AND PUSH2 0x122C JUMPI PUSH1 0x40 MLOAD PUSH4 0x1E4FBDF7 PUSH1 0xE0 SHL DUP2 MSTORE PUSH1 0x0 PUSH1 0x4 DUP3 ADD MSTORE PUSH1 0x24 ADD PUSH2 0x756 JUMP JUMPDEST PUSH2 0x1235 DUP2 PUSH2 0x17A4 JUMP JUMPDEST POP JUMP JUMPDEST PUSH2 0x1240 PUSH2 0x1377 JUMP JUMPDEST PUSH2 0x1248 PUSH2 0x13A1 JUMP JUMPDEST CALLVALUE DUP1 PUSH2 0x128C JUMPI PUSH1 0x40 MLOAD PUSH3 0x461BCD PUSH1 0xE5 SHL DUP2 MSTORE PUSH1 0x20 PUSH1 0x4 DUP3 ADD MSTORE PUSH1 0x13 PUSH1 0x24 DUP3 ADD MSTORE PUSH19 0x4465706F736974206D757374206265203E203 PUSH1 0x6C SHL PUSH1 0x44 DUP3 ADD MSTORE PUSH1 0x64 ADD PUSH2 0x756 JUMP JUMPDEST PUSH32 0x0 PUSH1 0x1 PUSH1 0x1 PUSH1 0xA0 SHL SUB AND PUSH4 0xD0E30DB0 DUP3 PUSH1 0x40 MLOAD DUP3 PUSH4 0xFFFFFFFF AND PUSH1 0xE0 SHL DUP2 MSTORE PUSH1 0x4 ADD PUSH1 0x0 PUSH1 0x40 MLOAD DUP1 DUP4 SUB DUP2 DUP6 DUP9 DUP1 EXTCODESIZE ISZERO DUP1 ISZERO PUSH2 0x12E7 JUMPI PUSH1 0x0 DUP1 REVERT JUMPDEST POP GAS CALL ISZERO DUP1 ISZERO PUSH2 0x12FB JUMPI RETURNDATASIZE PUSH1 0x0 DUP1 RETURNDATACOPY RETURNDATASIZE PUSH1 0x0 REVERT JUMPDEST POP POP POP POP POP PUSH2 0x1312 DUP3 PUSH2 0x130D DUP4 PUSH2 0x1194 JUMP JUMPDEST PUSH2 0x183B JUMP JUMPDEST PUSH2 0x131B DUP2 PUSH2 0x1871 JUMP JUMPDEST PUSH1 0x1 PUSH1 0x1 PUSH1 0xA0 SHL SUB DUP3 AND PUSH1 0x0 DUP2 DUP2 MSTORE PUSH1 0x20 DUP2 DUP2 MSTORE PUSH1 0x40 SWAP2 DUP3 SWAP1 KECCAK256 SLOAD DUP3 MLOAD DUP6 DUP2 MSTORE SWAP2 DUP3 ADD MSTORE DUP2 MLOAD PUSH32 0x73A19DD210F1A7F902193214C0EE91DD35EE5B4D920CBA8D519ECA65A7B488CA SWAP3 SWAP2 DUP2 SWAP1 SUB SWAP1 SWAP2 ADD SWAP1 LOG2 POP PUSH2 0x1235 PUSH1 0x1 PUSH1 0x5 SSTORE JUMP JUMPDEST PUSH1 0x2 PUSH1 0x5 SLOAD SUB PUSH2 0x139A JUMPI PUSH1 0x40 MLOAD PUSH4 0x3EE5AEB5 PUSH1 0xE0 SHL DUP2 MSTORE PUSH1 0x4 ADD PUSH1 0x40 MLOAD DUP1 SWAP2 SUB SWAP1 REVERT JUMPDEST PUSH1 0x2 PUSH1 0x5 SSTORE JUMP JUMPDEST PUSH1 0x6 SLOAD PUSH1 0xFF AND ISZERO PUSH2 0xBB8 JUMPI PUSH1 0x40 MLOAD PUSH4 0xD93C0665 PUSH1 0xE0 SHL DUP2 MSTORE PUSH1 0x4 ADD PUSH1 0x40 MLOAD DUP1 SWAP2 SUB SWAP1 REVERT JUMPDEST PUSH1 0x1 PUSH1 0x1 PUSH1 0xA0 SHL SUB DUP3 AND PUSH2 0x13EF JUMPI PUSH1 0x40 MLOAD PUSH4 0x4B637E8F PUSH1 0xE1 SHL DUP2 MSTORE PUSH1 0x0 PUSH1 0x4 DUP3 ADD MSTORE PUSH1 0x24 ADD PUSH2 0x756 JUMP JUMPDEST PUSH2 0x8CC DUP3 PUSH1 0x0 DUP4 PUSH2 0x1A1D JUMP JUMPDEST PUSH1 0x0 PUSH2 0x1405 PUSH2 0x8D0 JUMP JUMPDEST SWAP1 POP DUP1 PUSH1 0x0 SUB PUSH2 0x1413 JUMPI POP POP JUMP JUMPDEST PUSH1 0x40 MLOAD PUSH4 0x70A08231 PUSH1 0xE0 SHL DUP2 MSTORE ADDRESS PUSH1 0x4 DUP3 ADD MSTORE PUSH1 0x0 SWAP1 PUSH32 0x0 PUSH1 0x1 PUSH1 0x1 PUSH1 0xA0 SHL SUB AND SWAP1 PUSH4 0x70A08231 SWAP1 PUSH1 0x24 ADD PUSH1 0x20 PUSH1 0x40 MLOAD DUP1 DUP4 SUB DUP2 DUP7 GAS STATICCALL ISZERO DUP1 ISZERO PUSH2 0x147A JUMPI RETURNDATASIZE PUSH1 0x0 DUP1 RETURNDATACOPY RETURNDATASIZE PUSH1 0x0 REVERT JUMPDEST POP POP POP POP PUSH1 0x40 MLOAD RETURNDATASIZE PUSH1 0x1F NOT PUSH1 0x1F DUP3 ADD AND DUP3 ADD DUP1 PUSH1 0x40 MSTORE POP DUP2 ADD SWAP1 PUSH2 0x149E SWAP2 SWAP1 PUSH2 0x1DD5 JUMP JUMPDEST SWAP1 POP PUSH1 0x0 DUP3 PUSH2 0x14AD DUP4 DUP7 PUSH2 0x1E51 JUMP JUMPDEST PUSH2 0x14B7 SWAP2 SWAP1 PUSH2 0x1E68 JUMP JUMPDEST SWAP1 POP DUP1 ISZERO PUSH2 0x157A JUMPI PUSH1 0x40 MLOAD PUSH4 0x1A4CA37B PUSH1 0xE2 SHL DUP2 MSTORE PUSH1 0x1 PUSH1 0x1 PUSH1 0xA0 SHL SUB PUSH32 0x0 DUP2 AND PUSH1 0x4 DUP4 ADD MSTORE PUSH1 0x24 DUP3 ADD DUP4 SWAP1 MSTORE ADDRESS PUSH1 0x44 DUP4 ADD MSTORE PUSH32 0x0 AND SWAP1 PUSH4 0x69328DEC SWAP1 PUSH1 0x64 ADD PUSH1 0x20 PUSH1 0x40 MLOAD DUP1 DUP4 SUB DUP2 PUSH1 0x0 DUP8 GAS CALL ISZERO DUP1 ISZERO PUSH2 0x1554 JUMPI RETURNDATASIZE PUSH1 0x0 DUP1 RETURNDATACOPY RETURNDATASIZE PUSH1 0x0 REVERT JUMPDEST POP POP POP POP PUSH1 0x40 MLOAD RETURNDATASIZE PUSH1 0x1F NOT PUSH1 0x1F DUP3 ADD AND DUP3 ADD DUP1 PUSH1 0x40 MSTORE POP DUP2 ADD SWAP1 PUSH2 0x1578 SWAP2 SWAP1 PUSH2 0x1DD5 JUMP JUMPDEST POP JUMPDEST PUSH1 0x0 PUSH2 0x1586 DUP3 DUP7 PUSH2 0x1E8A JUMP JUMPDEST SWAP1 POP DUP1 ISZERO PUSH2 0x1628 JUMPI PUSH1 0x40 MLOAD PUSH4 0x2D182BE5 PUSH1 0xE2 SHL DUP2 MSTORE PUSH1 0x4 DUP2 ADD DUP3 SWAP1 MSTORE ADDRESS PUSH1 0x24 DUP3 ADD DUP2 SWAP1 MSTORE PUSH1 0x44 DUP3 ADD MSTORE PUSH32 0x0 PUSH1 0x1 PUSH1 0x1 PUSH1 0xA0 SHL SUB AND SWAP1 PUSH4 0xB460AF94 SWAP1 PUSH1 0x64 ADD PUSH1 0x20 PUSH1 0x40 MLOAD DUP1 DUP4 SUB DUP2 PUSH1 0x0 DUP8 GAS CALL ISZERO DUP1 ISZERO PUSH2 0x1602 JUMPI RETURNDATASIZE PUSH1 0x0 DUP1 RETURNDATACOPY RETURNDATASIZE PUSH1 0x0 REVERT JUMPDEST POP POP POP POP PUSH1 0x40 MLOAD RETURNDATASIZE PUSH1 0x1F NOT PUSH1 0x1F DUP3 ADD AND DUP3 ADD DUP1 PUSH1 0x40 MSTORE POP DUP2 ADD SWAP1 PUSH2 0x1626 SWAP2 SWAP1 PUSH2 0x1DD5 JUMP JUMPDEST POP JUMPDEST POP POP POP POP POP JUMP JUMPDEST PUSH2 0x163C DUP4 DUP4 DUP4 PUSH1 0x1 PUSH2 0x1B47 JUMP JUMPDEST POP POP POP JUMP JUMPDEST PUSH1 0x1 PUSH1 0x1 PUSH1 0xA0 SHL SUB DUP4 DUP2 AND PUSH1 0x0 SWAP1 DUP2 MSTORE PUSH1 0x1 PUSH1 0x20 SWAP1 DUP2 MSTORE PUSH1 0x40 DUP1 DUP4 KECCAK256 SWAP4 DUP7 AND DUP4 MSTORE SWAP3 SWAP1 MSTORE KECCAK256 SLOAD PUSH1 0x0 NOT DUP2 LT ISZERO PUSH2 0x16BA JUMPI DUP2 DUP2 LT ISZERO PUSH2 0x16AB JUMPI PUSH1 0x40 MLOAD PUSH4 0x7DC7A0D9 PUSH1 0xE1 SHL DUP2 MSTORE PUSH1 0x1 PUSH1 0x1 PUSH1 0xA0 SHL SUB DUP5 AND PUSH1 0x4 DUP3 ADD MSTORE PUSH1 0x24 DUP2 ADD DUP3 SWAP1 MSTORE PUSH1 0x44 DUP2 ADD DUP4 SWAP1 MSTORE PUSH1 0x64 ADD PUSH2 0x756 JUMP JUMPDEST PUSH2 0x16BA DUP5 DUP5 DUP5 DUP5 SUB PUSH1 0x0 PUSH2 0x1B47 JUMP JUMPDEST POP POP POP POP JUMP JUMPDEST PUSH1 0x1 PUSH1 0x1 PUSH1 0xA0 SHL SUB DUP4 AND PUSH2 0x16EA JUMPI PUSH1 0x40 MLOAD PUSH4 0x4B637E8F PUSH1 0xE1 SHL DUP2 MSTORE PUSH1 0x0 PUSH1 0x4 DUP3 ADD MSTORE PUSH1 0x24 ADD PUSH2 0x756 JUMP JUMPDEST PUSH1 0x1 PUSH1 0x1 PUSH1 0xA0 SHL SUB DUP3 AND PUSH2 0x1714 JUMPI PUSH1 0x40 MLOAD PUSH4 0xEC442F05 PUSH1 0xE0 SHL DUP2 MSTORE PUSH1 0x0 PUSH1 0x4 DUP3 ADD MSTORE PUSH1 0x24 ADD PUSH2 0x756 JUMP JUMPDEST PUSH2 0x163C DUP4 DUP4 DUP4 PUSH2 0x1A1D JUMP JUMPDEST PUSH1 0x6 SLOAD PUSH1 0x1 PUSH1 0x1 PUSH1 0xA0 SHL SUB PUSH2 0x100 SWAP1 SWAP2 DIV AND CALLER EQ PUSH2 0xBB8 JUMPI PUSH1 0x40 MLOAD PUSH4 0x118CDAA7 PUSH1 0xE0 SHL DUP2 MSTORE CALLER PUSH1 0x4 DUP3 ADD MSTORE PUSH1 0x24 ADD PUSH2 0x756 JUMP JUMPDEST PUSH2 0x175A PUSH2 0x1C1C JUMP JUMPDEST PUSH1 0x6 DUP1 SLOAD PUSH1 0xFF NOT AND SWAP1 SSTORE PUSH32 0x5DB9EE0A495BF2E6FF9C91A7834C1BA4FDD244A5E8AA4E537BD38AEAE4B073AA CALLER JUMPDEST PUSH1 0x40 MLOAD PUSH1 0x1 PUSH1 0x1 PUSH1 0xA0 SHL SUB SWAP1 SWAP2 AND DUP2 MSTORE PUSH1 0x20 ADD PUSH1 0x40 MLOAD DUP1 SWAP2 SUB SWAP1 LOG1 JUMP JUMPDEST PUSH1 0x6 DUP1 SLOAD PUSH1 0x1 PUSH1 0x1 PUSH1 0xA0 SHL SUB DUP4 DUP2 AND PUSH2 0x100 DUP2 DUP2 MUL PUSH2 0x100 PUSH1 0x1 PUSH1 0xA8 SHL SUB NOT DUP6 AND OR SWAP1 SWAP5 SSTORE PUSH1 0x40 MLOAD SWAP4 SWAP1 SWAP3 DIV AND SWAP2 DUP3 SWAP1 PUSH32 0x8BE0079C531659141344CD1FD0A4F28419497F9722A3DAAFE3B4186F6B6457E0 SWAP1 PUSH1 0x0 SWAP1 LOG3 POP POP JUMP JUMPDEST PUSH2 0x1806 PUSH2 0x13A1 JUMP JUMPDEST PUSH1 0x6 DUP1 SLOAD PUSH1 0xFF NOT AND PUSH1 0x1 OR SWAP1 SSTORE PUSH32 0x62E78CEA01BEE320CD4E420270B5EA74000D11B0C9F74754EBDBFC544B05A258 PUSH2 0x1787 CALLER SWAP1 JUMP JUMPDEST PUSH1 0x1 PUSH1 0x1 PUSH1 0xA0 SHL SUB DUP3 AND PUSH2 0x1865 JUMPI PUSH1 0x40 MLOAD PUSH4 0xEC442F05 PUSH1 0xE0 SHL DUP2 MSTORE PUSH1 0x0 PUSH1 0x4 DUP3 ADD MSTORE PUSH1 0x24 ADD PUSH2 0x756 JUMP JUMPDEST PUSH2 0x8CC PUSH1 0x0 DUP4 DUP4 PUSH2 0x1A1D JUMP JUMPDEST PUSH1 0x1 PUSH1 0x0 SWAP1 DUP2 MSTORE PUSH1 0x7 PUSH1 0x20 MSTORE PUSH32 0xB39221ACE053465EC3453CE2B36430BD138B997ECEA25C1043DA0C366812B828 SLOAD PUSH2 0x2710 SWAP1 PUSH2 0x18B6 SWAP1 PUSH1 0x1 PUSH1 0x1 PUSH1 0x80 SHL SUB AND DUP5 PUSH2 0x1E51 JUMP JUMPDEST PUSH2 0x18C0 SWAP2 SWAP1 PUSH2 0x1E68 JUMP JUMPDEST SWAP1 POP PUSH1 0x0 PUSH2 0x18CE DUP3 DUP5 PUSH2 0x1E8A JUMP JUMPDEST SWAP1 POP DUP2 ISZERO PUSH2 0x1986 JUMPI PUSH1 0x40 MLOAD PUSH4 0x617BA037 PUSH1 0xE0 SHL DUP2 MSTORE PUSH1 0x1 PUSH1 0x1 PUSH1 0xA0 SHL SUB PUSH32 0x0 DUP2 AND PUSH1 0x4 DUP4 ADD MSTORE PUSH1 0x24 DUP3 ADD DUP5 SWAP1 MSTORE ADDRESS PUSH1 0x44 DUP4 ADD MSTORE PUSH1 0x0 PUSH1 0x64 DUP4 ADD MSTORE PUSH32 0x0 AND SWAP1 PUSH4 0x617BA037 SWAP1 PUSH1 0x84 ADD PUSH1 0x0 PUSH1 0x40 MLOAD DUP1 DUP4 SUB DUP2 PUSH1 0x0 DUP8 DUP1 EXTCODESIZE ISZERO DUP1 ISZERO PUSH2 0x196D JUMPI PUSH1 0x0 DUP1 REVERT JUMPDEST POP GAS CALL ISZERO DUP1 ISZERO PUSH2 0x1981 JUMPI RETURNDATASIZE PUSH1 0x0 DUP1 RETURNDATACOPY RETURNDATASIZE PUSH1 0x0 REVERT JUMPDEST POP POP POP POP JUMPDEST DUP1 ISZERO PUSH2 0x163C JUMPI PUSH1 0x40 MLOAD PUSH4 0x6E553F65 PUSH1 0xE0 SHL DUP2 MSTORE PUSH1 0x4 DUP2 ADD DUP3 SWAP1 MSTORE ADDRESS PUSH1 0x24 DUP3 ADD MSTORE PUSH32 0x0 PUSH1 0x1 PUSH1 0x1 PUSH1 0xA0 SHL SUB AND SWAP1 PUSH4 0x6E553F65 SWAP1 PUSH1 0x44 ADD PUSH1 0x20 PUSH1 0x40 MLOAD DUP1 DUP4 SUB DUP2 PUSH1 0x0 DUP8 GAS CALL ISZERO DUP1 ISZERO PUSH2 0x19F9 JUMPI RETURNDATASIZE PUSH1 0x0 DUP1 RETURNDATACOPY RETURNDATASIZE PUSH1 0x0 REVERT JUMPDEST POP POP POP POP PUSH1 0x40 MLOAD RETURNDATASIZE PUSH1 0x1F NOT PUSH1 0x1F DUP3 ADD AND DUP3 ADD DUP1 PUSH1 0x40 MSTORE POP DUP2 ADD SWAP1 PUSH2 0x16BA SWAP2 SWAP1 PUSH2 0x1DD5 JUMP JUMPDEST PUSH1 0x1 PUSH1 0x1 PUSH1 0xA0 SHL SUB DUP4 AND PUSH2 0x1A48 JUMPI DUP1 PUSH1 0x2 PUSH1 0x0 DUP3 DUP3 SLOAD PUSH2 0x1A3D SWAP2 SWAP1 PUSH2 0x1E04 JUMP JUMPDEST SWAP1 SWAP2 SSTORE POP PUSH2 0x1ABA SWAP1 POP JUMP JUMPDEST PUSH1 0x1 PUSH1 0x1 PUSH1 0xA0 SHL SUB DUP4 AND PUSH1 0x0 SWAP1 DUP2 MSTORE PUSH1 0x20 DUP2 SWAP1 MSTORE PUSH1 0x40 SWAP1 KECCAK256 SLOAD DUP2 DUP2 LT ISZERO PUSH2 0x1A9B JUMPI PUSH1 0x40 MLOAD PUSH4 0x391434E3 PUSH1 0xE2 SHL DUP2 MSTORE PUSH1 0x1 PUSH1 0x1 PUSH1 0xA0 SHL SUB DUP6 AND PUSH1 0x4 DUP3 ADD MSTORE PUSH1 0x24 DUP2 ADD DUP3 SWAP1 MSTORE PUSH1 0x44 DUP2 ADD DUP4 SWAP1 MSTORE PUSH1 0x64 ADD PUSH2 0x756 JUMP JUMPDEST PUSH1 0x1 PUSH1 0x1 PUSH1 0xA0 SHL SUB DUP5 AND PUSH1 0x0 SWAP1 DUP2 MSTORE PUSH1 0x20 DUP2 SWAP1 MSTORE PUSH1 0x40 SWAP1 KECCAK256 SWAP1 DUP3 SWAP1 SUB SWAP1 SSTORE JUMPDEST PUSH1 0x1 PUSH1 0x1 PUSH1 0xA0 SHL SUB DUP3 AND PUSH2 0x1AD6 JUMPI PUSH1 0x2 DUP1 SLOAD DUP3 SWAP1 SUB SWAP1 SSTORE PUSH2 0x1AF5 JUMP JUMPDEST PUSH1 0x1 PUSH1 0x1 PUSH1 0xA0 SHL SUB DUP3 AND PUSH1 0x0 SWAP1 DUP2 MSTORE PUSH1 0x20 DUP2 SWAP1 MSTORE PUSH1 0x40 SWAP1 KECCAK256 DUP1 SLOAD DUP3 ADD SWAP1 SSTORE JUMPDEST DUP2 PUSH1 0x1 PUSH1 0x1 PUSH1 0xA0 SHL SUB AND DUP4 PUSH1 0x1 PUSH1 0x1 PUSH1 0xA0 SHL SUB AND PUSH32 0xDDF252AD1BE2C89B69C2B068FC378DAA952BA7F163C4A11628F55A4DF523B3EF DUP4 PUSH1 0x40 MLOAD PUSH2 0x1B3A SWAP2 DUP2 MSTORE PUSH1 0x20 ADD SWAP1 JUMP JUMPDEST PUSH1 0x40 MLOAD DUP1 SWAP2 SUB SWAP1 LOG3 POP POP POP JUMP JUMPDEST PUSH1 0x1 PUSH1 0x1 PUSH1 0xA0 SHL SUB DUP5 AND PUSH2 0x1B71 JUMPI PUSH1 0x40 MLOAD PUSH4 0xE602DF05 PUSH1 0xE0 SHL DUP2 MSTORE PUSH1 0x0 PUSH1 0x4 DUP3 ADD MSTORE PUSH1 0x24 ADD PUSH2 0x756 JUMP JUMPDEST PUSH1 0x1 PUSH1 0x1 PUSH1 0xA0 SHL SUB DUP4 AND PUSH2 0x1B9B JUMPI PUSH1 0x40 MLOAD PUSH4 0x4A1406B1 PUSH1 0xE1 SHL DUP2 MSTORE PUSH1 0x0 PUSH1 0x4 DUP3 ADD MSTORE PUSH1 0x24 ADD PUSH2 0x756 JUMP JUMPDEST PUSH1 0x1 PUSH1 0x1 PUSH1 0xA0 SHL SUB DUP1 DUP6 AND PUSH1 0x0 SWAP1 DUP2 MSTORE PUSH1 0x1 PUSH1 0x20 SWAP1 DUP2 MSTORE PUSH1 0x40 DUP1 DUP4 KECCAK256 SWAP4 DUP8 AND DUP4 MSTORE SWAP3 SWAP1 MSTORE KECCAK256 DUP3 SWAP1 SSTORE DUP1 ISZERO PUSH2 0x16BA JUMPI DUP3 PUSH1 0x1 PUSH1 0x1 PUSH1 0xA0 SHL SUB AND DUP5 PUSH1 0x1 PUSH1 0x1 PUSH1 0xA0 SHL SUB AND PUSH32 0x8C5BE1E5EBEC7D5BD14F71427D1E84F3DD0314C0F7B2291E5B200AC8C7C3B925 DUP5 PUSH1 0x40 MLOAD PUSH2 0x1C0E SWAP2 DUP2 MSTORE PUSH1 0x20 ADD SWAP1 JUMP JUMPDEST PUSH1 0x40 MLOAD DUP1 SWAP2 SUB SWAP1 LOG3 POP POP POP POP JUMP JUMPDEST PUSH1 0x6 SLOAD PUSH1 0xFF AND PUSH2 0xBB8 JUMPI PUSH1 0x40 MLOAD PUSH4 0x8DFC202B PUSH1 0xE0 SHL DUP2 MSTORE PUSH1 0x4 ADD PUSH1 0x40 MLOAD DUP1 SWAP2 SUB SWAP1 REVERT JUMPDEST DUP1 CALLDATALOAD PUSH1 0x1 PUSH1 0x1 PUSH1 0xA0 SHL SUB DUP2 AND DUP2 EQ PUSH2 0x1C56 JUMPI PUSH1 0x0 DUP1 REVERT JUMPDEST SWAP2 SWAP1 POP JUMP JUMPDEST PUSH1 0x0 DUP1 PUSH1 0x40 DUP4 DUP6 SUB SLT ISZERO PUSH2 0x1C6E JUMPI PUSH1 0x0 DUP1 REVERT JUMPDEST DUP3 CALLDATALOAD SWAP2 POP PUSH2 0x1C7E PUSH1 0x20 DUP5 ADD PUSH2 0x1C3F JUMP JUMPDEST SWAP1 POP SWAP3 POP SWAP3 SWAP1 POP JUMP JUMPDEST PUSH1 0x0 PUSH1 0x20 DUP1 DUP4 MSTORE DUP4 MLOAD DUP1 DUP3 DUP6 ADD MSTORE PUSH1 0x0 JUMPDEST DUP2 DUP2 LT ISZERO PUSH2 0x1CB4 JUMPI DUP6 DUP2 ADD DUP4 ADD MLOAD DUP6 DUP3 ADD PUSH1 0x40 ADD MSTORE DUP3 ADD PUSH2 0x1C98 JUMP JUMPDEST POP PUSH1 0x0 PUSH1 0x40 DUP3 DUP7 ADD ADD MSTORE PUSH1 0x40 PUSH1 0x1F NOT PUSH1 0x1F DUP4 ADD AND DUP6 ADD ADD SWAP3 POP POP POP SWAP3 SWAP2 POP POP JUMP JUMPDEST PUSH1 0x0 PUSH1 0x20 DUP3 DUP5 SUB SLT ISZERO PUSH2 0x1CE7 JUMPI PUSH1 0x0 DUP1 REVERT JUMPDEST POP CALLDATALOAD SWAP2 SWAP1 POP JUMP JUMPDEST PUSH1 0x0 DUP1 PUSH1 0x40 DUP4 DUP6 SUB SLT ISZERO PUSH2 0x1D01 JUMPI PUSH1 0x0 DUP1 REVERT JUMPDEST PUSH2 0x1D0A DUP4 PUSH2 0x1C3F JUMP JUMPDEST SWAP5 PUSH1 0x20 SWAP4 SWAP1 SWAP4 ADD CALLDATALOAD SWAP4 POP POP POP JUMP JUMPDEST PUSH1 0x0 DUP1 PUSH1 0x0 PUSH1 0x60 DUP5 DUP7 SUB SLT ISZERO PUSH2 0x1D2D JUMPI PUSH1 0x0 DUP1 REVERT JUMPDEST PUSH2 0x1D36 DUP5 PUSH2 0x1C3F JUMP JUMPDEST SWAP3 POP PUSH2 0x1D44 PUSH1 0x20 DUP6 ADD PUSH2 0x1C3F JUMP JUMPDEST SWAP2 POP PUSH1 0x40 DUP5 ADD CALLDATALOAD SWAP1 POP SWAP3 POP SWAP3 POP SWAP3 JUMP JUMPDEST PUSH1 0x0 PUSH1 0x20 DUP3 DUP5 SUB SLT ISZERO PUSH2 0x1D66 JUMPI PUSH1 0x0 DUP1 REVERT JUMPDEST PUSH2 0xB5A DUP3 PUSH2 0x1C3F JUMP JUMPDEST PUSH1 0x0 DUP1 PUSH1 0x40 DUP4 DUP6 SUB SLT ISZERO PUSH2 0x1D82 JUMPI PUSH1 0x0 DUP1 REVERT JUMPDEST DUP3 CALLDATALOAD SWAP2 POP PUSH1 0x20 DUP4 ADD CALLDATALOAD PUSH1 0x1 PUSH1 0x1 PUSH1 0x80 SHL SUB DUP2 AND DUP2 EQ PUSH2 0x1DA0 JUMPI PUSH1 0x0 DUP1 REVERT JUMPDEST DUP1 SWAP2 POP POP SWAP3 POP SWAP3 SWAP1 POP JUMP JUMPDEST PUSH1 0x0 DUP1 PUSH1 0x40 DUP4 DUP6 SUB SLT ISZERO PUSH2 0x1DBE JUMPI PUSH1 0x0 DUP1 REVERT JUMPDEST PUSH2 0x1DC7 DUP4 PUSH2 0x1C3F JUMP JUMPDEST SWAP2 POP PUSH2 0x1C7E PUSH1 0x20 DUP5 ADD PUSH2 0x1C3F JUMP JUMPDEST PUSH1 0x0 PUSH1 0x20 DUP3 DUP5 SUB SLT ISZERO PUSH2 0x1DE7 JUMPI PUSH1 0x0 DUP1 REVERT JUMPDEST POP MLOAD SWAP2 SWAP1 POP JUMP JUMPDEST PUSH4 0x4E487B71 PUSH1 0xE0 SHL PUSH1 0x0 MSTORE PUSH1 0x11 PUSH1 0x4 MSTORE PUSH1 0x24 PUSH1 0x0 REVERT JUMPDEST DUP1 DUP3 ADD DUP1 DUP3 GT ISZERO PUSH2 0xA8A JUMPI PUSH2 0xA8A PUSH2 0x1DEE JUMP JUMPDEST PUSH1 0x1 DUP2 DUP2 SHR SWAP1 DUP3 AND DUP1 PUSH2 0x1E2B JUMPI PUSH1 0x7F DUP3 AND SWAP2 POP JUMPDEST PUSH1 0x20 DUP3 LT DUP2 SUB PUSH2 0x1E4B JUMPI PUSH4 0x4E487B71 PUSH1 0xE0 SHL PUSH1 0x0 MSTORE PUSH1 0x22 PUSH1 0x4 MSTORE PUSH1 0x24 PUSH1 0x0 REVERT JUMPDEST POP SWAP2 SWAP1 POP JUMP JUMPDEST DUP1 DUP3 MUL DUP2 ISZERO DUP3 DUP3 DIV DUP5 EQ OR PUSH2 0xA8A JUMPI PUSH2 0xA8A PUSH2 0x1DEE JUMP JUMPDEST PUSH1 0x0 DUP3 PUSH2 0x1E85 JUMPI PUSH4 0x4E487B71 PUSH1 0xE0 SHL PUSH1 0x0 MSTORE PUSH1 0x12 PUSH1 0x4 MSTORE PUSH1 0x24 PUSH1 0x0 REVERT JUMPDEST POP DIV SWAP1 JUMP JUMPDEST DUP2 DUP2 SUB DUP2 DUP2 GT ISZERO PUSH2 0xA8A JUMPI PUSH2 0xA8A PUSH2 0x1DEE JUMP JUMPDEST PUSH1 0x0 PUSH1 0x1 PUSH1 0xFF SHL DUP3 ADD PUSH2 0x1EB2 JUMPI PUSH2 0x1EB2 PUSH2 0x1DEE JUMP JUMPDEST POP PUSH1 0x0 SUB SWAP1 JUMP INVALID LOG2 PUSH5 0x6970667358 0x22 SLT KECCAK256 DUP10 0xA8 DUP2 LOG0 SAR MLOAD 0xB5 PUSH11 0x583F7D1100DA10C201716D DUP11 0xC5 0xE3 0xC RETURN EXTCODECOPY ORIGIN PUSH29 0xAF23D547BF64736F6C6343000814003300000000000000000000000000 "},"methodIdentifiers":{"SATSUMA_LP_VAULT()":"f7010bb1","TOTAL_BPS()":"d3cd52bc","ZENTRA_POOL()":"d4fcd742","Z_TOKEN()":"fceedcdf","allowance(address,address)":"dd62ed3e","approve(address,uint256)":"095ea7b3","asset()":"38d52e0f","balanceOf(address)":"70a08231","convertToAssets(uint256)":"07a2d13a","convertToShares(uint256)":"c6e6f592","decimals()":"313ce567","deposit(address)":"f340fa01","maxDeposit(address)":"402d267d","maxMint(address)":"c63d75b6","maxRedeem(address)":"d905777e","maxWithdraw(address)":"ce96cb77","name()":"06fdde03","owner()":"8da5cb5b","pause()":"8456cb59","paused()":"5c975abb","previewDeposit(uint256)":"ef8b30f7","previewMint(uint256)":"b3d7f6b9","previewRedeem(uint256)":"4cdad506","previewWithdraw(uint256)":"0a28a477","rebalance()":"7d7c2a1c","renounceOwnership()":"715018a6","setAllocation(uint256,uint128)":"a8ccde78","strategies(uint256)":"d574ea3d","symbol()":"95d89b41","totalAllocationBps()":"30f2c130","totalAssets()":"01e1d114","totalSupply()":"18160ddd","transfer(address,uint256)":"a9059cbb","transferFrom(address,address,uint256)":"23b872dd","transferOwnership(address)":"f2fde38b","unpause()":"3f4ba83a","withdraw(uint256,address)":"00f714ce"}}}}}