{"contracts/MockSatsumaRouter.sol":{"MockSatsumaRouter":{"abi":[{"inputs":[{"internalType":"bytes","name":"","type":"bytes"}],"name":"exactInputSingle","outputs":[{"internalType":"uint256","name":"","type":"uint256"}],"stateMutability":"pure","type":"function"}],"evm":{"bytecode":{"linkReferences":{},"object":"608060405234801561001057600080fd5b5060f58061001f6000396000f3fe6080604052348015600f57600080fd5b506004361060285760003560e01c8063c1b2f52814602d575b600080fd5b604060383660046052565b600092915050565b60405190815260200160405180910390f35b60008060208385031215606457600080fd5b823567ffffffffffffffff80821115607b57600080fd5b818501915085601f830112608e57600080fd5b813581811115609c57600080fd5b86602082850101111560ad57600080fd5b6020929092019691955090935050505056fea2646970667358221220aba53d5c3dc031c466dc3a8e0f4a1a3ac0bf468e14c9d604c271c14794fd0e0f64736f6c63430008140033","opcodes":"PUSH1 0x80 PUSH1 0x40 MSTORE CALLVALUE DUP1 ISZERO PUSH2 0x10 JUMPI PUSH1 0x0 DUP1 REVERT JUMPDEST POP PUSH1 0xF5 DUP1 PUSH2 0x1F PUSH1 0x0 CODECOPY PUSH1 0x0 RETURN INVALID PUSH1 0x80 PUSH1 0x40 MSTORE CALLVALUE DUP1 ISZERO PUSH1 0xF JUMPI PUSH1 0x0 DUP1 REVERT JUMPDEST POP PUSH1 0x4 CALLDATASIZE LT PUSH1 0x28 JUMPI PUSH1 0x0 CALLDATALOAD PUSH1 0xE0 SHR DUP1 PUSH4 0xC1B2F528 EQ PUSH1 0x2D JUMPI JUMPDEST PUSH1 0x0 DUP1 REVERT JUMPDEST PUSH1 0x40 PUSH1 0x38 CALLDATASIZE PUSH1 0x4 PUSH1 0x52 JUMP JUMPDEST PUSH1 0x0 SWAP3 SWAP2 POP POP JUMP JUMPDEST PUSH1 0x40 MLOAD SWAP1 DUP2 MSTORE PUSH1 0x20 ADD PUSH1 0x40 MLOAD DUP1 SWAP2 SUB SWAP1 RETURN JUMPDEST PUSH1 0x0 DUP1 PUSH1 0x20 DUP4 DUP6 SUB SLT ISZERO PUSH1 0x64 JUMPI PUSH1 0x0 DUP1 REVERT JUMPDEST DUP3 CALLDATALOAD PUSH8 0xFFFFFFFFFFFFFFFF DUP1 DUP3 GT ISZERO PUSH1 0x7B JUMPI PUSH1 0x0 DUP1 REVERT JUMPDEST DUP2 DUP6 ADD SWAP2 POP DUP6 PUSH1 0x1F DUP4 ADD SLT PUSH1 0x8E JUMPI PUSH1 0x0 DUP1 REVERT JUMPDEST DUP2 CALLDATALOAD DUP2 DUP2 GT ISZERO PUSH1 0x9C JUMPI PUSH1 0x0 DUP1 REVERT JUMPDEST DUP7 PUSH1 0x20 DUP3 DUP6 ADD ADD GT ISZERO PUSH1 0xAD JUMPI PUSH1 0x0 DUP1 REVERT JUMPDEST PUSH1 0x20 SWAP3 SWAP1 SWAP3 ADD SWAP7 SWAP2 SWAP6 POP SWAP1 SWAP4 POP POP POP POP JUMP INVALID LOG2 PUSH5 0x6970667358 0x22 SLT KECCAK256 0xAB 0xA5 RETURNDATASIZE 0x5C RETURNDATASIZE 0xC0 BALANCE 0xC4 PUSH7 0xDC3A8E0F4A1A3A 0xC0 0xBF CHAINID DUP15 EQ 0xC9 0xD6 DIV 0xC2 PUSH18 0xC14794FD0E0F64736F6C6343000814003300 "},"methodIdentifiers":{"exactInputSingle(bytes)":"c1b2f528"}}}}}