{"contracts/LavaPortfolioVault.sol":{"LavaPortfolioVault":{"abi":[{"inputs":[{"internalType":"contract IWcBTC","name":"_wcbtc","type":"address"},{"internalType":"uint16","name":"_reserveBps","type":"uint16"}],"stateMutability":"nonpayable","type":"constructor"},{"inputs":[{"internalType":"address","name":"spender","type":"address"},{"internalType":"uint256","name":"allowance","type":"uint256"},{"internalType":"uint256","name":"needed","type":"uint256"}],"name":"ERC20InsufficientAllowance","type":"error"},{"inputs":[{"internalType":"address","name":"sender","type":"address"},{"internalType":"uint256","name":"balance","type":"uint256"},{"internalType":"uint256","name":"needed","type":"uint256"}],"name":"ERC20InsufficientBalance","type":"error"},{"inputs":[{"internalType":"address","name":"approver","type":"address"}],"name":"ERC20InvalidApprover","type":"error"},{"inputs":[{"internalType":"address","name":"receiver","type":"address"}],"name":"ERC20InvalidReceiver","type":"error"},{"inputs":[{"internalType":"address","name":"sender","type":"address"}],"name":"ERC20InvalidSender","type":"error"},{"inputs":[{"internalType":"address","name":"spender","type":"address"}],"name":"ERC20InvalidSpender","type":"error"},{"inputs":[],"name":"EnforcedPause","type":"error"},{"inputs":[],"name":"ExpectedPause","type":"error"},{"inputs":[{"internalType":"address","name":"owner","type":"address"}],"name":"OwnableInvalidOwner","type":"error"},{"inputs":[{"internalType":"address","name":"account","type":"address"}],"name":"OwnableUnauthorizedAccount","type":"error"},{"inputs":[],"name":"ReentrancyGuardReentrantCall","type":"error"},{"anonymous":false,"inputs":[{"indexed":true,"internalType":"address","name":"owner","type":"address"},{"indexed":true,"internalType":"address","name":"spender","type":"address"},{"indexed":false,"internalType":"uint256","name":"value","type":"uint256"}],"name":"Approval","type":"event"},{"anonymous":false,"inputs":[{"indexed":true,"internalType":"uint256","name":"id","type":"uint256"},{"indexed":false,"internalType":"uint256","name":"amount","type":"uint256"}],"name":"Divested","type":"event"},{"anonymous":false,"inputs":[{"indexed":true,"internalType":"uint256","name":"id","type":"uint256"},{"indexed":false,"internalType":"uint256","name":"amount","type":"uint256"}],"name":"Invested","type":"event"},{"anonymous":false,"inputs":[{"indexed":true,"internalType":"address","name":"previousOwner","type":"address"},{"indexed":true,"internalType":"address","name":"newOwner","type":"address"}],"name":"OwnershipTransferred","type":"event"},{"anonymous":false,"inputs":[{"indexed":false,"internalType":"address","name":"account","type":"address"}],"name":"Paused","type":"event"},{"anonymous":false,"inputs":[{"indexed":false,"internalType":"uint16","name":"bps","type":"uint16"}],"name":"ReserveUpdated","type":"event"},{"anonymous":false,"inputs":[{"indexed":true,"internalType":"uint256","name":"id","type":"uint256"},{"indexed":false,"internalType":"address","name":"adapter","type":"address"},{"indexed":false,"internalType":"uint16","name":"bps","type":"uint16"}],"name":"StrategyAdded","type":"event"},{"anonymous":false,"inputs":[{"indexed":true,"internalType":"uint256","name":"id","type":"uint256"},{"indexed":false,"internalType":"uint16","name":"bps","type":"uint16"},{"indexed":false,"internalType":"bool","name":"enabled","type":"bool"}],"name":"StrategyUpdated","type":"event"},{"anonymous":false,"inputs":[{"indexed":true,"internalType":"address","name":"from","type":"address"},{"indexed":true,"internalType":"address","name":"to","type":"address"},{"indexed":false,"internalType":"uint256","name":"value","type":"uint256"}],"name":"Transfer","type":"event"},{"anonymous":false,"inputs":[{"indexed":false,"internalType":"address","name":"account","type":"address"}],"name":"Unpaused","type":"event"},{"inputs":[],"name":"TOTAL_BPS","outputs":[{"internalType":"uint16","name":"","type":"uint16"}],"stateMutability":"view","type":"function"},{"inputs":[{"internalType":"uint256","name":"id","type":"uint256"},{"internalType":"contract IStrategy","name":"adapter","type":"address"},{"internalType":"uint16","name":"bps","type":"uint16"}],"name":"addStrategy","outputs":[],"stateMutability":"nonpayable","type":"function"},{"inputs":[{"internalType":"address","name":"owner","type":"address"},{"internalType":"address","name":"spender","type":"address"}],"name":"allowance","outputs":[{"internalType":"uint256","name":"","type":"uint256"}],"stateMutability":"view","type":"function"},{"inputs":[{"internalType":"address","name":"spender","type":"address"},{"internalType":"uint256","name":"value","type":"uint256"}],"name":"approve","outputs":[{"internalType":"bool","name":"","type":"bool"}],"stateMutability":"nonpayable","type":"function"},{"inputs":[],"name":"asset","outputs":[{"internalType":"contract IWcBTC","name":"","type":"address"}],"stateMutability":"view","type":"function"},{"inputs":[{"internalType":"address","name":"account","type":"address"}],"name":"balanceOf","outputs":[{"internalType":"uint256","name":"","type":"uint256"}],"stateMutability":"view","type":"function"},{"inputs":[{"internalType":"uint256","name":"shares","type":"uint256"}],"name":"convertToAssets","outputs":[{"internalType":"uint256","name":"","type":"uint256"}],"stateMutability":"view","type":"function"},{"inputs":[{"internalType":"uint256","name":"assets","type":"uint256"}],"name":"convertToShares","outputs":[{"internalType":"uint256","name":"","type":"uint256"}],"stateMutability":"view","type":"function"},{"inputs":[],"name":"decimals","outputs":[{"internalType":"uint8","name":"","type":"uint8"}],"stateMutability":"view","type":"function"},{"inputs":[{"internalType":"address","name":"receiver","type":"address"}],"name":"deposit","outputs":[],"stateMutability":"payable","type":"function"},{"inputs":[],"name":"getStrategies","outputs":[{"internalType":"uint256[]","name":"ids","type":"uint256[]"},{"components":[{"internalType":"contract IStrategy","name":"adapter","type":"address"},{"internalType":"uint16","name":"allocationBps","type":"uint16"},{"internalType":"bool","name":"enabled","type":"bool"}],"internalType":"struct LavaPortfolioVault.StrategyInfo[]","name":"infos","type":"tuple[]"}],"stateMutability":"view","type":"function"},{"inputs":[],"name":"name","outputs":[{"internalType":"string","name":"","type":"string"}],"stateMutability":"view","type":"function"},{"inputs":[],"name":"owner","outputs":[{"internalType":"address","name":"","type":"address"}],"stateMutability":"view","type":"function"},{"inputs":[],"name":"pause","outputs":[],"stateMutability":"nonpayable","type":"function"},{"inputs":[],"name":"paused","outputs":[{"internalType":"bool","name":"","type":"bool"}],"stateMutability":"view","type":"function"},{"inputs":[],"name":"renounceOwnership","outputs":[],"stateMutability":"nonpayable","type":"function"},{"inputs":[],"name":"reserveBps","outputs":[{"internalType":"uint16","name":"","type":"uint16"}],"stateMutability":"view","type":"function"},{"inputs":[{"internalType":"uint16","name":"bps","type":"uint16"}],"name":"setReserveBps","outputs":[],"stateMutability":"nonpayable","type":"function"},{"inputs":[{"internalType":"uint256","name":"id","type":"uint256"},{"internalType":"uint16","name":"bps","type":"uint16"},{"internalType":"bool","name":"enabled","type":"bool"}],"name":"setStrategy","outputs":[],"stateMutability":"nonpayable","type":"function"},{"inputs":[{"internalType":"uint256","name":"","type":"uint256"}],"name":"strategies","outputs":[{"internalType":"contract IStrategy","name":"adapter","type":"address"},{"internalType":"uint16","name":"allocationBps","type":"uint16"},{"internalType":"bool","name":"enabled","type":"bool"}],"stateMutability":"view","type":"function"},{"inputs":[{"internalType":"uint256","name":"","type":"uint256"}],"name":"strategyIds","outputs":[{"internalType":"uint256","name":"","type":"uint256"}],"stateMutability":"view","type":"function"},{"inputs":[],"name":"symbol","outputs":[{"internalType":"string","name":"","type":"string"}],"stateMutability":"view","type":"function"},{"inputs":[],"name":"totalAssets","outputs":[{"internalType":"uint256","name":"","type":"uint256"}],"stateMutability":"view","type":"function"},{"inputs":[],"name":"totalSupply","outputs":[{"internalType":"uint256","name":"","type":"uint256"}],"stateMutability":"view","type":"function"},{"inputs":[{"internalType":"address","name":"to","type":"address"},{"internalType":"uint256","name":"value","type":"uint256"}],"name":"transfer","outputs":[{"internalType":"bool","name":"","type":"bool"}],"stateMutability":"nonpayable","type":"function"},{"inputs":[{"internalType":"address","name":"from","type":"address"},{"internalType":"address","name":"to","type":"address"},{"internalType":"uint256","name":"value","type":"uint256"}],"name":"transferFrom","outputs":[{"internalType":"bool","name":"","type":"bool"}],"stateMutability":"nonpayable","type":"function"},{"inputs":[{"internalType":"address","name":"newOwner","type":"address"}],"name":"transferOwnership","outputs":[],"stateMutability":"nonpayable","type":"function"},{"inputs":[],"name":"unpause","outputs":[],"stateMutability":"nonpayable","type":"function"},{"inputs":[{"internalType":"uint256","name":"shares","type":"uint256"},{"internalType":"address","name":"receiver","type":"address"}],"name":"withdraw","outputs":[],"stateMutability":"nonpayable","type":"function"},{"stateMutability":"payable","type":"receive"}],"evm":{"bytecode":{"linkReferences":{},"object":"60a06040523480156200001157600080fd5b50604051620024743803806200247483398101604081905262000034916200017a565b336040518060400160405280601381526020017f4c61766120506f7274666f6c696f20634254430000000000000000000000000081525060405180604001604052806005815260200164706342544360d81b81525081600390816200009a91906200026f565b506004620000a982826200026f565b50506001600555506001600160a01b038116620000e057604051631e4fbdf760e01b81526000600482015260240160405180910390fd5b620000eb8162000120565b506001600160a01b039091166080526006805461ffff909216600160a81b0261ffff60a81b199092169190911790556200033b565b600680546001600160a01b03838116610100818102610100600160a81b031985161790945560405193909204169182907f8be0079c531659141344cd1fd0a4f28419497f9722a3daafe3b4186f6b6457e090600090a35050565b600080604083850312156200018e57600080fd5b82516001600160a01b0381168114620001a657600080fd5b602084015190925061ffff81168114620001bf57600080fd5b809150509250929050565b634e487b7160e01b600052604160045260246000fd5b600181811c90821680620001f557607f821691505b6020821081036200021657634e487b7160e01b600052602260045260246000fd5b50919050565b601f8211156200026a57600081815260208120601f850160051c81016020861015620002455750805b601f850160051c820191505b81811015620002665782815560010162000251565b5050505b505050565b81516001600160401b038111156200028b576200028b620001ca565b620002a3816200029c8454620001e0565b846200021c565b602080601f831160018114620002db5760008415620002c25750858301515b600019600386901b1c1916600185901b17855562000266565b600085815260208120601f198616915b828110156200030c57888601518255948401946001909101908401620002eb565b50858210156200032b5787850151600019600388901b60f8161c191681555b5050505050600190811b01905550565b6080516120fa6200037a60003960008181610365015281816106540152818161077e0152818161106201528181611196015261193f01526120fa6000f3fe6080604052600436106101c55760003560e01c806370a08231116100f7578063b49a60bb11610095578063d574ea3d11610064578063d574ea3d1461051d578063dd62ed3e14610595578063f2fde38b146105db578063f340fa01146105fb57600080fd5b8063b49a60bb146104a4578063c6e6f592146104c7578063ca1633a5146104e7578063d3cd52bc1461050757600080fd5b806388739805116100d1578063887398051461042c5780638da5cb5b1461044c57806395d89b411461046f578063a9059cbb1461048457600080fd5b806370a08231146103cc578063715018a6146104025780638456cb591461041757600080fd5b806323b872dd11610164578063389254491161013e578063389254491461031e57806338d52e0f146103535780633f4ba83a1461039f5780635c975abb146103b457600080fd5b806323b872dd146102c25780632dc1eaf0146102e2578063313ce5671461030257600080fd5b806307a2d13a116101a057806307a2d13a1461023d578063087a6ecd1461025d578063095ea7b31461027d57806318160ddd146102ad57600080fd5b8062f714ce146101d157806301e1d114146101f357806306fdde031461021b57600080fd5b366101cc57005b600080fd5b3480156101dd57600080fd5b506101f16101ec366004611caf565b61060e565b005b3480156101ff57600080fd5b5061020861075c565b6040519081526020015b60405180910390f35b34801561022757600080fd5b506102306108da565b6040516102129190611cdf565b34801561024957600080fd5b50610208610258366004611d2d565b61096c565b34801561026957600080fd5b506101f1610278366004611d5d565b6109ab565b34801561028957600080fd5b5061029d610298366004611d9b565b610b7b565b6040519015158152602001610212565b3480156102b957600080fd5b50600254610208565b3480156102ce57600080fd5b5061029d6102dd366004611dc7565b610b95565b3480156102ee57600080fd5b506102086102fd366004611d2d565b610bb9565b34801561030e57600080fd5b5060405160128152602001610212565b34801561032a57600080fd5b5060065461034090600160a81b900461ffff1681565b60405161ffff9091168152602001610212565b34801561035f57600080fd5b506103877f000000000000000000000000000000000000000000000000000000000000000081565b6040516001600160a01b039091168152602001610212565b3480156103ab57600080fd5b506101f1610bda565b3480156103c057600080fd5b5060065460ff1661029d565b3480156103d857600080fd5b506102086103e7366004611e08565b6001600160a01b031660009081526020819052604090205490565b34801561040e57600080fd5b506101f1610bec565b34801561042357600080fd5b506101f1610bfe565b34801561043857600080fd5b506101f1610447366004611e25565b610c0e565b34801561045857600080fd5b5060065461010090046001600160a01b0316610387565b34801561047b57600080fd5b50610230610ce2565b34801561049057600080fd5b5061029d61049f366004611d9b565b610cf1565b3480156104b057600080fd5b506104b9610cff565b604051610212929190611e40565b3480156104d357600080fd5b506102086104e2366004611d2d565b610e6c565b3480156104f357600080fd5b506101f1610502366004611eed565b610e92565b34801561051357600080fd5b5061034061271081565b34801561052957600080fd5b5061056b610538366004611d2d565b6007602052600090815260409020546001600160a01b03811690600160a01b810461ffff1690600160b01b900460ff1683565b604080516001600160a01b03909416845261ffff9092166020840152151590820152606001610212565b3480156105a157600080fd5b506102086105b0366004611f2d565b6001600160a01b03918216600090815260016020908152604080832093909416825291909152205490565b3480156105e757600080fd5b506101f16105f6366004611e08565b610fd4565b6101f1610609366004611e08565b611012565b6106166110fa565b61061e611124565b60006106298361096c565b90506106353384611148565b61063e8161117e565b604051632e1a7d4d60e01b8152600481018290527f00000000000000000000000000000000000000000000000000000000000000006001600160a01b031690632e1a7d4d90602401600060405180830381600087803b1580156106a057600080fd5b505af11580156106b4573d6000803e3d6000fd5b505050506000826001600160a01b03168260405160006040518083038185875af1925050503d8060008114610705576040519150601f19603f3d011682016040523d82523d6000602084013e61070a565b606091505b505090508061074c5760405162461bcd60e51b81526020600482015260096024820152681cd95b990819985a5b60ba1b60448201526064015b60405180910390fd5b50506107586001600555565b5050565b6040516370a0823160e01b815230600482015260009081906001600160a01b037f000000000000000000000000000000000000000000000000000000000000000016906370a0823190602401602060405180830381865afa1580156107c5573d6000803e3d6000fd5b505050506040513d601f19601f820116820180604052508101906107e99190611f5b565b905060005b6008548110156108d4576000600760006008848154811061081157610811611f74565b9060005260206000200154815260200190815260200160002090508060000160169054906101000a900460ff1661084857506108c2565b8054604080516278744560e21b815290516001600160a01b03909216916301e1d114916004808201926020929091908290030181865afa158015610890573d6000803e3d6000fd5b505050506040513d601f19601f820116820180604052508101906108b49190611f5b565b6108be9084611fa0565b9250505b806108cc81611fb3565b9150506107ee565b50919050565b6060600380546108e990611fcc565b80601f016020809104026020016040519081016040528092919081815260200182805461091590611fcc565b80156109625780601f1061093757610100808354040283529160200191610962565b820191906000526020600020905b81548152906001019060200180831161094557829003601f168201915b5050505050905090565b60008061097860025490565b905080156109a2578061098961075c565b6109939085612000565b61099d9190612017565b6109a4565b825b9392505050565b6109b361157e565b6001600160a01b0382166109f25760405162461bcd60e51b8152600401610743906020808252600490820152637a65726f60e01b604082015260600190565b600083815260076020526040902054600160b01b900460ff1615610a415760405162461bcd60e51b815260206004820152600660248201526565786973747360d01b6044820152606401610743565b600654610a5b90600160a81b900461ffff16612710612039565b61ffff168161ffff16610a6c6115b1565b610a769190611fa0565b1115610a945760405162461bcd60e51b81526004016107439061205b565b604080516060810182526001600160a01b0384811680835261ffff8581166020808601828152600187890181815260008d8152600785528a812099518a54945192511515600160b01b0260ff60b01b1993909816600160a01b026001600160b01b03199095169916989098179290921791909116939093179095556008805492830181559093527ff3f7a9fe364faab93b216da50a3214154f22a0a2b415b23a84c8169e8b636ee30187905583519081529182015284917f6e0b2579a4877bdb6f9bec8ac3820b872cc0089963a51dbf3c4d28c178388502910160405180910390a2505050565b600033610b89818585611620565b60019150505b92915050565b600033610ba3858285611632565b610bae8585856116b1565b506001949350505050565b60088181548110610bc957600080fd5b600091825260209091200154905081565b610be261157e565b610bea611710565b565b610bf461157e565b610bea6000611762565b610c0661157e565b610bea6117bc565b610c1661157e565b61271061ffff82161115610c565760405162461bcd60e51b81526020600482015260076024820152666261642062707360c81b6044820152606401610743565b610c6281612710612039565b61ffff16610c6e6115b1565b1115610c8c5760405162461bcd60e51b81526004016107439061205b565b6006805461ffff60a81b1916600160a81b61ffff8416908102919091179091556040519081527f22cc6f1617f0282fc39975dac0cacc7cdb1a35e723b2cafb3e5185fa307346d99060200160405180910390a150565b6060600480546108e990611fcc565b600033610b898185856116b1565b6060806008805480602002602001604051908101604052809291908181526020018280548015610d4e57602002820191906000526020600020905b815481526020019060010190808311610d3a575b50505050509150815167ffffffffffffffff811115610d6f57610d6f61207e565b604051908082528060200260200182016040528015610dba57816020015b6040805160608101825260008082526020808301829052928201528252600019909201910181610d8d5790505b50905060005b8251811015610e675760076000848381518110610ddf57610ddf611f74565b6020908102919091018101518252818101929092526040908101600020815160608101835290546001600160a01b0381168252600160a01b810461ffff1693820193909352600160b01b90920460ff161515908201528251839083908110610e4957610e49611f74565b60200260200101819052508080610e5f90611fb3565b915050610dc0565b509091565b600080610e7860025490565b905080156109a257610e8861075c565b6109938285612000565b610e9a61157e565b600083815260076020526040902080546001600160a01b0316610eea5760405162461bcd60e51b81526020600482015260086024820152671b9bc81cdd1c985d60c21b6044820152606401610743565b6000610ef46115b1565b825490915061ffff80861691610f1391600160a01b9091041683612094565b610f1d9190611fa0565b600654909150610f3a90600160a81b900461ffff16612710612039565b61ffff16811115610f5d5760405162461bcd60e51b81526004016107439061205b565b815462ffffff60a01b1916600160a01b61ffff861690810260ff60b01b191691909117600160b01b85151590810291909117845560408051928352602083019190915286917ffd72eaf6485232e6503fead983f945b6d9bfec1fe1e626050169cf03a416f13a910160405180910390a25050505050565b610fdc61157e565b6001600160a01b03811661100657604051631e4fbdf760e01b815260006004820152602401610743565b61100f81611762565b50565b61101a6110fa565b611022611124565b6000341161105b5760405162461bcd60e51b8152600401610743906020808252600490820152637a65726f60e01b604082015260600190565b60003490507f00000000000000000000000000000000000000000000000000000000000000006001600160a01b031663d0e30db0826040518263ffffffff1660e01b81526004016000604051808303818588803b1580156110bb57600080fd5b505af11580156110cf573d6000803e3d6000fd5b50505050506110e6826110e183610e6c565b6117f9565b6110ef8161182f565b5061100f6001600555565b60026005540361111d57604051633ee5aeb560e01b815260040160405180910390fd5b6002600555565b60065460ff1615610bea5760405163d93c066560e01b815260040160405180910390fd5b6001600160a01b03821661117257604051634b637e8f60e11b815260006004820152602401610743565b61075882600083611a78565b6040516370a0823160e01b81523060048201526000907f00000000000000000000000000000000000000000000000000000000000000006001600160a01b0316906370a0823190602401602060405180830381865afa1580156111e5573d6000803e3d6000fd5b505050506040513d601f19601f820116820180604052508101906112099190611f5b565b9050818110611216575050565b60006112228284612094565b905060008060088054905067ffffffffffffffff8111156112455761124561207e565b60405190808252806020026020018201604052801561126e578160200160208202803683370190505b50905060005b60085481101561139b576000600760006008848154811061129757611297611f74565b9060005260206000200154815260200190815260200160002090508060000160169054906101000a900460ff166112ee5760008383815181106112dc576112dc611f74565b60200260200101818152505050611389565b8054604080516278744560e21b815290516000926001600160a01b0316916301e1d1149160048083019260209291908290030181865afa158015611336573d6000803e3d6000fd5b505050506040513d601f19601f8201168201806040525081019061135a9190611f5b565b90508084848151811061136f5761136f611f74565b60209081029190910101526113848186611fa0565b945050505b8061139381611fb3565b915050611274565b50816000036113ab575050505050565b60005b600854811080156113bf5750600084115b1561157657600060076000600884815481106113dd576113dd611f74565b9060005260206000200154815260200190815260200160002090508060000160169054906101000a900460ff16158061142f575082828151811061142357611423611f74565b60200260200101516000145b1561143a5750611564565b60008484848151811061144f5761144f611f74565b6020026020010151876114629190612000565b61146c9190612017565b90508060000361147d575050611564565b8154604051638ca1799560e01b8152600481018390526000916001600160a01b031690638ca17995906024016020604051808303816000875af11580156114c8573d6000803e3d6000fd5b505050506040513d601f19601f820116820180604052508101906114ec9190611f5b565b90506008848154811061150157611501611f74565b90600052602060002001547f8680a71cfa86428ce43ebbc95f68bf763d38694cae4a4dd81178ebbb8fffba788260405161153d91815260200190565b60405180910390a286811061155457505050611576565b61155e8188612094565b96505050505b8061156e81611fb3565b9150506113ae565b505050505050565b6006546001600160a01b03610100909104163314610bea5760405163118cdaa760e01b8152336004820152602401610743565b6000805b60085481101561161c5760076000600883815481106115d6576115d6611f74565b600091825260208083209091015483528201929092526040019020546116089061ffff600160a01b9091041683611fa0565b91508061161481611fb3565b9150506115b5565b5090565b61162d8383836001611ba2565b505050565b6001600160a01b038381166000908152600160209081526040808320938616835292905220546000198110156116ab578181101561169c57604051637dc7a0d960e11b81526001600160a01b03841660048201526024810182905260448101839052606401610743565b6116ab84848484036000611ba2565b50505050565b6001600160a01b0383166116db57604051634b637e8f60e11b815260006004820152602401610743565b6001600160a01b0382166117055760405163ec442f0560e01b815260006004820152602401610743565b61162d838383611a78565b611718611c77565b6006805460ff191690557f5db9ee0a495bf2e6ff9c91a7834c1ba4fdd244a5e8aa4e537bd38aeae4b073aa335b6040516001600160a01b03909116815260200160405180910390a1565b600680546001600160a01b03838116610100818102610100600160a81b031985161790945560405193909204169182907f8be0079c531659141344cd1fd0a4f28419497f9722a3daafe3b4186f6b6457e090600090a35050565b6117c4611124565b6006805460ff191660011790557f62e78cea01bee320cd4e420270b5ea74000d11b0c9f74754ebdbfc544b05a2586117453390565b6001600160a01b0382166118235760405163ec442f0560e01b815260006004820152602401610743565b61075860008383611a78565b6006546000906127109061184e90600160a81b900461ffff1684612000565b6118589190612017565b905060006118668284612094565b905060005b6008548110156116ab576000600760006008848154811061188e5761188e611f74565b9060005260206000200154815260200190815260200160002090508060000160169054906101000a900460ff1615806118d157508054600160a01b900461ffff16155b156118dc5750611a66565b8054600090612710906118fa90600160a01b900461ffff1688612000565b6119049190612017565b9050838111156119115750825b8015611a6357815460405163a9059cbb60e01b81526001600160a01b039182166004820152602481018390527f00000000000000000000000000000000000000000000000000000000000000009091169063a9059cbb906044016020604051808303816000875af115801561198a573d6000803e3d6000fd5b505050506040513d601f19601f820116820180604052508101906119ae91906120a7565b5081546040516255f9e960e71b8152600481018390526001600160a01b0390911690632afcf48090602401600060405180830381600087803b1580156119f357600080fd5b505af1158015611a07573d6000803e3d6000fd5b5050505060088381548110611a1e57611a1e611f74565b90600052602060002001547fb99956c8203b7677de254bac7df707c62197037d108739a8702bb91ee3e492c982604051611a5a91815260200190565b60405180910390a25b50505b80611a7081611fb3565b91505061186b565b6001600160a01b038316611aa3578060026000828254611a989190611fa0565b90915550611b159050565b6001600160a01b03831660009081526020819052604090205481811015611af65760405163391434e360e21b81526001600160a01b03851660048201526024810182905260448101839052606401610743565b6001600160a01b03841660009081526020819052604090209082900390555b6001600160a01b038216611b3157600280548290039055611b50565b6001600160a01b03821660009081526020819052604090208054820190555b816001600160a01b0316836001600160a01b03167fddf252ad1be2c89b69c2b068fc378daa952ba7f163c4a11628f55a4df523b3ef83604051611b9591815260200190565b60405180910390a3505050565b6001600160a01b038416611bcc5760405163e602df0560e01b815260006004820152602401610743565b6001600160a01b038316611bf657604051634a1406b160e11b815260006004820152602401610743565b6001600160a01b03808516600090815260016020908152604080832093871683529290522082905580156116ab57826001600160a01b0316846001600160a01b03167f8c5be1e5ebec7d5bd14f71427d1e84f3dd0314c0f7b2291e5b200ac8c7c3b92584604051611c6991815260200190565b60405180910390a350505050565b60065460ff16610bea57604051638dfc202b60e01b815260040160405180910390fd5b6001600160a01b038116811461100f57600080fd5b60008060408385031215611cc257600080fd5b823591506020830135611cd481611c9a565b809150509250929050565b600060208083528351808285015260005b81811015611d0c57858101830151858201604001528201611cf0565b506000604082860101526040601f19601f8301168501019250505092915050565b600060208284031215611d3f57600080fd5b5035919050565b803561ffff81168114611d5857600080fd5b919050565b600080600060608486031215611d7257600080fd5b833592506020840135611d8481611c9a565b9150611d9260408501611d46565b90509250925092565b60008060408385031215611dae57600080fd5b8235611db981611c9a565b946020939093013593505050565b600080600060608486031215611ddc57600080fd5b8335611de781611c9a565b92506020840135611df781611c9a565b929592945050506040919091013590565b600060208284031215611e1a57600080fd5b81356109a481611c9a565b600060208284031215611e3757600080fd5b6109a482611d46565b6040808252835182820181905260009190606090818501906020808901865b83811015611e7b57815185529382019390820190600101611e5f565b5050868303818801528751808452888201938201925060005b81811015611ed057845180516001600160a01b031685528381015161ffff16848601528701511515878501529382019392850192600101611e94565b50919998505050505050505050565b801515811461100f57600080fd5b600080600060608486031215611f0257600080fd5b83359250611f1260208501611d46565b91506040840135611f2281611edf565b809150509250925092565b60008060408385031215611f4057600080fd5b8235611f4b81611c9a565b91506020830135611cd481611c9a565b600060208284031215611f6d57600080fd5b5051919050565b634e487b7160e01b600052603260045260246000fd5b634e487b7160e01b600052601160045260246000fd5b80820180821115610b8f57610b8f611f8a565b600060018201611fc557611fc5611f8a565b5060010190565b600181811c90821680611fe057607f821691505b6020821081036108d457634e487b7160e01b600052602260045260246000fd5b8082028115828204841417610b8f57610b8f611f8a565b60008261203457634e487b7160e01b600052601260045260246000fd5b500490565b61ffff82811682821603908082111561205457612054611f8a565b5092915050565b6020808252600990820152680616c6c6f633e6361760bc1b604082015260600190565b634e487b7160e01b600052604160045260246000fd5b81810381811115610b8f57610b8f611f8a565b6000602082840312156120b957600080fd5b81516109a481611edf56fea26469706673582212200c46949650f05717ec478e941dcf4e0badf9572302f02719169d5d7b63fca68664736f6c63430008140033","opcodes":"PUSH1 0xA0 PUSH1 0x40 MSTORE CALLVALUE DUP1 ISZERO PUSH3 0x11 JUMPI PUSH1 0x0 DUP1 REVERT JUMPDEST POP PUSH1 0x40 MLOAD PUSH3 0x2474 CODESIZE SUB DUP1 PUSH3 0x2474 DUP4 CODECOPY DUP2 ADD PUSH1 0x40 DUP2 SWAP1 MSTORE PUSH3 0x34 SWAP2 PUSH3 0x17A JUMP JUMPDEST CALLER PUSH1 0x40 MLOAD DUP1 PUSH1 0x40 ADD PUSH1 0x40 MSTORE DUP1 PUSH1 0x13 DUP2 MSTORE PUSH1 0x20 ADD PUSH32 0x4C61766120506F7274666F6C696F206342544300000000000000000000000000 DUP2 MSTORE POP PUSH1 0x40 MLOAD DUP1 PUSH1 0x40 ADD PUSH1 0x40 MSTORE DUP1 PUSH1 0x5 DUP2 MSTORE PUSH1 0x20 ADD PUSH5 0x7063425443 PUSH1 0xD8 SHL DUP2 MSTORE POP DUP2 PUSH1 0x3 SWAP1 DUP2 PUSH3 0x9A SWAP2 SWAP1 PUSH3 0x26F JUMP JUMPDEST POP PUSH1 0x4 PUSH3 0xA9 DUP3 DUP3 PUSH3 0x26F JUMP JUMPDEST POP POP PUSH1 0x1 PUSH1 0x5 SSTORE POP PUSH1 0x1 PUSH1 0x1 PUSH1 0xA0 SHL SUB DUP2 AND PUSH3 0xE0 JUMPI PUSH1 0x40 MLOAD PUSH4 0x1E4FBDF7 PUSH1 0xE0 SHL DUP2 MSTORE PUSH1 0x0 PUSH1 0x4 DUP3 ADD MSTORE PUSH1 0x24 ADD PUSH1 0x40 MLOAD DUP1 SWAP2 SUB SWAP1 REVERT JUMPDEST PUSH3 0xEB DUP2 PUSH3 0x120 JUMP JUMPDEST POP PUSH1 0x1 PUSH1 0x1 PUSH1 0xA0 SHL SUB SWAP1 SWAP2 AND PUSH1 0x80 MSTORE PUSH1 0x6 DUP1 SLOAD PUSH2 0xFFFF SWAP1 SWAP3 AND PUSH1 0x1 PUSH1 0xA8 SHL MUL PUSH2 0xFFFF PUSH1 0xA8 SHL NOT SWAP1 SWAP3 AND SWAP2 SWAP1 SWAP2 OR SWAP1 SSTORE PUSH3 0x33B JUMP JUMPDEST PUSH1 0x6 DUP1 SLOAD PUSH1 0x1 PUSH1 0x1 PUSH1 0xA0 SHL SUB DUP4 DUP2 AND PUSH2 0x100 DUP2 DUP2 MUL PUSH2 0x100 PUSH1 0x1 PUSH1 0xA8 SHL SUB NOT DUP6 AND OR SWAP1 SWAP5 SSTORE PUSH1 0x40 MLOAD SWAP4 SWAP1 SWAP3 DIV AND SWAP2 DUP3 SWAP1 PUSH32 0x8BE0079C531659141344CD1FD0A4F28419497F9722A3DAAFE3B4186F6B6457E0 SWAP1 PUSH1 0x0 SWAP1 LOG3 POP POP JUMP JUMPDEST PUSH1 0x0 DUP1 PUSH1 0x40 DUP4 DUP6 SUB SLT ISZERO PUSH3 0x18E JUMPI PUSH1 0x0 DUP1 REVERT JUMPDEST DUP3 MLOAD PUSH1 0x1 PUSH1 0x1 PUSH1 0xA0 SHL SUB DUP2 AND DUP2 EQ PUSH3 0x1A6 JUMPI PUSH1 0x0 DUP1 REVERT JUMPDEST PUSH1 0x20 DUP5 ADD MLOAD SWAP1 SWAP3 POP PUSH2 0xFFFF DUP2 AND DUP2 EQ PUSH3 0x1BF JUMPI PUSH1 0x0 DUP1 REVERT JUMPDEST DUP1 SWAP2 POP POP SWAP3 POP SWAP3 SWAP1 POP JUMP JUMPDEST PUSH4 0x4E487B71 PUSH1 0xE0 SHL PUSH1 0x0 MSTORE PUSH1 0x41 PUSH1 0x4 MSTORE PUSH1 0x24 PUSH1 0x0 REVERT JUMPDEST PUSH1 0x1 DUP2 DUP2 SHR SWAP1 DUP3 AND DUP1 PUSH3 0x1F5 JUMPI PUSH1 0x7F DUP3 AND SWAP2 POP JUMPDEST PUSH1 0x20 DUP3 LT DUP2 SUB PUSH3 0x216 JUMPI PUSH4 0x4E487B71 PUSH1 0xE0 SHL PUSH1 0x0 MSTORE PUSH1 0x22 PUSH1 0x4 MSTORE PUSH1 0x24 PUSH1 0x0 REVERT JUMPDEST POP SWAP2 SWAP1 POP JUMP JUMPDEST PUSH1 0x1F DUP3 GT ISZERO PUSH3 0x26A JUMPI PUSH1 0x0 DUP2 DUP2 MSTORE PUSH1 0x20 DUP2 KECCAK256 PUSH1 0x1F DUP6 ADD PUSH1 0x5 SHR DUP2 ADD PUSH1 0x20 DUP7 LT ISZERO PUSH3 0x245 JUMPI POP DUP1 JUMPDEST PUSH1 0x1F DUP6 ADD PUSH1 0x5 SHR DUP3 ADD SWAP2 POP JUMPDEST DUP2 DUP2 LT ISZERO PUSH3 0x266 JUMPI DUP3 DUP2 SSTORE PUSH1 0x1 ADD PUSH3 0x251 JUMP JUMPDEST POP POP POP JUMPDEST POP POP POP JUMP JUMPDEST DUP2 MLOAD PUSH1 0x1 PUSH1 0x1 PUSH1 0x40 SHL SUB DUP2 GT ISZERO PUSH3 0x28B JUMPI PUSH3 0x28B PUSH3 0x1CA JUMP JUMPDEST PUSH3 0x2A3 DUP2 PUSH3 0x29C DUP5 SLOAD PUSH3 0x1E0 JUMP JUMPDEST DUP5 PUSH3 0x21C JUMP JUMPDEST PUSH1 0x20 DUP1 PUSH1 0x1F DUP4 GT PUSH1 0x1 DUP2 EQ PUSH3 0x2DB JUMPI PUSH1 0x0 DUP5 ISZERO PUSH3 0x2C2 JUMPI POP DUP6 DUP4 ADD MLOAD JUMPDEST PUSH1 0x0 NOT PUSH1 0x3 DUP7 SWAP1 SHL SHR NOT AND PUSH1 0x1 DUP6 SWAP1 SHL OR DUP6 SSTORE PUSH3 0x266 JUMP JUMPDEST PUSH1 0x0 DUP6 DUP2 MSTORE PUSH1 0x20 DUP2 KECCAK256 PUSH1 0x1F NOT DUP7 AND SWAP2 JUMPDEST DUP3 DUP2 LT ISZERO PUSH3 0x30C JUMPI DUP9 DUP7 ADD MLOAD DUP3 SSTORE SWAP5 DUP5 ADD SWAP5 PUSH1 0x1 SWAP1 SWAP2 ADD SWAP1 DUP5 ADD PUSH3 0x2EB JUMP JUMPDEST POP DUP6 DUP3 LT ISZERO PUSH3 0x32B JUMPI DUP8 DUP6 ADD MLOAD PUSH1 0x0 NOT PUSH1 0x3 DUP9 SWAP1 SHL PUSH1 0xF8 AND SHR NOT AND DUP2 SSTORE JUMPDEST POP POP POP POP POP PUSH1 0x1 SWAP1 DUP2 SHL ADD SWAP1 SSTORE POP JUMP JUMPDEST PUSH1 0x80 MLOAD PUSH2 0x20FA PUSH3 0x37A PUSH1 0x0 CODECOPY PUSH1 0x0 DUP2 DUP2 PUSH2 0x365 ADD MSTORE DUP2 DUP2 PUSH2 0x654 ADD MSTORE DUP2 DUP2 PUSH2 0x77E ADD MSTORE DUP2 DUP2 PUSH2 0x1062 ADD MSTORE DUP2 DUP2 PUSH2 0x1196 ADD MSTORE PUSH2 0x193F ADD MSTORE PUSH2 0x20FA PUSH1 0x0 RETURN INVALID PUSH1 0x80 PUSH1 0x40 MSTORE PUSH1 0x4 CALLDATASIZE LT PUSH2 0x1C5 JUMPI PUSH1 0x0 CALLDATALOAD PUSH1 0xE0 SHR DUP1 PUSH4 0x70A08231 GT PUSH2 0xF7 JUMPI DUP1 PUSH4 0xB49A60BB GT PUSH2 0x95 JUMPI DUP1 PUSH4 0xD574EA3D GT PUSH2 0x64 JUMPI DUP1 PUSH4 0xD574EA3D EQ PUSH2 0x51D JUMPI DUP1 PUSH4 0xDD62ED3E EQ PUSH2 0x595 JUMPI DUP1 PUSH4 0xF2FDE38B EQ PUSH2 0x5DB JUMPI DUP1 PUSH4 0xF340FA01 EQ PUSH2 0x5FB JUMPI PUSH1 0x0 DUP1 REVERT JUMPDEST DUP1 PUSH4 0xB49A60BB EQ PUSH2 0x4A4 JUMPI DUP1 PUSH4 0xC6E6F592 EQ PUSH2 0x4C7 JUMPI DUP1 PUSH4 0xCA1633A5 EQ PUSH2 0x4E7 JUMPI DUP1 PUSH4 0xD3CD52BC EQ PUSH2 0x507 JUMPI PUSH1 0x0 DUP1 REVERT JUMPDEST DUP1 PUSH4 0x88739805 GT PUSH2 0xD1 JUMPI DUP1 PUSH4 0x88739805 EQ PUSH2 0x42C JUMPI DUP1 PUSH4 0x8DA5CB5B EQ PUSH2 0x44C JUMPI DUP1 PUSH4 0x95D89B41 EQ PUSH2 0x46F JUMPI DUP1 PUSH4 0xA9059CBB EQ PUSH2 0x484 JUMPI PUSH1 0x0 DUP1 REVERT JUMPDEST DUP1 PUSH4 0x70A08231 EQ PUSH2 0x3CC JUMPI DUP1 PUSH4 0x715018A6 EQ PUSH2 0x402 JUMPI DUP1 PUSH4 0x8456CB59 EQ PUSH2 0x417 JUMPI PUSH1 0x0 DUP1 REVERT JUMPDEST DUP1 PUSH4 0x23B872DD GT PUSH2 0x164 JUMPI DUP1 PUSH4 0x38925449 GT PUSH2 0x13E JUMPI DUP1 PUSH4 0x38925449 EQ PUSH2 0x31E JUMPI DUP1 PUSH4 0x38D52E0F EQ PUSH2 0x353 JUMPI DUP1 PUSH4 0x3F4BA83A EQ PUSH2 0x39F JUMPI DUP1 PUSH4 0x5C975ABB EQ PUSH2 0x3B4 JUMPI PUSH1 0x0 DUP1 REVERT JUMPDEST DUP1 PUSH4 0x23B872DD EQ PUSH2 0x2C2 JUMPI DUP1 PUSH4 0x2DC1EAF0 EQ PUSH2 0x2E2 JUMPI DUP1 PUSH4 0x313CE567 EQ PUSH2 0x302 JUMPI PUSH1 0x0 DUP1 REVERT JUMPDEST DUP1 PUSH4 0x7A2D13A GT PUSH2 0x1A0 JUMPI DUP1 PUSH4 0x7A2D13A EQ PUSH2 0x23D JUMPI DUP1 PUSH4 0x87A6ECD EQ PUSH2 0x25D JUMPI DUP1 PUSH4 0x95EA7B3 EQ PUSH2 0x27D JUMPI DUP1 PUSH4 0x18160DDD EQ PUSH2 0x2AD JUMPI PUSH1 0x0 DUP1 REVERT JUMPDEST DUP1 PUSH3 0xF714CE EQ PUSH2 0x1D1 JUMPI DUP1 PUSH4 0x1E1D114 EQ PUSH2 0x1F3 JUMPI DUP1 PUSH4 0x6FDDE03 EQ PUSH2 0x21B JUMPI PUSH1 0x0 DUP1 REVERT JUMPDEST CALLDATASIZE PUSH2 0x1CC JUMPI STOP JUMPDEST PUSH1 0x0 DUP1 REVERT JUMPDEST CALLVALUE DUP1 ISZERO PUSH2 0x1DD JUMPI PUSH1 0x0 DUP1 REVERT JUMPDEST POP PUSH2 0x1F1 PUSH2 0x1EC CALLDATASIZE PUSH1 0x4 PUSH2 0x1CAF JUMP JUMPDEST PUSH2 0x60E JUMP JUMPDEST STOP JUMPDEST CALLVALUE DUP1 ISZERO PUSH2 0x1FF JUMPI PUSH1 0x0 DUP1 REVERT JUMPDEST POP PUSH2 0x208 PUSH2 0x75C JUMP JUMPDEST PUSH1 0x40 MLOAD SWAP1 DUP2 MSTORE PUSH1 0x20 ADD JUMPDEST PUSH1 0x40 MLOAD DUP1 SWAP2 SUB SWAP1 RETURN JUMPDEST CALLVALUE DUP1 ISZERO PUSH2 0x227 JUMPI PUSH1 0x0 DUP1 REVERT JUMPDEST POP PUSH2 0x230 PUSH2 0x8DA JUMP JUMPDEST PUSH1 0x40 MLOAD PUSH2 0x212 SWAP2 SWAP1 PUSH2 0x1CDF JUMP JUMPDEST CALLVALUE DUP1 ISZERO PUSH2 0x249 JUMPI PUSH1 0x0 DUP1 REVERT JUMPDEST POP PUSH2 0x208 PUSH2 0x258 CALLDATASIZE PUSH1 0x4 PUSH2 0x1D2D JUMP JUMPDEST PUSH2 0x96C JUMP JUMPDEST CALLVALUE DUP1 ISZERO PUSH2 0x269 JUMPI PUSH1 0x0 DUP1 REVERT JUMPDEST POP PUSH2 0x1F1 PUSH2 0x278 CALLDATASIZE PUSH1 0x4 PUSH2 0x1D5D JUMP JUMPDEST PUSH2 0x9AB JUMP JUMPDEST CALLVALUE DUP1 ISZERO PUSH2 0x289 JUMPI PUSH1 0x0 DUP1 REVERT JUMPDEST POP PUSH2 0x29D PUSH2 0x298 CALLDATASIZE PUSH1 0x4 PUSH2 0x1D9B JUMP JUMPDEST PUSH2 0xB7B JUMP JUMPDEST PUSH1 0x40 MLOAD SWAP1 ISZERO ISZERO DUP2 MSTORE PUSH1 0x20 ADD PUSH2 0x212 JUMP JUMPDEST CALLVALUE DUP1 ISZERO PUSH2 0x2B9 JUMPI PUSH1 0x0 DUP1 REVERT JUMPDEST POP PUSH1 0x2 SLOAD PUSH2 0x208 JUMP JUMPDEST CALLVALUE DUP1 ISZERO PUSH2 0x2CE JUMPI PUSH1 0x0 DUP1 REVERT JUMPDEST POP PUSH2 0x29D PUSH2 0x2DD CALLDATASIZE PUSH1 0x4 PUSH2 0x1DC7 JUMP JUMPDEST PUSH2 0xB95 JUMP JUMPDEST CALLVALUE DUP1 ISZERO PUSH2 0x2EE JUMPI PUSH1 0x0 DUP1 REVERT JUMPDEST POP PUSH2 0x208 PUSH2 0x2FD CALLDATASIZE PUSH1 0x4 PUSH2 0x1D2D JUMP JUMPDEST PUSH2 0xBB9 JUMP JUMPDEST CALLVALUE DUP1 ISZERO PUSH2 0x30E JUMPI PUSH1 0x0 DUP1 REVERT JUMPDEST POP PUSH1 0x40 MLOAD PUSH1 0x12 DUP2 MSTORE PUSH1 0x20 ADD PUSH2 0x212 JUMP JUMPDEST CALLVALUE DUP1 ISZERO PUSH2 0x32A JUMPI PUSH1 0x0 DUP1 REVERT JUMPDEST POP PUSH1 0x6 SLOAD PUSH2 0x340 SWAP1 PUSH1 0x1 PUSH1 0xA8 SHL SWAP1 DIV PUSH2 0xFFFF AND DUP2 JUMP JUMPDEST PUSH1 0x40 MLOAD PUSH2 0xFFFF SWAP1 SWAP2 AND DUP2 MSTORE PUSH1 0x20 ADD PUSH2 0x212 JUMP JUMPDEST CALLVALUE DUP1 ISZERO PUSH2 0x35F JUMPI PUSH1 0x0 DUP1 REVERT JUMPDEST POP PUSH2 0x387 PUSH32 0x0 DUP2 JUMP JUMPDEST PUSH1 0x40 MLOAD PUSH1 0x1 PUSH1 0x1 PUSH1 0xA0 SHL SUB SWAP1 SWAP2 AND DUP2 MSTORE PUSH1 0x20 ADD PUSH2 0x212 JUMP JUMPDEST CALLVALUE DUP1 ISZERO PUSH2 0x3AB JUMPI PUSH1 0x0 DUP1 REVERT JUMPDEST POP PUSH2 0x1F1 PUSH2 0xBDA JUMP JUMPDEST CALLVALUE DUP1 ISZERO PUSH2 0x3C0 JUMPI PUSH1 0x0 DUP1 REVERT JUMPDEST POP PUSH1 0x6 SLOAD PUSH1 0xFF AND PUSH2 0x29D JUMP JUMPDEST CALLVALUE DUP1 ISZERO PUSH2 0x3D8 JUMPI PUSH1 0x0 DUP1 REVERT JUMPDEST POP PUSH2 0x208 PUSH2 0x3E7 CALLDATASIZE PUSH1 0x4 PUSH2 0x1E08 JUMP JUMPDEST PUSH1 0x1 PUSH1 0x1 PUSH1 0xA0 SHL SUB AND PUSH1 0x0 SWAP1 DUP2 MSTORE PUSH1 0x20 DUP2 SWAP1 MSTORE PUSH1 0x40 SWAP1 KECCAK256 SLOAD SWAP1 JUMP JUMPDEST CALLVALUE DUP1 ISZERO PUSH2 0x40E JUMPI PUSH1 0x0 DUP1 REVERT JUMPDEST POP PUSH2 0x1F1 PUSH2 0xBEC JUMP JUMPDEST CALLVALUE DUP1 ISZERO PUSH2 0x423 JUMPI PUSH1 0x0 DUP1 REVERT JUMPDEST POP PUSH2 0x1F1 PUSH2 0xBFE JUMP JUMPDEST CALLVALUE DUP1 ISZERO PUSH2 0x438 JUMPI PUSH1 0x0 DUP1 REVERT JUMPDEST POP PUSH2 0x1F1 PUSH2 0x447 CALLDATASIZE PUSH1 0x4 PUSH2 0x1E25 JUMP JUMPDEST PUSH2 0xC0E JUMP JUMPDEST CALLVALUE DUP1 ISZERO PUSH2 0x458 JUMPI PUSH1 0x0 DUP1 REVERT JUMPDEST POP PUSH1 0x6 SLOAD PUSH2 0x100 SWAP1 DIV PUSH1 0x1 PUSH1 0x1 PUSH1 0xA0 SHL SUB AND PUSH2 0x387 JUMP JUMPDEST CALLVALUE DUP1 ISZERO PUSH2 0x47B JUMPI PUSH1 0x0 DUP1 REVERT JUMPDEST POP PUSH2 0x230 PUSH2 0xCE2 JUMP JUMPDEST CALLVALUE DUP1 ISZERO PUSH2 0x490 JUMPI PUSH1 0x0 DUP1 REVERT JUMPDEST POP PUSH2 0x29D PUSH2 0x49F CALLDATASIZE PUSH1 0x4 PUSH2 0x1D9B JUMP JUMPDEST PUSH2 0xCF1 JUMP JUMPDEST CALLVALUE DUP1 ISZERO PUSH2 0x4B0 JUMPI PUSH1 0x0 DUP1 REVERT JUMPDEST POP PUSH2 0x4B9 PUSH2 0xCFF JUMP JUMPDEST PUSH1 0x40 MLOAD PUSH2 0x212 SWAP3 SWAP2 SWAP1 PUSH2 0x1E40 JUMP JUMPDEST CALLVALUE DUP1 ISZERO PUSH2 0x4D3 JUMPI PUSH1 0x0 DUP1 REVERT JUMPDEST POP PUSH2 0x208 PUSH2 0x4E2 CALLDATASIZE PUSH1 0x4 PUSH2 0x1D2D JUMP JUMPDEST PUSH2 0xE6C JUMP JUMPDEST CALLVALUE DUP1 ISZERO PUSH2 0x4F3 JUMPI PUSH1 0x0 DUP1 REVERT JUMPDEST POP PUSH2 0x1F1 PUSH2 0x502 CALLDATASIZE PUSH1 0x4 PUSH2 0x1EED JUMP JUMPDEST PUSH2 0xE92 JUMP JUMPDEST CALLVALUE DUP1 ISZERO PUSH2 0x513 JUMPI PUSH1 0x0 DUP1 REVERT JUMPDEST POP PUSH2 0x340 PUSH2 0x2710 DUP2 JUMP JUMPDEST CALLVALUE DUP1 ISZERO PUSH2 0x529 JUMPI PUSH1 0x0 DUP1 REVERT JUMPDEST POP PUSH2 0x56B PUSH2 0x538 CALLDATASIZE PUSH1 0x4 PUSH2 0x1D2D JUMP JUMPDEST PUSH1 0x7 PUSH1 0x20 MSTORE PUSH1 0x0 SWAP1 DUP2 MSTORE PUSH1 0x40 SWAP1 KECCAK256 SLOAD PUSH1 0x1 PUSH1 0x1 PUSH1 0xA0 SHL SUB DUP2 AND SWAP1 PUSH1 0x1 PUSH1 0xA0 SHL DUP2 DIV PUSH2 0xFFFF AND SWAP1 PUSH1 0x1 PUSH1 0xB0 SHL SWAP1 DIV PUSH1 0xFF AND DUP4 JUMP JUMPDEST PUSH1 0x40 DUP1 MLOAD PUSH1 0x1 PUSH1 0x1 PUSH1 0xA0 SHL SUB SWAP1 SWAP5 AND DUP5 MSTORE PUSH2 0xFFFF SWAP1 SWAP3 AND PUSH1 0x20 DUP5 ADD MSTORE ISZERO ISZERO SWAP1 DUP3 ADD MSTORE PUSH1 0x60 ADD PUSH2 0x212 JUMP JUMPDEST CALLVALUE DUP1 ISZERO PUSH2 0x5A1 JUMPI PUSH1 0x0 DUP1 REVERT JUMPDEST POP PUSH2 0x208 PUSH2 0x5B0 CALLDATASIZE PUSH1 0x4 PUSH2 0x1F2D JUMP JUMPDEST PUSH1 0x1 PUSH1 0x1 PUSH1 0xA0 SHL SUB SWAP2 DUP3 AND PUSH1 0x0 SWAP1 DUP2 MSTORE PUSH1 0x1 PUSH1 0x20 SWAP1 DUP2 MSTORE PUSH1 0x40 DUP1 DUP4 KECCAK256 SWAP4 SWAP1 SWAP5 AND DUP3 MSTORE SWAP2 SWAP1 SWAP2 MSTORE KECCAK256 SLOAD SWAP1 JUMP JUMPDEST CALLVALUE DUP1 ISZERO PUSH2 0x5E7 JUMPI PUSH1 0x0 DUP1 REVERT JUMPDEST POP PUSH2 0x1F1 PUSH2 0x5F6 CALLDATASIZE PUSH1 0x4 PUSH2 0x1E08 JUMP JUMPDEST PUSH2 0xFD4 JUMP JUMPDEST PUSH2 0x1F1 PUSH2 0x609 CALLDATASIZE PUSH1 0x4 PUSH2 0x1E08 JUMP JUMPDEST PUSH2 0x1012 JUMP JUMPDEST PUSH2 0x616 PUSH2 0x10FA JUMP JUMPDEST PUSH2 0x61E PUSH2 0x1124 JUMP JUMPDEST PUSH1 0x0 PUSH2 0x629 DUP4 PUSH2 0x96C JUMP JUMPDEST SWAP1 POP PUSH2 0x635 CALLER DUP5 PUSH2 0x1148 JUMP JUMPDEST PUSH2 0x63E DUP2 PUSH2 0x117E JUMP JUMPDEST PUSH1 0x40 MLOAD PUSH4 0x2E1A7D4D PUSH1 0xE0 SHL DUP2 MSTORE PUSH1 0x4 DUP2 ADD DUP3 SWAP1 MSTORE PUSH32 0x0 PUSH1 0x1 PUSH1 0x1 PUSH1 0xA0 SHL SUB AND SWAP1 PUSH4 0x2E1A7D4D SWAP1 PUSH1 0x24 ADD PUSH1 0x0 PUSH1 0x40 MLOAD DUP1 DUP4 SUB DUP2 PUSH1 0x0 DUP8 DUP1 EXTCODESIZE ISZERO DUP1 ISZERO PUSH2 0x6A0 JUMPI PUSH1 0x0 DUP1 REVERT JUMPDEST POP GAS CALL ISZERO DUP1 ISZERO PUSH2 0x6B4 JUMPI RETURNDATASIZE PUSH1 0x0 DUP1 RETURNDATACOPY RETURNDATASIZE PUSH1 0x0 REVERT JUMPDEST POP POP POP POP PUSH1 0x0 DUP3 PUSH1 0x1 PUSH1 0x1 PUSH1 0xA0 SHL SUB AND DUP3 PUSH1 0x40 MLOAD PUSH1 0x0 PUSH1 0x40 MLOAD DUP1 DUP4 SUB DUP2 DUP6 DUP8 GAS CALL SWAP3 POP POP POP RETURNDATASIZE DUP1 PUSH1 0x0 DUP2 EQ PUSH2 0x705 JUMPI PUSH1 0x40 MLOAD SWAP2 POP PUSH1 0x1F NOT PUSH1 0x3F RETURNDATASIZE ADD AND DUP3 ADD PUSH1 0x40 MSTORE RETURNDATASIZE DUP3 MSTORE RETURNDATASIZE PUSH1 0x0 PUSH1 0x20 DUP5 ADD RETURNDATACOPY PUSH2 0x70A JUMP JUMPDEST PUSH1 0x60 SWAP2 POP JUMPDEST POP POP SWAP1 POP DUP1 PUSH2 0x74C JUMPI PUSH1 0x40 MLOAD PUSH3 0x461BCD PUSH1 0xE5 SHL DUP2 MSTORE PUSH1 0x20 PUSH1 0x4 DUP3 ADD MSTORE PUSH1 0x9 PUSH1 0x24 DUP3 ADD MSTORE PUSH9 0x1CD95B990819985A5B PUSH1 0xBA SHL PUSH1 0x44 DUP3 ADD MSTORE PUSH1 0x64 ADD JUMPDEST PUSH1 0x40 MLOAD DUP1 SWAP2 SUB SWAP1 REVERT JUMPDEST POP POP PUSH2 0x758 PUSH1 0x1 PUSH1 0x5 SSTORE JUMP JUMPDEST POP POP JUMP JUMPDEST PUSH1 0x40 MLOAD PUSH4 0x70A08231 PUSH1 0xE0 SHL DUP2 MSTORE ADDRESS PUSH1 0x4 DUP3 ADD MSTORE PUSH1 0x0 SWAP1 DUP2 SWAP1 PUSH1 0x1 PUSH1 0x1 PUSH1 0xA0 SHL SUB PUSH32 0x0 AND SWAP1 PUSH4 0x70A08231 SWAP1 PUSH1 0x24 ADD PUSH1 0x20 PUSH1 0x40 MLOAD DUP1 DUP4 SUB DUP2 DUP7 GAS STATICCALL ISZERO DUP1 ISZERO PUSH2 0x7C5 JUMPI RETURNDATASIZE PUSH1 0x0 DUP1 RETURNDATACOPY RETURNDATASIZE PUSH1 0x0 REVERT JUMPDEST POP POP POP POP PUSH1 0x40 MLOAD RETURNDATASIZE PUSH1 0x1F NOT PUSH1 0x1F DUP3 ADD AND DUP3 ADD DUP1 PUSH1 0x40 MSTORE POP DUP2 ADD SWAP1 PUSH2 0x7E9 SWAP2 SWAP1 PUSH2 0x1F5B JUMP JUMPDEST SWAP1 POP PUSH1 0x0 JUMPDEST PUSH1 0x8 SLOAD DUP2 LT ISZERO PUSH2 0x8D4 JUMPI PUSH1 0x0 PUSH1 0x7 PUSH1 0x0 PUSH1 0x8 DUP5 DUP2 SLOAD DUP2 LT PUSH2 0x811 JUMPI PUSH2 0x811 PUSH2 0x1F74 JUMP JUMPDEST SWAP1 PUSH1 0x0 MSTORE PUSH1 0x20 PUSH1 0x0 KECCAK256 ADD SLOAD DUP2 MSTORE PUSH1 0x20 ADD SWAP1 DUP2 MSTORE PUSH1 0x20 ADD PUSH1 0x0 KECCAK256 SWAP1 POP DUP1 PUSH1 0x0 ADD PUSH1 0x16 SWAP1 SLOAD SWAP1 PUSH2 0x100 EXP SWAP1 DIV PUSH1 0xFF AND PUSH2 0x848 JUMPI POP PUSH2 0x8C2 JUMP JUMPDEST DUP1 SLOAD PUSH1 0x40 DUP1 MLOAD PUSH3 0x787445 PUSH1 0xE2 SHL DUP2 MSTORE SWAP1 MLOAD PUSH1 0x1 PUSH1 0x1 PUSH1 0xA0 SHL SUB SWAP1 SWAP3 AND SWAP2 PUSH4 0x1E1D114 SWAP2 PUSH1 0x4 DUP1 DUP3 ADD SWAP3 PUSH1 0x20 SWAP3 SWAP1 SWAP2 SWAP1 DUP3 SWAP1 SUB ADD DUP2 DUP7 GAS STATICCALL ISZERO DUP1 ISZERO PUSH2 0x890 JUMPI RETURNDATASIZE PUSH1 0x0 DUP1 RETURNDATACOPY RETURNDATASIZE PUSH1 0x0 REVERT JUMPDEST POP POP POP POP PUSH1 0x40 MLOAD RETURNDATASIZE PUSH1 0x1F NOT PUSH1 0x1F DUP3 ADD AND DUP3 ADD DUP1 PUSH1 0x40 MSTORE POP DUP2 ADD SWAP1 PUSH2 0x8B4 SWAP2 SWAP1 PUSH2 0x1F5B JUMP JUMPDEST PUSH2 0x8BE SWAP1 DUP5 PUSH2 0x1FA0 JUMP JUMPDEST SWAP3 POP POP JUMPDEST DUP1 PUSH2 0x8CC DUP2 PUSH2 0x1FB3 JUMP JUMPDEST SWAP2 POP POP PUSH2 0x7EE JUMP JUMPDEST POP SWAP2 SWAP1 POP JUMP JUMPDEST PUSH1 0x60 PUSH1 0x3 DUP1 SLOAD PUSH2 0x8E9 SWAP1 PUSH2 0x1FCC JUMP JUMPDEST DUP1 PUSH1 0x1F ADD PUSH1 0x20 DUP1 SWAP2 DIV MUL PUSH1 0x20 ADD PUSH1 0x40 MLOAD SWAP1 DUP2 ADD PUSH1 0x40 MSTORE DUP1 SWAP3 SWAP2 SWAP1 DUP2 DUP2 MSTORE PUSH1 0x20 ADD DUP3 DUP1 SLOAD PUSH2 0x915 SWAP1 PUSH2 0x1FCC JUMP JUMPDEST DUP1 ISZERO PUSH2 0x962 JUMPI DUP1 PUSH1 0x1F LT PUSH2 0x937 JUMPI PUSH2 0x100 DUP1 DUP4 SLOAD DIV MUL DUP4 MSTORE SWAP2 PUSH1 0x20 ADD SWAP2 PUSH2 0x962 JUMP JUMPDEST DUP3 ADD SWAP2 SWAP1 PUSH1 0x0 MSTORE PUSH1 0x20 PUSH1 0x0 KECCAK256 SWAP1 JUMPDEST DUP2 SLOAD DUP2 MSTORE SWAP1 PUSH1 0x1 ADD SWAP1 PUSH1 0x20 ADD DUP1 DUP4 GT PUSH2 0x945 JUMPI DUP3 SWAP1 SUB PUSH1 0x1F AND DUP3 ADD SWAP2 JUMPDEST POP POP POP POP POP SWAP1 POP SWAP1 JUMP JUMPDEST PUSH1 0x0 DUP1 PUSH2 0x978 PUSH1 0x2 SLOAD SWAP1 JUMP JUMPDEST SWAP1 POP DUP1 ISZERO PUSH2 0x9A2 JUMPI DUP1 PUSH2 0x989 PUSH2 0x75C JUMP JUMPDEST PUSH2 0x993 SWAP1 DUP6 PUSH2 0x2000 JUMP JUMPDEST PUSH2 0x99D SWAP2 SWAP1 PUSH2 0x2017 JUMP JUMPDEST PUSH2 0x9A4 JUMP JUMPDEST DUP3 JUMPDEST SWAP4 SWAP3 POP POP POP JUMP JUMPDEST PUSH2 0x9B3 PUSH2 0x157E JUMP JUMPDEST PUSH1 0x1 PUSH1 0x1 PUSH1 0xA0 SHL SUB DUP3 AND PUSH2 0x9F2 JUMPI PUSH1 0x40 MLOAD PUSH3 0x461BCD PUSH1 0xE5 SHL DUP2 MSTORE PUSH1 0x4 ADD PUSH2 0x743 SWAP1 PUSH1 0x20 DUP1 DUP3 MSTORE PUSH1 0x4 SWAP1 DUP3 ADD MSTORE PUSH4 0x7A65726F PUSH1 0xE0 SHL PUSH1 0x40 DUP3 ADD MSTORE PUSH1 0x60 ADD SWAP1 JUMP JUMPDEST PUSH1 0x0 DUP4 DUP2 MSTORE PUSH1 0x7 PUSH1 0x20 MSTORE PUSH1 0x40 SWAP1 KECCAK256 SLOAD PUSH1 0x1 PUSH1 0xB0 SHL SWAP1 DIV PUSH1 0xFF AND ISZERO PUSH2 0xA41 JUMPI PUSH1 0x40 MLOAD PUSH3 0x461BCD PUSH1 0xE5 SHL DUP2 MSTORE PUSH1 0x20 PUSH1 0x4 DUP3 ADD MSTORE PUSH1 0x6 PUSH1 0x24 DUP3 ADD MSTORE PUSH6 0x657869737473 PUSH1 0xD0 SHL PUSH1 0x44 DUP3 ADD MSTORE PUSH1 0x64 ADD PUSH2 0x743 JUMP JUMPDEST PUSH1 0x6 SLOAD PUSH2 0xA5B SWAP1 PUSH1 0x1 PUSH1 0xA8 SHL SWAP1 DIV PUSH2 0xFFFF AND PUSH2 0x2710 PUSH2 0x2039 JUMP JUMPDEST PUSH2 0xFFFF AND DUP2 PUSH2 0xFFFF AND PUSH2 0xA6C PUSH2 0x15B1 JUMP JUMPDEST PUSH2 0xA76 SWAP2 SWAP1 PUSH2 0x1FA0 JUMP JUMPDEST GT ISZERO PUSH2 0xA94 JUMPI PUSH1 0x40 MLOAD PUSH3 0x461BCD PUSH1 0xE5 SHL DUP2 MSTORE PUSH1 0x4 ADD PUSH2 0x743 SWAP1 PUSH2 0x205B JUMP JUMPDEST PUSH1 0x40 DUP1 MLOAD PUSH1 0x60 DUP2 ADD DUP3 MSTORE PUSH1 0x1 PUSH1 0x1 PUSH1 0xA0 SHL SUB DUP5 DUP2 AND DUP1 DUP4 MSTORE PUSH2 0xFFFF DUP6 DUP2 AND PUSH1 0x20 DUP1 DUP7 ADD DUP3 DUP2 MSTORE PUSH1 0x1 DUP8 DUP10 ADD DUP2 DUP2 MSTORE PUSH1 0x0 DUP14 DUP2 MSTORE PUSH1 0x7 DUP6 MSTORE DUP11 DUP2 KECCAK256 SWAP10 MLOAD DUP11 SLOAD SWAP5 MLOAD SWAP3 MLOAD ISZERO ISZERO PUSH1 0x1 PUSH1 0xB0 SHL MUL PUSH1 0xFF PUSH1 0xB0 SHL NOT SWAP4 SWAP1 SWAP9 AND PUSH1 0x1 PUSH1 0xA0 SHL MUL PUSH1 0x1 PUSH1 0x1 PUSH1 0xB0 SHL SUB NOT SWAP1 SWAP6 AND SWAP10 AND SWAP9 SWAP1 SWAP9 OR SWAP3 SWAP1 SWAP3 OR SWAP2 SWAP1 SWAP2 AND SWAP4 SWAP1 SWAP4 OR SWAP1 SWAP6 SSTORE PUSH1 0x8 DUP1 SLOAD SWAP3 DUP4 ADD DUP2 SSTORE SWAP1 SWAP4 MSTORE PUSH32 0xF3F7A9FE364FAAB93B216DA50A3214154F22A0A2B415B23A84C8169E8B636EE3 ADD DUP8 SWAP1 SSTORE DUP4 MLOAD SWAP1 DUP2 MSTORE SWAP2 DUP3 ADD MSTORE DUP5 SWAP2 PUSH32 0x6E0B2579A4877BDB6F9BEC8AC3820B872CC0089963A51DBF3C4D28C178388502 SWAP2 ADD PUSH1 0x40 MLOAD DUP1 SWAP2 SUB SWAP1 LOG2 POP POP POP JUMP JUMPDEST PUSH1 0x0 CALLER PUSH2 0xB89 DUP2 DUP6 DUP6 PUSH2 0x1620 JUMP JUMPDEST PUSH1 0x1 SWAP2 POP POP JUMPDEST SWAP3 SWAP2 POP POP JUMP JUMPDEST PUSH1 0x0 CALLER PUSH2 0xBA3 DUP6 DUP3 DUP6 PUSH2 0x1632 JUMP JUMPDEST PUSH2 0xBAE DUP6 DUP6 DUP6 PUSH2 0x16B1 JUMP JUMPDEST POP PUSH1 0x1 SWAP5 SWAP4 POP POP POP POP JUMP JUMPDEST PUSH1 0x8 DUP2 DUP2 SLOAD DUP2 LT PUSH2 0xBC9 JUMPI PUSH1 0x0 DUP1 REVERT JUMPDEST PUSH1 0x0 SWAP2 DUP3 MSTORE PUSH1 0x20 SWAP1 SWAP2 KECCAK256 ADD SLOAD SWAP1 POP DUP2 JUMP JUMPDEST PUSH2 0xBE2 PUSH2 0x157E JUMP JUMPDEST PUSH2 0xBEA PUSH2 0x1710 JUMP JUMPDEST JUMP JUMPDEST PUSH2 0xBF4 PUSH2 0x157E JUMP JUMPDEST PUSH2 0xBEA PUSH1 0x0 PUSH2 0x1762 JUMP JUMPDEST PUSH2 0xC06 PUSH2 0x157E JUMP JUMPDEST PUSH2 0xBEA PUSH2 0x17BC JUMP JUMPDEST PUSH2 0xC16 PUSH2 0x157E JUMP JUMPDEST PUSH2 0x2710 PUSH2 0xFFFF DUP3 AND GT ISZERO PUSH2 0xC56 JUMPI PUSH1 0x40 MLOAD PUSH3 0x461BCD PUSH1 0xE5 SHL DUP2 MSTORE PUSH1 0x20 PUSH1 0x4 DUP3 ADD MSTORE PUSH1 0x7 PUSH1 0x24 DUP3 ADD MSTORE PUSH7 0x62616420627073 PUSH1 0xC8 SHL PUSH1 0x44 DUP3 ADD MSTORE PUSH1 0x64 ADD PUSH2 0x743 JUMP JUMPDEST PUSH2 0xC62 DUP2 PUSH2 0x2710 PUSH2 0x2039 JUMP JUMPDEST PUSH2 0xFFFF AND PUSH2 0xC6E PUSH2 0x15B1 JUMP JUMPDEST GT ISZERO PUSH2 0xC8C JUMPI PUSH1 0x40 MLOAD PUSH3 0x461BCD PUSH1 0xE5 SHL DUP2 MSTORE PUSH1 0x4 ADD PUSH2 0x743 SWAP1 PUSH2 0x205B JUMP JUMPDEST PUSH1 0x6 DUP1 SLOAD PUSH2 0xFFFF PUSH1 0xA8 SHL NOT AND PUSH1 0x1 PUSH1 0xA8 SHL PUSH2 0xFFFF DUP5 AND SWAP1 DUP2 MUL SWAP2 SWAP1 SWAP2 OR SWAP1 SWAP2 SSTORE PUSH1 0x40 MLOAD SWAP1 DUP2 MSTORE PUSH32 0x22CC6F1617F0282FC39975DAC0CACC7CDB1A35E723B2CAFB3E5185FA307346D9 SWAP1 PUSH1 0x20 ADD PUSH1 0x40 MLOAD DUP1 SWAP2 SUB SWAP1 LOG1 POP JUMP JUMPDEST PUSH1 0x60 PUSH1 0x4 DUP1 SLOAD PUSH2 0x8E9 SWAP1 PUSH2 0x1FCC JUMP JUMPDEST PUSH1 0x0 CALLER PUSH2 0xB89 DUP2 DUP6 DUP6 PUSH2 0x16B1 JUMP JUMPDEST PUSH1 0x60 DUP1 PUSH1 0x8 DUP1 SLOAD DUP1 PUSH1 0x20 MUL PUSH1 0x20 ADD PUSH1 0x40 MLOAD SWAP1 DUP2 ADD PUSH1 0x40 MSTORE DUP1 SWAP3 SWAP2 SWAP1 DUP2 DUP2 MSTORE PUSH1 0x20 ADD DUP3 DUP1 SLOAD DUP1 ISZERO PUSH2 0xD4E JUMPI PUSH1 0x20 MUL DUP3 ADD SWAP2 SWAP1 PUSH1 0x0 MSTORE PUSH1 0x20 PUSH1 0x0 KECCAK256 SWAP1 JUMPDEST DUP2 SLOAD DUP2 MSTORE PUSH1 0x20 ADD SWAP1 PUSH1 0x1 ADD SWAP1 DUP1 DUP4 GT PUSH2 0xD3A JUMPI JUMPDEST POP POP POP POP POP SWAP2 POP DUP2 MLOAD PUSH8 0xFFFFFFFFFFFFFFFF DUP2 GT ISZERO PUSH2 0xD6F JUMPI PUSH2 0xD6F PUSH2 0x207E JUMP JUMPDEST PUSH1 0x40 MLOAD SWAP1 DUP1 DUP3 MSTORE DUP1 PUSH1 0x20 MUL PUSH1 0x20 ADD DUP3 ADD PUSH1 0x40 MSTORE DUP1 ISZERO PUSH2 0xDBA JUMPI DUP2 PUSH1 0x20 ADD JUMPDEST PUSH1 0x40 DUP1 MLOAD PUSH1 0x60 DUP2 ADD DUP3 MSTORE PUSH1 0x0 DUP1 DUP3 MSTORE PUSH1 0x20 DUP1 DUP4 ADD DUP3 SWAP1 MSTORE SWAP3 DUP3 ADD MSTORE DUP3 MSTORE PUSH1 0x0 NOT SWAP1 SWAP3 ADD SWAP2 ADD DUP2 PUSH2 0xD8D JUMPI SWAP1 POP JUMPDEST POP SWAP1 POP PUSH1 0x0 JUMPDEST DUP3 MLOAD DUP2 LT ISZERO PUSH2 0xE67 JUMPI PUSH1 0x7 PUSH1 0x0 DUP5 DUP4 DUP2 MLOAD DUP2 LT PUSH2 0xDDF JUMPI PUSH2 0xDDF PUSH2 0x1F74 JUMP JUMPDEST PUSH1 0x20 SWAP1 DUP2 MUL SWAP2 SWAP1 SWAP2 ADD DUP2 ADD MLOAD DUP3 MSTORE DUP2 DUP2 ADD SWAP3 SWAP1 SWAP3 MSTORE PUSH1 0x40 SWAP1 DUP2 ADD PUSH1 0x0 KECCAK256 DUP2 MLOAD PUSH1 0x60 DUP2 ADD DUP4 MSTORE SWAP1 SLOAD PUSH1 0x1 PUSH1 0x1 PUSH1 0xA0 SHL SUB DUP2 AND DUP3 MSTORE PUSH1 0x1 PUSH1 0xA0 SHL DUP2 DIV PUSH2 0xFFFF AND SWAP4 DUP3 ADD SWAP4 SWAP1 SWAP4 MSTORE PUSH1 0x1 PUSH1 0xB0 SHL SWAP1 SWAP3 DIV PUSH1 0xFF AND ISZERO ISZERO SWAP1 DUP3 ADD MSTORE DUP3 MLOAD DUP4 SWAP1 DUP4 SWAP1 DUP2 LT PUSH2 0xE49 JUMPI PUSH2 0xE49 PUSH2 0x1F74 JUMP JUMPDEST PUSH1 0x20 MUL PUSH1 0x20 ADD ADD DUP2 SWAP1 MSTORE POP DUP1 DUP1 PUSH2 0xE5F SWAP1 PUSH2 0x1FB3 JUMP JUMPDEST SWAP2 POP POP PUSH2 0xDC0 JUMP JUMPDEST POP SWAP1 SWAP2 JUMP JUMPDEST PUSH1 0x0 DUP1 PUSH2 0xE78 PUSH1 0x2 SLOAD SWAP1 JUMP JUMPDEST SWAP1 POP DUP1 ISZERO PUSH2 0x9A2 JUMPI PUSH2 0xE88 PUSH2 0x75C JUMP JUMPDEST PUSH2 0x993 DUP3 DUP6 PUSH2 0x2000 JUMP JUMPDEST PUSH2 0xE9A PUSH2 0x157E JUMP JUMPDEST PUSH1 0x0 DUP4 DUP2 MSTORE PUSH1 0x7 PUSH1 0x20 MSTORE PUSH1 0x40 SWAP1 KECCAK256 DUP1 SLOAD PUSH1 0x1 PUSH1 0x1 PUSH1 0xA0 SHL SUB AND PUSH2 0xEEA JUMPI PUSH1 0x40 MLOAD PUSH3 0x461BCD PUSH1 0xE5 SHL DUP2 MSTORE PUSH1 0x20 PUSH1 0x4 DUP3 ADD MSTORE PUSH1 0x8 PUSH1 0x24 DUP3 ADD MSTORE PUSH8 0x1B9BC81CDD1C985D PUSH1 0xC2 SHL PUSH1 0x44 DUP3 ADD MSTORE PUSH1 0x64 ADD PUSH2 0x743 JUMP JUMPDEST PUSH1 0x0 PUSH2 0xEF4 PUSH2 0x15B1 JUMP JUMPDEST DUP3 SLOAD SWAP1 SWAP2 POP PUSH2 0xFFFF DUP1 DUP7 AND SWAP2 PUSH2 0xF13 SWAP2 PUSH1 0x1 PUSH1 0xA0 SHL SWAP1 SWAP2 DIV AND DUP4 PUSH2 0x2094 JUMP JUMPDEST PUSH2 0xF1D SWAP2 SWAP1 PUSH2 0x1FA0 JUMP JUMPDEST PUSH1 0x6 SLOAD SWAP1 SWAP2 POP PUSH2 0xF3A SWAP1 PUSH1 0x1 PUSH1 0xA8 SHL SWAP1 DIV PUSH2 0xFFFF AND PUSH2 0x2710 PUSH2 0x2039 JUMP JUMPDEST PUSH2 0xFFFF AND DUP2 GT ISZERO PUSH2 0xF5D JUMPI PUSH1 0x40 MLOAD PUSH3 0x461BCD PUSH1 0xE5 SHL DUP2 MSTORE PUSH1 0x4 ADD PUSH2 0x743 SWAP1 PUSH2 0x205B JUMP JUMPDEST DUP2 SLOAD PUSH3 0xFFFFFF PUSH1 0xA0 SHL NOT AND PUSH1 0x1 PUSH1 0xA0 SHL PUSH2 0xFFFF DUP7 AND SWAP1 DUP2 MUL PUSH1 0xFF PUSH1 0xB0 SHL NOT AND SWAP2 SWAP1 SWAP2 OR PUSH1 0x1 PUSH1 0xB0 SHL DUP6 ISZERO ISZERO SWAP1 DUP2 MUL SWAP2 SWAP1 SWAP2 OR DUP5 SSTORE PUSH1 0x40 DUP1 MLOAD SWAP3 DUP4 MSTORE PUSH1 0x20 DUP4 ADD SWAP2 SWAP1 SWAP2 MSTORE DUP7 SWAP2 PUSH32 0xFD72EAF6485232E6503FEAD983F945B6D9BFEC1FE1E626050169CF03A416F13A SWAP2 ADD PUSH1 0x40 MLOAD DUP1 SWAP2 SUB SWAP1 LOG2 POP POP POP POP POP JUMP JUMPDEST PUSH2 0xFDC PUSH2 0x157E JUMP JUMPDEST PUSH1 0x1 PUSH1 0x1 PUSH1 0xA0 SHL SUB DUP2 AND PUSH2 0x1006 JUMPI PUSH1 0x40 MLOAD PUSH4 0x1E4FBDF7 PUSH1 0xE0 SHL DUP2 MSTORE PUSH1 0x0 PUSH1 0x4 DUP3 ADD MSTORE PUSH1 0x24 ADD PUSH2 0x743 JUMP JUMPDEST PUSH2 0x100F DUP2 PUSH2 0x1762 JUMP JUMPDEST POP JUMP JUMPDEST PUSH2 0x101A PUSH2 0x10FA JUMP JUMPDEST PUSH2 0x1022 PUSH2 0x1124 JUMP JUMPDEST PUSH1 0x0 CALLVALUE GT PUSH2 0x105B JUMPI PUSH1 0x40 MLOAD PUSH3 0x461BCD PUSH1 0xE5 SHL DUP2 MSTORE PUSH1 0x4 ADD PUSH2 0x743 SWAP1 PUSH1 0x20 DUP1 DUP3 MSTORE PUSH1 0x4 SWAP1 DUP3 ADD MSTORE PUSH4 0x7A65726F PUSH1 0xE0 SHL PUSH1 0x40 DUP3 ADD MSTORE PUSH1 0x60 ADD SWAP1 JUMP JUMPDEST PUSH1 0x0 CALLVALUE SWAP1 POP PUSH32 0x0 PUSH1 0x1 PUSH1 0x1 PUSH1 0xA0 SHL SUB AND PUSH4 0xD0E30DB0 DUP3 PUSH1 0x40 MLOAD DUP3 PUSH4 0xFFFFFFFF AND PUSH1 0xE0 SHL DUP2 MSTORE PUSH1 0x4 ADD PUSH1 0x0 PUSH1 0x40 MLOAD DUP1 DUP4 SUB DUP2 DUP6 DUP9 DUP1 EXTCODESIZE ISZERO DUP1 ISZERO PUSH2 0x10BB JUMPI PUSH1 0x0 DUP1 REVERT JUMPDEST POP GAS CALL ISZERO DUP1 ISZERO PUSH2 0x10CF JUMPI RETURNDATASIZE PUSH1 0x0 DUP1 RETURNDATACOPY RETURNDATASIZE PUSH1 0x0 REVERT JUMPDEST POP POP POP POP POP PUSH2 0x10E6 DUP3 PUSH2 0x10E1 DUP4 PUSH2 0xE6C JUMP JUMPDEST PUSH2 0x17F9 JUMP JUMPDEST PUSH2 0x10EF DUP2 PUSH2 0x182F JUMP JUMPDEST POP PUSH2 0x100F PUSH1 0x1 PUSH1 0x5 SSTORE JUMP JUMPDEST PUSH1 0x2 PUSH1 0x5 SLOAD SUB PUSH2 0x111D JUMPI PUSH1 0x40 MLOAD PUSH4 0x3EE5AEB5 PUSH1 0xE0 SHL DUP2 MSTORE PUSH1 0x4 ADD PUSH1 0x40 MLOAD DUP1 SWAP2 SUB SWAP1 REVERT JUMPDEST PUSH1 0x2 PUSH1 0x5 SSTORE JUMP JUMPDEST PUSH1 0x6 SLOAD PUSH1 0xFF AND ISZERO PUSH2 0xBEA JUMPI PUSH1 0x40 MLOAD PUSH4 0xD93C0665 PUSH1 0xE0 SHL DUP2 MSTORE PUSH1 0x4 ADD PUSH1 0x40 MLOAD DUP1 SWAP2 SUB SWAP1 REVERT JUMPDEST PUSH1 0x1 PUSH1 0x1 PUSH1 0xA0 SHL SUB DUP3 AND PUSH2 0x1172 JUMPI PUSH1 0x40 MLOAD PUSH4 0x4B637E8F PUSH1 0xE1 SHL DUP2 MSTORE PUSH1 0x0 PUSH1 0x4 DUP3 ADD MSTORE PUSH1 0x24 ADD PUSH2 0x743 JUMP JUMPDEST PUSH2 0x758 DUP3 PUSH1 0x0 DUP4 PUSH2 0x1A78 JUMP JUMPDEST PUSH1 0x40 MLOAD PUSH4 0x70A08231 PUSH1 0xE0 SHL DUP2 MSTORE ADDRESS PUSH1 0x4 DUP3 ADD MSTORE PUSH1 0x0 SWAP1 PUSH32 0x0 PUSH1 0x1 PUSH1 0x1 PUSH1 0xA0 SHL SUB AND SWAP1 PUSH4 0x70A08231 SWAP1 PUSH1 0x24 ADD PUSH1 0x20 PUSH1 0x40 MLOAD DUP1 DUP4 SUB DUP2 DUP7 GAS STATICCALL ISZERO DUP1 ISZERO PUSH2 0x11E5 JUMPI RETURNDATASIZE PUSH1 0x0 DUP1 RETURNDATACOPY RETURNDATASIZE PUSH1 0x0 REVERT JUMPDEST POP POP POP POP PUSH1 0x40 MLOAD RETURNDATASIZE PUSH1 0x1F NOT PUSH1 0x1F DUP3 ADD AND DUP3 ADD DUP1 PUSH1 0x40 MSTORE POP DUP2 ADD SWAP1 PUSH2 0x1209 SWAP2 SWAP1 PUSH2 0x1F5B JUMP JUMPDEST SWAP1 POP DUP2 DUP2 LT PUSH2 0x1216 JUMPI POP POP JUMP JUMPDEST PUSH1 0x0 PUSH2 0x1222 DUP3 DUP5 PUSH2 0x2094 JUMP JUMPDEST SWAP1 POP PUSH1 0x0 DUP1 PUSH1 0x8 DUP1 SLOAD SWAP1 POP PUSH8 0xFFFFFFFFFFFFFFFF DUP2 GT ISZERO PUSH2 0x1245 JUMPI PUSH2 0x1245 PUSH2 0x207E JUMP JUMPDEST PUSH1 0x40 MLOAD SWAP1 DUP1 DUP3 MSTORE DUP1 PUSH1 0x20 MUL PUSH1 0x20 ADD DUP3 ADD PUSH1 0x40 MSTORE DUP1 ISZERO PUSH2 0x126E JUMPI DUP2 PUSH1 0x20 ADD PUSH1 0x20 DUP3 MUL DUP1 CALLDATASIZE DUP4 CALLDATACOPY ADD SWAP1 POP JUMPDEST POP SWAP1 POP PUSH1 0x0 JUMPDEST PUSH1 0x8 SLOAD DUP2 LT ISZERO PUSH2 0x139B JUMPI PUSH1 0x0 PUSH1 0x7 PUSH1 0x0 PUSH1 0x8 DUP5 DUP2 SLOAD DUP2 LT PUSH2 0x1297 JUMPI PUSH2 0x1297 PUSH2 0x1F74 JUMP JUMPDEST SWAP1 PUSH1 0x0 MSTORE PUSH1 0x20 PUSH1 0x0 KECCAK256 ADD SLOAD DUP2 MSTORE PUSH1 0x20 ADD SWAP1 DUP2 MSTORE PUSH1 0x20 ADD PUSH1 0x0 KECCAK256 SWAP1 POP DUP1 PUSH1 0x0 ADD PUSH1 0x16 SWAP1 SLOAD SWAP1 PUSH2 0x100 EXP SWAP1 DIV PUSH1 0xFF AND PUSH2 0x12EE JUMPI PUSH1 0x0 DUP4 DUP4 DUP2 MLOAD DUP2 LT PUSH2 0x12DC JUMPI PUSH2 0x12DC PUSH2 0x1F74 JUMP JUMPDEST PUSH1 0x20 MUL PUSH1 0x20 ADD ADD DUP2 DUP2 MSTORE POP POP POP PUSH2 0x1389 JUMP JUMPDEST DUP1 SLOAD PUSH1 0x40 DUP1 MLOAD PUSH3 0x787445 PUSH1 0xE2 SHL DUP2 MSTORE SWAP1 MLOAD PUSH1 0x0 SWAP3 PUSH1 0x1 PUSH1 0x1 PUSH1 0xA0 SHL SUB AND SWAP2 PUSH4 0x1E1D114 SWAP2 PUSH1 0x4 DUP1 DUP4 ADD SWAP3 PUSH1 0x20 SWAP3 SWAP2 SWAP1 DUP3 SWAP1 SUB ADD DUP2 DUP7 GAS STATICCALL ISZERO DUP1 ISZERO PUSH2 0x1336 JUMPI RETURNDATASIZE PUSH1 0x0 DUP1 RETURNDATACOPY RETURNDATASIZE PUSH1 0x0 REVERT JUMPDEST POP POP POP POP PUSH1 0x40 MLOAD RETURNDATASIZE PUSH1 0x1F NOT PUSH1 0x1F DUP3 ADD AND DUP3 ADD DUP1 PUSH1 0x40 MSTORE POP DUP2 ADD SWAP1 PUSH2 0x135A SWAP2 SWAP1 PUSH2 0x1F5B JUMP JUMPDEST SWAP1 POP DUP1 DUP5 DUP5 DUP2 MLOAD DUP2 LT PUSH2 0x136F JUMPI PUSH2 0x136F PUSH2 0x1F74 JUMP JUMPDEST PUSH1 0x20 SWAP1 DUP2 MUL SWAP2 SWAP1 SWAP2 ADD ADD MSTORE PUSH2 0x1384 DUP2 DUP7 PUSH2 0x1FA0 JUMP JUMPDEST SWAP5 POP POP POP JUMPDEST DUP1 PUSH2 0x1393 DUP2 PUSH2 0x1FB3 JUMP JUMPDEST SWAP2 POP POP PUSH2 0x1274 JUMP JUMPDEST POP DUP2 PUSH1 0x0 SUB PUSH2 0x13AB JUMPI POP POP POP POP POP JUMP JUMPDEST PUSH1 0x0 JUMPDEST PUSH1 0x8 SLOAD DUP2 LT DUP1 ISZERO PUSH2 0x13BF JUMPI POP PUSH1 0x0 DUP5 GT JUMPDEST ISZERO PUSH2 0x1576 JUMPI PUSH1 0x0 PUSH1 0x7 PUSH1 0x0 PUSH1 0x8 DUP5 DUP2 SLOAD DUP2 LT PUSH2 0x13DD JUMPI PUSH2 0x13DD PUSH2 0x1F74 JUMP JUMPDEST SWAP1 PUSH1 0x0 MSTORE PUSH1 0x20 PUSH1 0x0 KECCAK256 ADD SLOAD DUP2 MSTORE PUSH1 0x20 ADD SWAP1 DUP2 MSTORE PUSH1 0x20 ADD PUSH1 0x0 KECCAK256 SWAP1 POP DUP1 PUSH1 0x0 ADD PUSH1 0x16 SWAP1 SLOAD SWAP1 PUSH2 0x100 EXP SWAP1 DIV PUSH1 0xFF AND ISZERO DUP1 PUSH2 0x142F JUMPI POP DUP3 DUP3 DUP2 MLOAD DUP2 LT PUSH2 0x1423 JUMPI PUSH2 0x1423 PUSH2 0x1F74 JUMP JUMPDEST PUSH1 0x20 MUL PUSH1 0x20 ADD ADD MLOAD PUSH1 0x0 EQ JUMPDEST ISZERO PUSH2 0x143A JUMPI POP PUSH2 0x1564 JUMP JUMPDEST PUSH1 0x0 DUP5 DUP5 DUP5 DUP2 MLOAD DUP2 LT PUSH2 0x144F JUMPI PUSH2 0x144F PUSH2 0x1F74 JUMP JUMPDEST PUSH1 0x20 MUL PUSH1 0x20 ADD ADD MLOAD DUP8 PUSH2 0x1462 SWAP2 SWAP1 PUSH2 0x2000 JUMP JUMPDEST PUSH2 0x146C SWAP2 SWAP1 PUSH2 0x2017 JUMP JUMPDEST SWAP1 POP DUP1 PUSH1 0x0 SUB PUSH2 0x147D JUMPI POP POP PUSH2 0x1564 JUMP JUMPDEST DUP2 SLOAD PUSH1 0x40 MLOAD PUSH4 0x8CA17995 PUSH1 0xE0 SHL DUP2 MSTORE PUSH1 0x4 DUP2 ADD DUP4 SWAP1 MSTORE PUSH1 0x0 SWAP2 PUSH1 0x1 PUSH1 0x1 PUSH1 0xA0 SHL SUB AND SWAP1 PUSH4 0x8CA17995 SWAP1 PUSH1 0x24 ADD PUSH1 0x20 PUSH1 0x40 MLOAD DUP1 DUP4 SUB DUP2 PUSH1 0x0 DUP8 GAS CALL ISZERO DUP1 ISZERO PUSH2 0x14C8 JUMPI RETURNDATASIZE PUSH1 0x0 DUP1 RETURNDATACOPY RETURNDATASIZE PUSH1 0x0 REVERT JUMPDEST POP POP POP POP PUSH1 0x40 MLOAD RETURNDATASIZE PUSH1 0x1F NOT PUSH1 0x1F DUP3 ADD AND DUP3 ADD DUP1 PUSH1 0x40 MSTORE POP DUP2 ADD SWAP1 PUSH2 0x14EC SWAP2 SWAP1 PUSH2 0x1F5B JUMP JUMPDEST SWAP1 POP PUSH1 0x8 DUP5 DUP2 SLOAD DUP2 LT PUSH2 0x1501 JUMPI PUSH2 0x1501 PUSH2 0x1F74 JUMP JUMPDEST SWAP1 PUSH1 0x0 MSTORE PUSH1 0x20 PUSH1 0x0 KECCAK256 ADD SLOAD PUSH32 0x8680A71CFA86428CE43EBBC95F68BF763D38694CAE4A4DD81178EBBB8FFFBA78 DUP3 PUSH1 0x40 MLOAD PUSH2 0x153D SWAP2 DUP2 MSTORE PUSH1 0x20 ADD SWAP1 JUMP JUMPDEST PUSH1 0x40 MLOAD DUP1 SWAP2 SUB SWAP1 LOG2 DUP7 DUP2 LT PUSH2 0x1554 JUMPI POP POP POP PUSH2 0x1576 JUMP JUMPDEST PUSH2 0x155E DUP2 DUP9 PUSH2 0x2094 JUMP JUMPDEST SWAP7 POP POP POP POP JUMPDEST DUP1 PUSH2 0x156E DUP2 PUSH2 0x1FB3 JUMP JUMPDEST SWAP2 POP POP PUSH2 0x13AE JUMP JUMPDEST POP POP POP POP POP POP JUMP JUMPDEST PUSH1 0x6 SLOAD PUSH1 0x1 PUSH1 0x1 PUSH1 0xA0 SHL SUB PUSH2 0x100 SWAP1 SWAP2 DIV AND CALLER EQ PUSH2 0xBEA JUMPI PUSH1 0x40 MLOAD PUSH4 0x118CDAA7 PUSH1 0xE0 SHL DUP2 MSTORE CALLER PUSH1 0x4 DUP3 ADD MSTORE PUSH1 0x24 ADD PUSH2 0x743 JUMP JUMPDEST PUSH1 0x0 DUP1 JUMPDEST PUSH1 0x8 SLOAD DUP2 LT ISZERO PUSH2 0x161C JUMPI PUSH1 0x7 PUSH1 0x0 PUSH1 0x8 DUP4 DUP2 SLOAD DUP2 LT PUSH2 0x15D6 JUMPI PUSH2 0x15D6 PUSH2 0x1F74 JUMP JUMPDEST PUSH1 0x0 SWAP2 DUP3 MSTORE PUSH1 0x20 DUP1 DUP4 KECCAK256 SWAP1 SWAP2 ADD SLOAD DUP4 MSTORE DUP3 ADD SWAP3 SWAP1 SWAP3 MSTORE PUSH1 0x40 ADD SWAP1 KECCAK256 SLOAD PUSH2 0x1608 SWAP1 PUSH2 0xFFFF PUSH1 0x1 PUSH1 0xA0 SHL SWAP1 SWAP2 DIV AND DUP4 PUSH2 0x1FA0 JUMP JUMPDEST SWAP2 POP DUP1 PUSH2 0x1614 DUP2 PUSH2 0x1FB3 JUMP JUMPDEST SWAP2 POP POP PUSH2 0x15B5 JUMP JUMPDEST POP SWAP1 JUMP JUMPDEST PUSH2 0x162D DUP4 DUP4 DUP4 PUSH1 0x1 PUSH2 0x1BA2 JUMP JUMPDEST POP POP POP JUMP JUMPDEST PUSH1 0x1 PUSH1 0x1 PUSH1 0xA0 SHL SUB DUP4 DUP2 AND PUSH1 0x0 SWAP1 DUP2 MSTORE PUSH1 0x1 PUSH1 0x20 SWAP1 DUP2 MSTORE PUSH1 0x40 DUP1 DUP4 KECCAK256 SWAP4 DUP7 AND DUP4 MSTORE SWAP3 SWAP1 MSTORE KECCAK256 SLOAD PUSH1 0x0 NOT DUP2 LT ISZERO PUSH2 0x16AB JUMPI DUP2 DUP2 LT ISZERO PUSH2 0x169C JUMPI PUSH1 0x40 MLOAD PUSH4 0x7DC7A0D9 PUSH1 0xE1 SHL DUP2 MSTORE PUSH1 0x1 PUSH1 0x1 PUSH1 0xA0 SHL SUB DUP5 AND PUSH1 0x4 DUP3 ADD MSTORE PUSH1 0x24 DUP2 ADD DUP3 SWAP1 MSTORE PUSH1 0x44 DUP2 ADD DUP4 SWAP1 MSTORE PUSH1 0x64 ADD PUSH2 0x743 JUMP JUMPDEST PUSH2 0x16AB DUP5 DUP5 DUP5 DUP5 SUB PUSH1 0x0 PUSH2 0x1BA2 JUMP JUMPDEST POP POP POP POP JUMP JUMPDEST PUSH1 0x1 PUSH1 0x1 PUSH1 0xA0 SHL SUB DUP4 AND PUSH2 0x16DB JUMPI PUSH1 0x40 MLOAD PUSH4 0x4B637E8F PUSH1 0xE1 SHL DUP2 MSTORE PUSH1 0x0 PUSH1 0x4 DUP3 ADD MSTORE PUSH1 0x24 ADD PUSH2 0x743 JUMP JUMPDEST PUSH1 0x1 PUSH1 0x1 PUSH1 0xA0 SHL SUB DUP3 AND PUSH2 0x1705 JUMPI PUSH1 0x40 MLOAD PUSH4 0xEC442F05 PUSH1 0xE0 SHL DUP2 MSTORE PUSH1 0x0 PUSH1 0x4 DUP3 ADD MSTORE PUSH1 0x24 ADD PUSH2 0x743 JUMP JUMPDEST PUSH2 0x162D DUP4 DUP4 DUP4 PUSH2 0x1A78 JUMP JUMPDEST PUSH2 0x1718 PUSH2 0x1C77 JUMP JUMPDEST PUSH1 0x6 DUP1 SLOAD PUSH1 0xFF NOT AND SWAP1 SSTORE PUSH32 0x5DB9EE0A495BF2E6FF9C91A7834C1BA4FDD244A5E8AA4E537BD38AEAE4B073AA CALLER JUMPDEST PUSH1 0x40 MLOAD PUSH1 0x1 PUSH1 0x1 PUSH1 0xA0 SHL SUB SWAP1 SWAP2 AND DUP2 MSTORE PUSH1 0x20 ADD PUSH1 0x40 MLOAD DUP1 SWAP2 SUB SWAP1 LOG1 JUMP JUMPDEST PUSH1 0x6 DUP1 SLOAD PUSH1 0x1 PUSH1 0x1 PUSH1 0xA0 SHL SUB DUP4 DUP2 AND PUSH2 0x100 DUP2 DUP2 MUL PUSH2 0x100 PUSH1 0x1 PUSH1 0xA8 SHL SUB NOT DUP6 AND OR SWAP1 SWAP5 SSTORE PUSH1 0x40 MLOAD SWAP4 SWAP1 SWAP3 DIV AND SWAP2 DUP3 SWAP1 PUSH32 0x8BE0079C531659141344CD1FD0A4F28419497F9722A3DAAFE3B4186F6B6457E0 SWAP1 PUSH1 0x0 SWAP1 LOG3 POP POP JUMP JUMPDEST PUSH2 0x17C4 PUSH2 0x1124 JUMP JUMPDEST PUSH1 0x6 DUP1 SLOAD PUSH1 0xFF NOT AND PUSH1 0x1 OR SWAP1 SSTORE PUSH32 0x62E78CEA01BEE320CD4E420270B5EA74000D11B0C9F74754EBDBFC544B05A258 PUSH2 0x1745 CALLER SWAP1 JUMP JUMPDEST PUSH1 0x1 PUSH1 0x1 PUSH1 0xA0 SHL SUB DUP3 AND PUSH2 0x1823 JUMPI PUSH1 0x40 MLOAD PUSH4 0xEC442F05 PUSH1 0xE0 SHL DUP2 MSTORE PUSH1 0x0 PUSH1 0x4 DUP3 ADD MSTORE PUSH1 0x24 ADD PUSH2 0x743 JUMP JUMPDEST PUSH2 0x758 PUSH1 0x0 DUP4 DUP4 PUSH2 0x1A78 JUMP JUMPDEST PUSH1 0x6 SLOAD PUSH1 0x0 SWAP1 PUSH2 0x2710 SWAP1 PUSH2 0x184E SWAP1 PUSH1 0x1 PUSH1 0xA8 SHL SWAP1 DIV PUSH2 0xFFFF AND DUP5 PUSH2 0x2000 JUMP JUMPDEST PUSH2 0x1858 SWAP2 SWAP1 PUSH2 0x2017 JUMP JUMPDEST SWAP1 POP PUSH1 0x0 PUSH2 0x1866 DUP3 DUP5 PUSH2 0x2094 JUMP JUMPDEST SWAP1 POP PUSH1 0x0 JUMPDEST PUSH1 0x8 SLOAD DUP2 LT ISZERO PUSH2 0x16AB JUMPI PUSH1 0x0 PUSH1 0x7 PUSH1 0x0 PUSH1 0x8 DUP5 DUP2 SLOAD DUP2 LT PUSH2 0x188E JUMPI PUSH2 0x188E PUSH2 0x1F74 JUMP JUMPDEST SWAP1 PUSH1 0x0 MSTORE PUSH1 0x20 PUSH1 0x0 KECCAK256 ADD SLOAD DUP2 MSTORE PUSH1 0x20 ADD SWAP1 DUP2 MSTORE PUSH1 0x20 ADD PUSH1 0x0 KECCAK256 SWAP1 POP DUP1 PUSH1 0x0 ADD PUSH1 0x16 SWAP1 SLOAD SWAP1 PUSH2 0x100 EXP SWAP1 DIV PUSH1 0xFF AND ISZERO DUP1 PUSH2 0x18D1 JUMPI POP DUP1 SLOAD PUSH1 0x1 PUSH1 0xA0 SHL SWAP1 DIV PUSH2 0xFFFF AND ISZERO JUMPDEST ISZERO PUSH2 0x18DC JUMPI POP PUSH2 0x1A66 JUMP JUMPDEST DUP1 SLOAD PUSH1 0x0 SWAP1 PUSH2 0x2710 SWAP1 PUSH2 0x18FA SWAP1 PUSH1 0x1 PUSH1 0xA0 SHL SWAP1 DIV PUSH2 0xFFFF AND DUP9 PUSH2 0x2000 JUMP JUMPDEST PUSH2 0x1904 SWAP2 SWAP1 PUSH2 0x2017 JUMP JUMPDEST SWAP1 POP DUP4 DUP2 GT ISZERO PUSH2 0x1911 JUMPI POP DUP3 JUMPDEST DUP1 ISZERO PUSH2 0x1A63 JUMPI DUP2 SLOAD PUSH1 0x40 MLOAD PUSH4 0xA9059CBB PUSH1 0xE0 SHL DUP2 MSTORE PUSH1 0x1 PUSH1 0x1 PUSH1 0xA0 SHL SUB SWAP2 DUP3 AND PUSH1 0x4 DUP3 ADD MSTORE PUSH1 0x24 DUP2 ADD DUP4 SWAP1 MSTORE PUSH32 0x0 SWAP1 SWAP2 AND SWAP1 PUSH4 0xA9059CBB SWAP1 PUSH1 0x44 ADD PUSH1 0x20 PUSH1 0x40 MLOAD DUP1 DUP4 SUB DUP2 PUSH1 0x0 DUP8 GAS CALL ISZERO DUP1 ISZERO PUSH2 0x198A JUMPI RETURNDATASIZE PUSH1 0x0 DUP1 RETURNDATACOPY RETURNDATASIZE PUSH1 0x0 REVERT JUMPDEST POP POP POP POP PUSH1 0x40 MLOAD RETURNDATASIZE PUSH1 0x1F NOT PUSH1 0x1F DUP3 ADD AND DUP3 ADD DUP1 PUSH1 0x40 MSTORE POP DUP2 ADD SWAP1 PUSH2 0x19AE SWAP2 SWAP1 PUSH2 0x20A7 JUMP JUMPDEST POP DUP2 SLOAD PUSH1 0x40 MLOAD PUSH3 0x55F9E9 PUSH1 0xE7 SHL DUP2 MSTORE PUSH1 0x4 DUP2 ADD DUP4 SWAP1 MSTORE PUSH1 0x1 PUSH1 0x1 PUSH1 0xA0 SHL SUB SWAP1 SWAP2 AND SWAP1 PUSH4 0x2AFCF480 SWAP1 PUSH1 0x24 ADD PUSH1 0x0 PUSH1 0x40 MLOAD DUP1 DUP4 SUB DUP2 PUSH1 0x0 DUP8 DUP1 EXTCODESIZE ISZERO DUP1 ISZERO PUSH2 0x19F3 JUMPI PUSH1 0x0 DUP1 REVERT JUMPDEST POP GAS CALL ISZERO DUP1 ISZERO PUSH2 0x1A07 JUMPI RETURNDATASIZE PUSH1 0x0 DUP1 RETURNDATACOPY RETURNDATASIZE PUSH1 0x0 REVERT JUMPDEST POP POP POP POP PUSH1 0x8 DUP4 DUP2 SLOAD DUP2 LT PUSH2 0x1A1E JUMPI PUSH2 0x1A1E PUSH2 0x1F74 JUMP JUMPDEST SWAP1 PUSH1 0x0 MSTORE PUSH1 0x20 PUSH1 0x0 KECCAK256 ADD SLOAD PUSH32 0xB99956C8203B7677DE254BAC7DF707C62197037D108739A8702BB91EE3E492C9 DUP3 PUSH1 0x40 MLOAD PUSH2 0x1A5A SWAP2 DUP2 MSTORE PUSH1 0x20 ADD SWAP1 JUMP JUMPDEST PUSH1 0x40 MLOAD DUP1 SWAP2 SUB SWAP1 LOG2 JUMPDEST POP POP JUMPDEST DUP1 PUSH2 0x1A70 DUP2 PUSH2 0x1FB3 JUMP JUMPDEST SWAP2 POP POP PUSH2 0x186B JUMP JUMPDEST PUSH1 0x1 PUSH1 0x1 PUSH1 0xA0 SHL SUB DUP4 AND PUSH2 0x1AA3 JUMPI DUP1 PUSH1 0x2 PUSH1 0x0 DUP3 DUP3 SLOAD PUSH2 0x1A98 SWAP2 SWAP1 PUSH2 0x1FA0 JUMP JUMPDEST SWAP1 SWAP2 SSTORE POP PUSH2 0x1B15 SWAP1 POP JUMP JUMPDEST PUSH1 0x1 PUSH1 0x1 PUSH1 0xA0 SHL SUB DUP4 AND PUSH1 0x0 SWAP1 DUP2 MSTORE PUSH1 0x20 DUP2 SWAP1 MSTORE PUSH1 0x40 SWAP1 KECCAK256 SLOAD DUP2 DUP2 LT ISZERO PUSH2 0x1AF6 JUMPI PUSH1 0x40 MLOAD PUSH4 0x391434E3 PUSH1 0xE2 SHL DUP2 MSTORE PUSH1 0x1 PUSH1 0x1 PUSH1 0xA0 SHL SUB DUP6 AND PUSH1 0x4 DUP3 ADD MSTORE PUSH1 0x24 DUP2 ADD DUP3 SWAP1 MSTORE PUSH1 0x44 DUP2 ADD DUP4 SWAP1 MSTORE PUSH1 0x64 ADD PUSH2 0x743 JUMP JUMPDEST PUSH1 0x1 PUSH1 0x1 PUSH1 0xA0 SHL SUB DUP5 AND PUSH1 0x0 SWAP1 DUP2 MSTORE PUSH1 0x20 DUP2 SWAP1 MSTORE PUSH1 0x40 SWAP1 KECCAK256 SWAP1 DUP3 SWAP1 SUB SWAP1 SSTORE JUMPDEST PUSH1 0x1 PUSH1 0x1 PUSH1 0xA0 SHL SUB DUP3 AND PUSH2 0x1B31 JUMPI PUSH1 0x2 DUP1 SLOAD DUP3 SWAP1 SUB SWAP1 SSTORE PUSH2 0x1B50 JUMP JUMPDEST PUSH1 0x1 PUSH1 0x1 PUSH1 0xA0 SHL SUB DUP3 AND PUSH1 0x0 SWAP1 DUP2 MSTORE PUSH1 0x20 DUP2 SWAP1 MSTORE PUSH1 0x40 SWAP1 KECCAK256 DUP1 SLOAD DUP3 ADD SWAP1 SSTORE JUMPDEST DUP2 PUSH1 0x1 PUSH1 0x1 PUSH1 0xA0 SHL SUB AND DUP4 PUSH1 0x1 PUSH1 0x1 PUSH1 0xA0 SHL SUB AND PUSH32 0xDDF252AD1BE2C89B69C2B068FC378DAA952BA7F163C4A11628F55A4DF523B3EF DUP4 PUSH1 0x40 MLOAD PUSH2 0x1B95 SWAP2 DUP2 MSTORE PUSH1 0x20 ADD SWAP1 JUMP JUMPDEST PUSH1 0x40 MLOAD DUP1 SWAP2 SUB SWAP1 LOG3 POP POP POP JUMP JUMPDEST PUSH1 0x1 PUSH1 0x1 PUSH1 0xA0 SHL SUB DUP5 AND PUSH2 0x1BCC JUMPI PUSH1 0x40 MLOAD PUSH4 0xE602DF05 PUSH1 0xE0 SHL DUP2 MSTORE PUSH1 0x0 PUSH1 0x4 DUP3 ADD MSTORE PUSH1 0x24 ADD PUSH2 0x743 JUMP JUMPDEST PUSH1 0x1 PUSH1 0x1 PUSH1 0xA0 SHL SUB DUP4 AND PUSH2 0x1BF6 JUMPI PUSH1 0x40 MLOAD PUSH4 0x4A1406B1 PUSH1 0xE1 SHL DUP2 MSTORE PUSH1 0x0 PUSH1 0x4 DUP3 ADD MSTORE PUSH1 0x24 ADD PUSH2 0x743 JUMP JUMPDEST PUSH1 0x1 PUSH1 0x1 PUSH1 0xA0 SHL SUB DUP1 DUP6 AND PUSH1 0x0 SWAP1 DUP2 MSTORE PUSH1 0x1 PUSH1 0x20 SWAP1 DUP2 MSTORE PUSH1 0x40 DUP1 DUP4 KECCAK256 SWAP4 DUP8 AND DUP4 MSTORE SWAP3 SWAP1 MSTORE KECCAK256 DUP3 SWAP1 SSTORE DUP1 ISZERO PUSH2 0x16AB JUMPI DUP3 PUSH1 0x1 PUSH1 0x1 PUSH1 0xA0 SHL SUB AND DUP5 PUSH1 0x1 PUSH1 0x1 PUSH1 0xA0 SHL SUB AND PUSH32 0x8C5BE1E5EBEC7D5BD14F71427D1E84F3DD0314C0F7B2291E5B200AC8C7C3B925 DUP5 PUSH1 0x40 MLOAD PUSH2 0x1C69 SWAP2 DUP2 MSTORE PUSH1 0x20 ADD SWAP1 JUMP JUMPDEST PUSH1 0x40 MLOAD DUP1 SWAP2 SUB SWAP1 LOG3 POP POP POP POP JUMP JUMPDEST PUSH1 0x6 SLOAD PUSH1 0xFF AND PUSH2 0xBEA JUMPI PUSH1 0x40 MLOAD PUSH4 0x8DFC202B PUSH1 0xE0 SHL DUP2 MSTORE PUSH1 0x4 ADD PUSH1 0x40 MLOAD DUP1 SWAP2 SUB SWAP1 REVERT JUMPDEST PUSH1 0x1 PUSH1 0x1 PUSH1 0xA0 SHL SUB DUP2 AND DUP2 EQ PUSH2 0x100F JUMPI PUSH1 0x0 DUP1 REVERT JUMPDEST PUSH1 0x0 DUP1 PUSH1 0x40 DUP4 DUP6 SUB SLT ISZERO PUSH2 0x1CC2 JUMPI PUSH1 0x0 DUP1 REVERT JUMPDEST DUP3 CALLDATALOAD SWAP2 POP PUSH1 0x20 DUP4 ADD CALLDATALOAD PUSH2 0x1CD4 DUP2 PUSH2 0x1C9A JUMP JUMPDEST DUP1 SWAP2 POP POP SWAP3 POP SWAP3 SWAP1 POP JUMP JUMPDEST PUSH1 0x0 PUSH1 0x20 DUP1 DUP4 MSTORE DUP4 MLOAD DUP1 DUP3 DUP6 ADD MSTORE PUSH1 0x0 JUMPDEST DUP2 DUP2 LT ISZERO PUSH2 0x1D0C JUMPI DUP6 DUP2 ADD DUP4 ADD MLOAD DUP6 DUP3 ADD PUSH1 0x40 ADD MSTORE DUP3 ADD PUSH2 0x1CF0 JUMP JUMPDEST POP PUSH1 0x0 PUSH1 0x40 DUP3 DUP7 ADD ADD MSTORE PUSH1 0x40 PUSH1 0x1F NOT PUSH1 0x1F DUP4 ADD AND DUP6 ADD ADD SWAP3 POP POP POP SWAP3 SWAP2 POP POP JUMP JUMPDEST PUSH1 0x0 PUSH1 0x20 DUP3 DUP5 SUB SLT ISZERO PUSH2 0x1D3F JUMPI PUSH1 0x0 DUP1 REVERT JUMPDEST POP CALLDATALOAD SWAP2 SWAP1 POP JUMP JUMPDEST DUP1 CALLDATALOAD PUSH2 0xFFFF DUP2 AND DUP2 EQ PUSH2 0x1D58 JUMPI PUSH1 0x0 DUP1 REVERT JUMPDEST SWAP2 SWAP1 POP JUMP JUMPDEST PUSH1 0x0 DUP1 PUSH1 0x0 PUSH1 0x60 DUP5 DUP7 SUB SLT ISZERO PUSH2 0x1D72 JUMPI PUSH1 0x0 DUP1 REVERT JUMPDEST DUP4 CALLDATALOAD SWAP3 POP PUSH1 0x20 DUP5 ADD CALLDATALOAD PUSH2 0x1D84 DUP2 PUSH2 0x1C9A JUMP JUMPDEST SWAP2 POP PUSH2 0x1D92 PUSH1 0x40 DUP6 ADD PUSH2 0x1D46 JUMP JUMPDEST SWAP1 POP SWAP3 POP SWAP3 POP SWAP3 JUMP JUMPDEST PUSH1 0x0 DUP1 PUSH1 0x40 DUP4 DUP6 SUB SLT ISZERO PUSH2 0x1DAE JUMPI PUSH1 0x0 DUP1 REVERT JUMPDEST DUP3 CALLDATALOAD PUSH2 0x1DB9 DUP2 PUSH2 0x1C9A JUMP JUMPDEST SWAP5 PUSH1 0x20 SWAP4 SWAP1 SWAP4 ADD CALLDATALOAD SWAP4 POP POP POP JUMP JUMPDEST PUSH1 0x0 DUP1 PUSH1 0x0 PUSH1 0x60 DUP5 DUP7 SUB SLT ISZERO PUSH2 0x1DDC JUMPI PUSH1 0x0 DUP1 REVERT JUMPDEST DUP4 CALLDATALOAD PUSH2 0x1DE7 DUP2 PUSH2 0x1C9A JUMP JUMPDEST SWAP3 POP PUSH1 0x20 DUP5 ADD CALLDATALOAD PUSH2 0x1DF7 DUP2 PUSH2 0x1C9A JUMP JUMPDEST SWAP3 SWAP6 SWAP3 SWAP5 POP POP POP PUSH1 0x40 SWAP2 SWAP1 SWAP2 ADD CALLDATALOAD SWAP1 JUMP JUMPDEST PUSH1 0x0 PUSH1 0x20 DUP3 DUP5 SUB SLT ISZERO PUSH2 0x1E1A JUMPI PUSH1 0x0 DUP1 REVERT JUMPDEST DUP2 CALLDATALOAD PUSH2 0x9A4 DUP2 PUSH2 0x1C9A JUMP JUMPDEST PUSH1 0x0 PUSH1 0x20 DUP3 DUP5 SUB SLT ISZERO PUSH2 0x1E37 JUMPI PUSH1 0x0 DUP1 REVERT JUMPDEST PUSH2 0x9A4 DUP3 PUSH2 0x1D46 JUMP JUMPDEST PUSH1 0x40 DUP1 DUP3 MSTORE DUP4 MLOAD DUP3 DUP3 ADD DUP2 SWAP1 MSTORE PUSH1 0x0 SWAP2 SWAP1 PUSH1 0x60 SWAP1 DUP2 DUP6 ADD SWAP1 PUSH1 0x20 DUP1 DUP10 ADD DUP7 JUMPDEST DUP4 DUP2 LT ISZERO PUSH2 0x1E7B JUMPI DUP2 MLOAD DUP6 MSTORE SWAP4 DUP3 ADD SWAP4 SWAP1 DUP3 ADD SWAP1 PUSH1 0x1 ADD PUSH2 0x1E5F JUMP JUMPDEST POP POP DUP7 DUP4 SUB DUP2 DUP9 ADD MSTORE DUP8 MLOAD DUP1 DUP5 MSTORE DUP9 DUP3 ADD SWAP4 DUP3 ADD SWAP3 POP PUSH1 0x0 JUMPDEST DUP2 DUP2 LT ISZERO PUSH2 0x1ED0 JUMPI DUP5 MLOAD DUP1 MLOAD PUSH1 0x1 PUSH1 0x1 PUSH1 0xA0 SHL SUB AND DUP6 MSTORE DUP4 DUP2 ADD MLOAD PUSH2 0xFFFF AND DUP5 DUP7 ADD MSTORE DUP8 ADD MLOAD ISZERO ISZERO DUP8 DUP6 ADD MSTORE SWAP4 DUP3 ADD SWAP4 SWAP3 DUP6 ADD SWAP3 PUSH1 0x1 ADD PUSH2 0x1E94 JUMP JUMPDEST POP SWAP2 SWAP10 SWAP9 POP POP POP POP POP POP POP POP POP JUMP JUMPDEST DUP1 ISZERO ISZERO DUP2 EQ PUSH2 0x100F JUMPI PUSH1 0x0 DUP1 REVERT JUMPDEST PUSH1 0x0 DUP1 PUSH1 0x0 PUSH1 0x60 DUP5 DUP7 SUB SLT ISZERO PUSH2 0x1F02 JUMPI PUSH1 0x0 DUP1 REVERT JUMPDEST DUP4 CALLDATALOAD SWAP3 POP PUSH2 0x1F12 PUSH1 0x20 DUP6 ADD PUSH2 0x1D46 JUMP JUMPDEST SWAP2 POP PUSH1 0x40 DUP5 ADD CALLDATALOAD PUSH2 0x1F22 DUP2 PUSH2 0x1EDF JUMP JUMPDEST DUP1 SWAP2 POP POP SWAP3 POP SWAP3 POP SWAP3 JUMP JUMPDEST PUSH1 0x0 DUP1 PUSH1 0x40 DUP4 DUP6 SUB SLT ISZERO PUSH2 0x1F40 JUMPI PUSH1 0x0 DUP1 REVERT JUMPDEST DUP3 CALLDATALOAD PUSH2 0x1F4B DUP2 PUSH2 0x1C9A JUMP JUMPDEST SWAP2 POP PUSH1 0x20 DUP4 ADD CALLDATALOAD PUSH2 0x1CD4 DUP2 PUSH2 0x1C9A JUMP JUMPDEST PUSH1 0x0 PUSH1 0x20 DUP3 DUP5 SUB SLT ISZERO PUSH2 0x1F6D JUMPI PUSH1 0x0 DUP1 REVERT JUMPDEST POP MLOAD SWAP2 SWAP1 POP JUMP JUMPDEST PUSH4 0x4E487B71 PUSH1 0xE0 SHL PUSH1 0x0 MSTORE PUSH1 0x32 PUSH1 0x4 MSTORE PUSH1 0x24 PUSH1 0x0 REVERT JUMPDEST PUSH4 0x4E487B71 PUSH1 0xE0 SHL PUSH1 0x0 MSTORE PUSH1 0x11 PUSH1 0x4 MSTORE PUSH1 0x24 PUSH1 0x0 REVERT JUMPDEST DUP1 DUP3 ADD DUP1 DUP3 GT ISZERO PUSH2 0xB8F JUMPI PUSH2 0xB8F PUSH2 0x1F8A JUMP JUMPDEST PUSH1 0x0 PUSH1 0x1 DUP3 ADD PUSH2 0x1FC5 JUMPI PUSH2 0x1FC5 PUSH2 0x1F8A JUMP JUMPDEST POP PUSH1 0x1 ADD SWAP1 JUMP JUMPDEST PUSH1 0x1 DUP2 DUP2 SHR SWAP1 DUP3 AND DUP1 PUSH2 0x1FE0 JUMPI PUSH1 0x7F DUP3 AND SWAP2 POP JUMPDEST PUSH1 0x20 DUP3 LT DUP2 SUB PUSH2 0x8D4 JUMPI PUSH4 0x4E487B71 PUSH1 0xE0 SHL PUSH1 0x0 MSTORE PUSH1 0x22 PUSH1 0x4 MSTORE PUSH1 0x24 PUSH1 0x0 REVERT JUMPDEST DUP1 DUP3 MUL DUP2 ISZERO DUP3 DUP3 DIV DUP5 EQ OR PUSH2 0xB8F JUMPI PUSH2 0xB8F PUSH2 0x1F8A JUMP JUMPDEST PUSH1 0x0 DUP3 PUSH2 0x2034 JUMPI PUSH4 0x4E487B71 PUSH1 0xE0 SHL PUSH1 0x0 MSTORE PUSH1 0x12 PUSH1 0x4 MSTORE PUSH1 0x24 PUSH1 0x0 REVERT JUMPDEST POP DIV SWAP1 JUMP JUMPDEST PUSH2 0xFFFF DUP3 DUP2 AND DUP3 DUP3 AND SUB SWAP1 DUP1 DUP3 GT ISZERO PUSH2 0x2054 JUMPI PUSH2 0x2054 PUSH2 0x1F8A JUMP JUMPDEST POP SWAP3 SWAP2 POP POP JUMP JUMPDEST PUSH1 0x20 DUP1 DUP3 MSTORE PUSH1 0x9 SWAP1 DUP3 ADD MSTORE PUSH9 0x616C6C6F633E63617 PUSH1 0xBC SHL PUSH1 0x40 DUP3 ADD MSTORE PUSH1 0x60 ADD SWAP1 JUMP JUMPDEST PUSH4 0x4E487B71 PUSH1 0xE0 SHL PUSH1 0x0 MSTORE PUSH1 0x41 PUSH1 0x4 MSTORE PUSH1 0x24 PUSH1 0x0 REVERT JUMPDEST DUP2 DUP2 SUB DUP2 DUP2 GT ISZERO PUSH2 0xB8F JUMPI PUSH2 0xB8F PUSH2 0x1F8A JUMP JUMPDEST PUSH1 0x0 PUSH1 0x20 DUP3 DUP5 SUB SLT ISZERO PUSH2 0x20B9 JUMPI PUSH1 0x0 DUP1 REVERT JUMPDEST DUP2 MLOAD PUSH2 0x9A4 DUP2 PUSH2 0x1EDF JUMP INVALID LOG2 PUSH5 0x6970667358 0x22 SLT KECCAK256 0xC CHAINID SWAP5 SWAP7 POP CREATE JUMPI OR 0xEC SELFBALANCE DUP15 SWAP5 SAR 0xCF 0x4E SIGNEXTEND 0xAD 0xF9 JUMPI 0x23 MUL CREATE 0x27 NOT AND SWAP14 0x5D PUSH28 0x63FCA68664736F6C6343000814003300000000000000000000000000 "},"methodIdentifiers":{"TOTAL_BPS()":"d3cd52bc","addStrategy(uint256,address,uint16)":"087a6ecd","allowance(address,address)":"dd62ed3e","approve(address,uint256)":"095ea7b3","asset()":"38d52e0f","balanceOf(address)":"70a08231","convertToAssets(uint256)":"07a2d13a","convertToShares(uint256)":"c6e6f592","decimals()":"313ce567","deposit(address)":"f340fa01","getStrategies()":"b49a60bb","name()":"06fdde03","owner()":"8da5cb5b","pause()":"8456cb59","paused()":"5c975abb","renounceOwnership()":"715018a6","reserveBps()":"38925449","setReserveBps(uint16)":"88739805","setStrategy(uint256,uint16,bool)":"ca1633a5","strategies(uint256)":"d574ea3d","strategyIds(uint256)":"2dc1eaf0","symbol()":"95d89b41","totalAssets()":"01e1d114","totalSupply()":"18160ddd","transfer(address,uint256)":"a9059cbb","transferFrom(address,address,uint256)":"23b872dd","transferOwnership(address)":"f2fde38b","unpause()":"3f4ba83a","withdraw(uint256,address)":"00f714ce"}}}}}