{
  "_format": "hh-sol-artifact-1",
  "contractName": "LavaMaximizedVault",
  "sourceName": "contracts/MagmaVault.sol",
  "abi": [
    {
      "inputs": [
        {
          "internalType": "contract IWcBTC",
          "name": "_wcbtc",
          "type": "address"
        },
        {
          "internalType": "contract IUSDC",
          "name": "_usdc",
          "type": "address"
        },
        {
          "internalType": "contract IZentraPool",
          "name": "_zentraPool",
          "type": "address"
        },
        {
          "internalType": "contract ISatsumaRouter",
          "name": "_satsumaRouter",
          "type": "address"
        },
        {
          "internalType": "contract IPriceOracle",
          "name": "_btcUsdOracle",
          "type": "address"
        }
      ],
      "stateMutability": "nonpayable",
      "type": "constructor"
    },
    {
      "inputs": [
        {
          "internalType": "address",
          "name": "spender",
          "type": "address"
        },
        {
          "internalType": "uint256",
          "name": "allowance",
          "type": "uint256"
        },
        {
          "internalType": "uint256",
          "name": "needed",
          "type": "uint256"
        }
      ],
      "name": "ERC20InsufficientAllowance",
      "type": "error"
    },
    {
      "inputs": [
        {
          "internalType": "address",
          "name": "sender",
          "type": "address"
        },
        {
          "internalType": "uint256",
          "name": "balance",
          "type": "uint256"
        },
        {
          "internalType": "uint256",
          "name": "needed",
          "type": "uint256"
        }
      ],
      "name": "ERC20InsufficientBalance",
      "type": "error"
    },
    {
      "inputs": [
        {
          "internalType": "address",
          "name": "approver",
          "type": "address"
        }
      ],
      "name": "ERC20InvalidApprover",
      "type": "error"
    },
    {
      "inputs": [
        {
          "internalType": "address",
          "name": "receiver",
          "type": "address"
        }
      ],
      "name": "ERC20InvalidReceiver",
      "type": "error"
    },
    {
      "inputs": [
        {
          "internalType": "address",
          "name": "sender",
          "type": "address"
        }
      ],
      "name": "ERC20InvalidSender",
      "type": "error"
    },
    {
      "inputs": [
        {
          "internalType": "address",
          "name": "spender",
          "type": "address"
        }
      ],
      "name": "ERC20InvalidSpender",
      "type": "error"
    },
    {
      "inputs": [],
      "name": "EnforcedPause",
      "type": "error"
    },
    {
      "inputs": [],
      "name": "ExpectedPause",
      "type": "error"
    },
    {
      "inputs": [
        {
          "internalType": "address",
          "name": "owner",
          "type": "address"
        }
      ],
      "name": "OwnableInvalidOwner",
      "type": "error"
    },
    {
      "inputs": [
        {
          "internalType": "address",
          "name": "account",
          "type": "address"
        }
      ],
      "name": "OwnableUnauthorizedAccount",
      "type": "error"
    },
    {
      "inputs": [],
      "name": "ReentrancyGuardReentrantCall",
      "type": "error"
    },
    {
      "anonymous": false,
      "inputs": [
        {
          "indexed": true,
          "internalType": "address",
          "name": "owner",
          "type": "address"
        },
        {
          "indexed": true,
          "internalType": "address",
          "name": "spender",
          "type": "address"
        },
        {
          "indexed": false,
          "internalType": "uint256",
          "name": "value",
          "type": "uint256"
        }
      ],
      "name": "Approval",
      "type": "event"
    },
    {
      "anonymous": false,
      "inputs": [
        {
          "indexed": true,
          "internalType": "address",
          "name": "user",
          "type": "address"
        },
        {
          "indexed": false,
          "internalType": "uint256",
          "name": "sharesBurnt",
          "type": "uint256"
        },
        {
          "indexed": false,
          "internalType": "uint256",
          "name": "assetsWithdrawn",
          "type": "uint256"
        },
        {
          "indexed": false,
          "internalType": "uint256",
          "name": "debtRepaid",
          "type": "uint256"
        }
      ],
      "name": "Deleveraged",
      "type": "event"
    },
    {
      "anonymous": false,
      "inputs": [
        {
          "indexed": false,
          "internalType": "uint256",
          "name": "collateralSold",
          "type": "uint256"
        },
        {
          "indexed": false,
          "internalType": "uint256",
          "name": "debtRepaid",
          "type": "uint256"
        },
        {
          "indexed": false,
          "internalType": "uint256",
          "name": "healthFactorBefore",
          "type": "uint256"
        }
      ],
      "name": "EmergencyDeleveraged",
      "type": "event"
    },
    {
      "anonymous": false,
      "inputs": [
        {
          "indexed": true,
          "internalType": "address",
          "name": "user",
          "type": "address"
        },
        {
          "indexed": false,
          "internalType": "uint256",
          "name": "initialDeposit",
          "type": "uint256"
        },
        {
          "indexed": false,
          "internalType": "uint256",
          "name": "leverageLoops",
          "type": "uint256"
        },
        {
          "indexed": false,
          "internalType": "uint256",
          "name": "finalCollateral",
          "type": "uint256"
        },
        {
          "indexed": false,
          "internalType": "uint256",
          "name": "totalDebt",
          "type": "uint256"
        }
      ],
      "name": "Leveraged",
      "type": "event"
    },
    {
      "anonymous": false,
      "inputs": [
        {
          "indexed": true,
          "internalType": "address",
          "name": "previousOwner",
          "type": "address"
        },
        {
          "indexed": true,
          "internalType": "address",
          "name": "newOwner",
          "type": "address"
        }
      ],
      "name": "OwnershipTransferred",
      "type": "event"
    },
    {
      "anonymous": false,
      "inputs": [
        {
          "indexed": false,
          "internalType": "address",
          "name": "account",
          "type": "address"
        }
      ],
      "name": "Paused",
      "type": "event"
    },
    {
      "anonymous": false,
      "inputs": [
        {
          "indexed": true,
          "internalType": "address",
          "name": "from",
          "type": "address"
        },
        {
          "indexed": true,
          "internalType": "address",
          "name": "to",
          "type": "address"
        },
        {
          "indexed": false,
          "internalType": "uint256",
          "name": "value",
          "type": "uint256"
        }
      ],
      "name": "Transfer",
      "type": "event"
    },
    {
      "anonymous": false,
      "inputs": [
        {
          "indexed": false,
          "internalType": "address",
          "name": "account",
          "type": "address"
        }
      ],
      "name": "Unpaused",
      "type": "event"
    },
    {
      "inputs": [],
      "name": "BTC_USD_ORACLE",
      "outputs": [
        {
          "internalType": "contract IPriceOracle",
          "name": "",
          "type": "address"
        }
      ],
      "stateMutability": "view",
      "type": "function"
    },
    {
      "inputs": [],
      "name": "SATSUMA_ROUTER",
      "outputs": [
        {
          "internalType": "contract ISatsumaRouter",
          "name": "",
          "type": "address"
        }
      ],
      "stateMutability": "view",
      "type": "function"
    },
    {
      "inputs": [],
      "name": "USDC",
      "outputs": [
        {
          "internalType": "contract IUSDC",
          "name": "",
          "type": "address"
        }
      ],
      "stateMutability": "view",
      "type": "function"
    },
    {
      "inputs": [],
      "name": "ZENTRA_POOL",
      "outputs": [
        {
          "internalType": "contract IZentraPool",
          "name": "",
          "type": "address"
        }
      ],
      "stateMutability": "view",
      "type": "function"
    },
    {
      "inputs": [],
      "name": "activeStrategy",
      "outputs": [
        {
          "internalType": "uint256",
          "name": "",
          "type": "uint256"
        }
      ],
      "stateMutability": "view",
      "type": "function"
    },
    {
      "inputs": [
        {
          "internalType": "address",
          "name": "owner",
          "type": "address"
        },
        {
          "internalType": "address",
          "name": "spender",
          "type": "address"
        }
      ],
      "name": "allowance",
      "outputs": [
        {
          "internalType": "uint256",
          "name": "",
          "type": "uint256"
        }
      ],
      "stateMutability": "view",
      "type": "function"
    },
    {
      "inputs": [
        {
          "internalType": "address",
          "name": "spender",
          "type": "address"
        },
        {
          "internalType": "uint256",
          "name": "value",
          "type": "uint256"
        }
      ],
      "name": "approve",
      "outputs": [
        {
          "internalType": "bool",
          "name": "",
          "type": "bool"
        }
      ],
      "stateMutability": "nonpayable",
      "type": "function"
    },
    {
      "inputs": [],
      "name": "asset",
      "outputs": [
        {
          "internalType": "contract IWcBTC",
          "name": "",
          "type": "address"
        }
      ],
      "stateMutability": "view",
      "type": "function"
    },
    {
      "inputs": [
        {
          "internalType": "address",
          "name": "account",
          "type": "address"
        }
      ],
      "name": "balanceOf",
      "outputs": [
        {
          "internalType": "uint256",
          "name": "",
          "type": "uint256"
        }
      ],
      "stateMutability": "view",
      "type": "function"
    },
    {
      "inputs": [
        {
          "internalType": "uint256",
          "name": "shares",
          "type": "uint256"
        }
      ],
      "name": "convertToAssets",
      "outputs": [
        {
          "internalType": "uint256",
          "name": "",
          "type": "uint256"
        }
      ],
      "stateMutability": "view",
      "type": "function"
    },
    {
      "inputs": [
        {
          "internalType": "uint256",
          "name": "assets",
          "type": "uint256"
        }
      ],
      "name": "convertToShares",
      "outputs": [
        {
          "internalType": "uint256",
          "name": "",
          "type": "uint256"
        }
      ],
      "stateMutability": "view",
      "type": "function"
    },
    {
      "inputs": [],
      "name": "decimals",
      "outputs": [
        {
          "internalType": "uint8",
          "name": "",
          "type": "uint8"
        }
      ],
      "stateMutability": "view",
      "type": "function"
    },
    {
      "inputs": [
        {
          "internalType": "uint256",
          "name": "_leverageLoops",
          "type": "uint256"
        },
        {
          "internalType": "address",
          "name": "receiver",
          "type": "address"
        }
      ],
      "name": "deposit",
      "outputs": [],
      "stateMutability": "payable",
      "type": "function"
    },
    {
      "inputs": [],
      "name": "emergencyDeleverage",
      "outputs": [],
      "stateMutability": "nonpayable",
      "type": "function"
    },
    {
      "inputs": [],
      "name": "getBtcPrice",
      "outputs": [
        {
          "internalType": "uint256",
          "name": "",
          "type": "uint256"
        }
      ],
      "stateMutability": "pure",
      "type": "function"
    },
    {
      "inputs": [],
      "name": "getHealthFactor",
      "outputs": [
        {
          "internalType": "uint256",
          "name": "",
          "type": "uint256"
        }
      ],
      "stateMutability": "view",
      "type": "function"
    },
    {
      "inputs": [],
      "name": "getLeverageRatio",
      "outputs": [
        {
          "internalType": "uint256",
          "name": "",
          "type": "uint256"
        }
      ],
      "stateMutability": "view",
      "type": "function"
    },
    {
      "inputs": [
        {
          "internalType": "address",
          "name": "",
          "type": "address"
        }
      ],
      "name": "maxDeposit",
      "outputs": [
        {
          "internalType": "uint256",
          "name": "",
          "type": "uint256"
        }
      ],
      "stateMutability": "pure",
      "type": "function"
    },
    {
      "inputs": [
        {
          "internalType": "address",
          "name": "",
          "type": "address"
        }
      ],
      "name": "maxMint",
      "outputs": [
        {
          "internalType": "uint256",
          "name": "",
          "type": "uint256"
        }
      ],
      "stateMutability": "pure",
      "type": "function"
    },
    {
      "inputs": [
        {
          "internalType": "address",
          "name": "owner",
          "type": "address"
        }
      ],
      "name": "maxRedeem",
      "outputs": [
        {
          "internalType": "uint256",
          "name": "",
          "type": "uint256"
        }
      ],
      "stateMutability": "view",
      "type": "function"
    },
    {
      "inputs": [
        {
          "internalType": "address",
          "name": "owner",
          "type": "address"
        }
      ],
      "name": "maxWithdraw",
      "outputs": [
        {
          "internalType": "uint256",
          "name": "",
          "type": "uint256"
        }
      ],
      "stateMutability": "view",
      "type": "function"
    },
    {
      "inputs": [],
      "name": "name",
      "outputs": [
        {
          "internalType": "string",
          "name": "",
          "type": "string"
        }
      ],
      "stateMutability": "view",
      "type": "function"
    },
    {
      "inputs": [],
      "name": "owner",
      "outputs": [
        {
          "internalType": "address",
          "name": "",
          "type": "address"
        }
      ],
      "stateMutability": "view",
      "type": "function"
    },
    {
      "inputs": [],
      "name": "pause",
      "outputs": [],
      "stateMutability": "nonpayable",
      "type": "function"
    },
    {
      "inputs": [],
      "name": "paused",
      "outputs": [
        {
          "internalType": "bool",
          "name": "",
          "type": "bool"
        }
      ],
      "stateMutability": "view",
      "type": "function"
    },
    {
      "inputs": [
        {
          "internalType": "uint256",
          "name": "assets",
          "type": "uint256"
        }
      ],
      "name": "previewDeposit",
      "outputs": [
        {
          "internalType": "uint256",
          "name": "",
          "type": "uint256"
        }
      ],
      "stateMutability": "view",
      "type": "function"
    },
    {
      "inputs": [
        {
          "internalType": "uint256",
          "name": "shares",
          "type": "uint256"
        }
      ],
      "name": "previewMint",
      "outputs": [
        {
          "internalType": "uint256",
          "name": "",
          "type": "uint256"
        }
      ],
      "stateMutability": "view",
      "type": "function"
    },
    {
      "inputs": [
        {
          "internalType": "uint256",
          "name": "shares",
          "type": "uint256"
        }
      ],
      "name": "previewRedeem",
      "outputs": [
        {
          "internalType": "uint256",
          "name": "",
          "type": "uint256"
        }
      ],
      "stateMutability": "view",
      "type": "function"
    },
    {
      "inputs": [
        {
          "internalType": "uint256",
          "name": "assets",
          "type": "uint256"
        }
      ],
      "name": "previewWithdraw",
      "outputs": [
        {
          "internalType": "uint256",
          "name": "",
          "type": "uint256"
        }
      ],
      "stateMutability": "view",
      "type": "function"
    },
    {
      "inputs": [],
      "name": "renounceOwnership",
      "outputs": [],
      "stateMutability": "nonpayable",
      "type": "function"
    },
    {
      "inputs": [
        {
          "internalType": "uint256",
          "name": "_strategyId",
          "type": "uint256"
        }
      ],
      "name": "setActiveStrategy",
      "outputs": [],
      "stateMutability": "nonpayable",
      "type": "function"
    },
    {
      "inputs": [],
      "name": "symbol",
      "outputs": [
        {
          "internalType": "string",
          "name": "",
          "type": "string"
        }
      ],
      "stateMutability": "view",
      "type": "function"
    },
    {
      "inputs": [],
      "name": "totalAssets",
      "outputs": [
        {
          "internalType": "uint256",
          "name": "",
          "type": "uint256"
        }
      ],
      "stateMutability": "view",
      "type": "function"
    },
    {
      "inputs": [],
      "name": "totalCollateral",
      "outputs": [
        {
          "internalType": "uint256",
          "name": "",
          "type": "uint256"
        }
      ],
      "stateMutability": "view",
      "type": "function"
    },
    {
      "inputs": [],
      "name": "totalDebtInUsd",
      "outputs": [
        {
          "internalType": "uint256",
          "name": "",
          "type": "uint256"
        }
      ],
      "stateMutability": "view",
      "type": "function"
    },
    {
      "inputs": [],
      "name": "totalSupply",
      "outputs": [
        {
          "internalType": "uint256",
          "name": "",
          "type": "uint256"
        }
      ],
      "stateMutability": "view",
      "type": "function"
    },
    {
      "inputs": [
        {
          "internalType": "address",
          "name": "to",
          "type": "address"
        },
        {
          "internalType": "uint256",
          "name": "value",
          "type": "uint256"
        }
      ],
      "name": "transfer",
      "outputs": [
        {
          "internalType": "bool",
          "name": "",
          "type": "bool"
        }
      ],
      "stateMutability": "nonpayable",
      "type": "function"
    },
    {
      "inputs": [
        {
          "internalType": "address",
          "name": "from",
          "type": "address"
        },
        {
          "internalType": "address",
          "name": "to",
          "type": "address"
        },
        {
          "internalType": "uint256",
          "name": "value",
          "type": "uint256"
        }
      ],
      "name": "transferFrom",
      "outputs": [
        {
          "internalType": "bool",
          "name": "",
          "type": "bool"
        }
      ],
      "stateMutability": "nonpayable",
      "type": "function"
    },
    {
      "inputs": [
        {
          "internalType": "address",
          "name": "newOwner",
          "type": "address"
        }
      ],
      "name": "transferOwnership",
      "outputs": [],
      "stateMutability": "nonpayable",
      "type": "function"
    },
    {
      "inputs": [],
      "name": "unpause",
      "outputs": [],
      "stateMutability": "nonpayable",
      "type": "function"
    },
    {
      "inputs": [
        {
          "internalType": "uint256",
          "name": "shares",
          "type": "uint256"
        },
        {
          "internalType": "address",
          "name": "receiver",
          "type": "address"
        }
      ],
      "name": "withdraw",
      "outputs": [],
      "stateMutability": "nonpayable",
      "type": "function"
    },
    {
      "stateMutability": "payable",
      "type": "receive"
    }
  ],
  "bytecode": "0x6101206040523480156200001257600080fd5b5060405162002ce938038062002ce983398101604081905262000035916200027c565b336040518060400160405280601381526020017f4c617661204d6178696d697a6564206342544300000000000000000000000000815250604051806040016040528060058152602001646d6342544360d81b81525081600390816200009b9190620003a1565b506004620000aa8282620003a1565b50506001600555506001600160a01b038116620000e157604051631e4fbdf760e01b81526000600482015260240160405180910390fd5b620000ec8162000209565b506001600160a01b03858116608081905285821660a05284821660c081905284831660e0529183166101005260405163095ea7b360e01b8152600481019290925260001960248301529063095ea7b3906044016020604051808303816000875af11580156200015f573d6000803e3d6000fd5b505050506040513d601f19601f820116820180604052508101906200018591906200046d565b5060405163095ea7b360e01b81526001600160a01b038381166004830152600019602483015286169063095ea7b3906044016020604051808303816000875af1158015620001d7573d6000803e3d6000fd5b505050506040513d601f19601f82011682018060405250810190620001fd91906200046d565b50505050505062000498565b600680546001600160a01b03838116610100818102610100600160a81b031985161790945560405193909204169182907f8be0079c531659141344cd1fd0a4f28419497f9722a3daafe3b4186f6b6457e090600090a35050565b6001600160a01b03811681146200027957600080fd5b50565b600080600080600060a086880312156200029557600080fd5b8551620002a28162000263565b6020870151909550620002b58162000263565b6040870151909450620002c88162000263565b6060870151909350620002db8162000263565b6080870151909250620002ee8162000263565b809150509295509295909350565b634e487b7160e01b600052604160045260246000fd5b600181811c908216806200032757607f821691505b6020821081036200034857634e487b7160e01b600052602260045260246000fd5b50919050565b601f8211156200039c57600081815260208120601f850160051c81016020861015620003775750805b601f850160051c820191505b81811015620003985782815560010162000383565b5050505b505050565b81516001600160401b03811115620003bd57620003bd620002fc565b620003d581620003ce845462000312565b846200034e565b602080601f8311600181146200040d5760008415620003f45750858301515b600019600386901b1c1916600185901b17855562000398565b600085815260208120601f198616915b828110156200043e578886015182559484019460019091019084016200041d565b50858210156200045d5787850151600019600388901b60f8161c191681555b5050505050600190811b01905550565b6000602082840312156200048057600080fd5b815180151581146200049157600080fd5b9392505050565b60805160a05160c05160e0516101005161271e620005cb60003960008181610626015261095f01526000818161057d015281816111060152818161123b015281816116d90152818161181101528181611e1c0152611f540152600081816106b001528181610ecd0152818161106a0152818161130b015281816115de015281816118f501528181611b9601528181611c2d01528181611d800152612024015260008181610526015281816111dd015281816112cb015281816117b0015281816118b301528181611d3a01528181611e4b0152611ece0152600081816103a9015281816107f801528181610d870152818161103501528181611135015281816111b8015281816115a6015281816117080152818161178b01528181611b5a01528181611ef30152611fe5015261271e6000f3fe6080604052600436106102495760003560e01c8063715018a611610139578063b3d7f6b9116100b6578063ce96cb771161007a578063ce96cb771461067e578063d4fcd7421461069e578063d905777e146106d2578063dd62ed3e146106f2578063ef8b30f714610326578063f2fde38b1461073857600080fd5b8063b3d7f6b914610469578063b6e20a6a14610614578063c63d75b614610411578063c6e6f59214610648578063cd3c42551461066857600080fd5b806395d89b41116100fd57806395d89b411461059f578063999e9eee146105b4578063a5f352b7146105ca578063a6f84afc146105df578063a9059cbb146105f457600080fd5b8063715018a6146104ea5780638456cb59146104ff57806389a30271146105145780638da5cb5b14610548578063904c1fd11461056b57600080fd5b806338d52e0f116101c75780634ac8eb5f1161018b5780634ac8eb5f146104535780634cdad506146104695780635c975abb146104895780636e553f65146104a157806370a08231146104b457600080fd5b806338d52e0f146103975780633a3610bc146103e35780633f4ba83a146103fc578063402d267d1461041157806349e7d9581461043357600080fd5b8063095ea7b31161020e578063095ea7b3146102f65780630a28a4771461032657806318160ddd1461034657806323b872dd1461035b578063313ce5671461037b57600080fd5b8062f714ce1461025557806301e1d11414610277578063046810ac1461029f57806306fdde03146102b457806307a2d13a146102d657600080fd5b3661025057005b600080fd5b34801561026157600080fd5b5061027561027036600461238a565b610758565b005b34801561028357600080fd5b5061028c610949565b6040519081526020015b60405180910390f35b3480156102ab57600080fd5b5061028c610a4b565b3480156102c057600080fd5b506102c9610ae5565b60405161029691906123b6565b3480156102e257600080fd5b5061028c6102f1366004612404565b610b77565b34801561030257600080fd5b5061031661031136600461241d565b610bb6565b6040519015158152602001610296565b34801561033257600080fd5b5061028c610341366004612404565b610bd0565b34801561035257600080fd5b5060025461028c565b34801561036757600080fd5b50610316610376366004612447565b610bdb565b34801561038757600080fd5b5060405160128152602001610296565b3480156103a357600080fd5b506103cb7f000000000000000000000000000000000000000000000000000000000000000081565b6040516001600160a01b039091168152602001610296565b3480156103ef57600080fd5b50650ae248c8b60061028c565b34801561040857600080fd5b50610275610bff565b34801561041d57600080fd5b5061028c61042c366004612483565b5060001990565b34801561043f57600080fd5b5061027561044e366004612404565b610c11565b34801561045f57600080fd5b5061028c60085481565b34801561047557600080fd5b5061028c610484366004612404565b610cbd565b34801561049557600080fd5b5060065460ff16610316565b6102756104af36600461238a565b610cc8565b3480156104c057600080fd5b5061028c6104cf366004612483565b6001600160a01b031660009081526020819052604090205490565b3480156104f657600080fd5b50610275610e78565b34801561050b57600080fd5b50610275610e8a565b34801561052057600080fd5b506103cb7f000000000000000000000000000000000000000000000000000000000000000081565b34801561055457600080fd5b5060065461010090046001600160a01b03166103cb565b34801561057757600080fd5b506103cb7f000000000000000000000000000000000000000000000000000000000000000081565b3480156105ab57600080fd5b506102c9610e9a565b3480156105c057600080fd5b5061028c60095481565b3480156105d657600080fd5b5061028c610ea9565b3480156105eb57600080fd5b50610275610f4b565b34801561060057600080fd5b5061031661060f36600461241d565b6113eb565b34801561062057600080fd5b506103cb7f000000000000000000000000000000000000000000000000000000000000000081565b34801561065457600080fd5b5061028c610663366004612404565b6113f9565b34801561067457600080fd5b5061028c60075481565b34801561068a57600080fd5b5061028c610699366004612483565b61141f565b3480156106aa57600080fd5b506103cb7f000000000000000000000000000000000000000000000000000000000000000081565b3480156106de57600080fd5b5061028c6106ed366004612483565b611441565b3480156106fe57600080fd5b5061028c61070d36600461249e565b6001600160a01b03918216600090815260016020908152604080832093909416825291909152205490565b34801561074457600080fd5b50610275610753366004612483565b61145f565b61076061149a565b6107686114c4565b600061077383610b77565b9050600081116107ca5760405162461bcd60e51b815260206004820152601b60248201527f576974686472617720616d6f756e74206d757374206265203e2030000000000060448201526064015b60405180910390fd5b6107d433846114e8565b60006107df8261151e565b604051632e1a7d4d60e01b8152600481018490529091507f00000000000000000000000000000000000000000000000000000000000000006001600160a01b031690632e1a7d4d90602401600060405180830381600087803b15801561084457600080fd5b505af1158015610858573d6000803e3d6000fd5b505050506000836001600160a01b03168360405160006040518083038185875af1925050503d80600081146108a9576040519150601f19603f3d011682016040523d82523d6000602084013e6108ae565b606091505b50509050806108f55760405162461bcd60e51b81526020600482015260136024820152724661696c656420746f2073656e64206342544360681b60448201526064016107c1565b604080518681526020810185905290810183905233907ff06ef9147bbc9528abee514129a4ff452e05f83ba2fcef01b426caa043fda8d69060600160405180910390a25050506109456001600555565b5050565b600060085460000361095b5750600090565b60007f00000000000000000000000000000000000000000000000000000000000000006001600160a01b031663feaf968c6040518163ffffffff1660e01b815260040160a060405180830381865afa1580156109bb573d6000803e3d6000fd5b505050506040513d601f19601f820116820180604052508101906109df91906124e2565b50505091505060006305f5e100826008546109fa9190612548565b610a04919061255f565b90506009548111610a185760009250505090565b600060095482610a289190612581565b905082610a39826305f5e100612548565b610a43919061255f565b935050505090565b6000600854600003610a645750670de0b6b3a764000090565b60006305f5e100650ae248c8b600600854610a7f9190612548565b610a89919061255f565b90508060095410610a9d5760001991505090565b600954600003610ab657670de0b6b3a764000091505090565b600954610ac39082612581565b610ad582670de0b6b3a7640000612548565b610adf919061255f565b91505090565b606060038054610af490612594565b80601f0160208091040260200160405190810160405280929190818152602001828054610b2090612594565b8015610b6d5780601f10610b4257610100808354040283529160200191610b6d565b820191906000526020600020905b815481529060010190602001808311610b5057829003601f168201915b5050505050905090565b600080610b8360025490565b90508015610bad5780610b94610949565b610b9e9085612548565b610ba8919061255f565b610baf565b825b9392505050565b600033610bc4818585611998565b60019150505b92915050565b6000610bca826113f9565b600033610be98582856119aa565b610bf4858585611a29565b506001949350505050565b610c07611a88565b610c0f611abb565b565b610c19611a88565b610c21610949565b15610c645760405162461bcd60e51b81526020600482015260136024820152725661756c74206d75737420626520656d70747960681b60448201526064016107c1565b60038110158015610c76575060058111155b610cb85760405162461bcd60e51b8152602060048201526013602482015272125b9d985b1a59081cdd1c985d1959de481251606a1b60448201526064016107c1565b600755565b6000610bca82610b77565b610cd061149a565b610cd86114c4565b600754600314610d3a5760405162461bcd60e51b815260206004820152602760248201527f4f6e6c79205a656e747261204c657665726167652073747261746567792069736044820152662061637469766560c81b60648201526084016107c1565b60003411610d805760405162461bcd60e51b815260206004820152601360248201527204465706f736974206d757374206265203e203606c1b60448201526064016107c1565b60003490507f00000000000000000000000000000000000000000000000000000000000000006001600160a01b031663d0e30db0826040518263ffffffff1660e01b81526004016000604051808303818588803b158015610de057600080fd5b505af1158015610df4573d6000803e3d6000fd5b5050505050610e0b82610e06836113f9565b611b0d565b610e158184611b43565b60085460095460408051848152602081018790529081019290925260608201526001600160a01b038316907f0d5e40aa2567d2e89bd707a3649e7bd10c2b3d15d9269f06112be9b2b895338a9060800160405180910390a2506109456001600555565b610e80611a88565b610c0f60006120b5565b610e92611a88565b610c0f61210f565b606060048054610af490612594565b600060075460030361042c57604051632fe4a15f60e21b81523060048201526000907f00000000000000000000000000000000000000000000000000000000000000006001600160a01b03169063bf92857c9060240160c060405180830381865afa158015610f1c573d6000803e3d6000fd5b505050506040513d601f19601f82011682018060405250810190610f4091906125ce565b979650505050505050565b610f53611a88565b6000610f5d610ea9565b9050670f43fc2c04ee00008110610fb65760405162461bcd60e51b815260206004820152601a60248201527f4865616c746820666163746f72206e6f7420637269746963616c00000000000060448201526064016107c1565b600954156113e857600064e8d4a51000600954610fd3919061255f565b905060006064650ae248c8b600610fee846305f5e100612548565b610ff8919061255f565b611003906069612548565b61100d919061255f565b905060085481111561101e57506008545b604051631a4ca37b60e21b81526001600160a01b037f000000000000000000000000000000000000000000000000000000000000000081166004830152602482018390523060448301527f000000000000000000000000000000000000000000000000000000000000000016906369328dec906064016020604051808303816000875af11580156110b3573d6000803e3d6000fd5b505050506040513d601f19601f820116820180604052508101906110d79190612618565b5080600860008282546110ea9190612581565b909155505060405163095ea7b360e01b81526001600160a01b037f000000000000000000000000000000000000000000000000000000000000000081166004830152602482018390527f0000000000000000000000000000000000000000000000000000000000000000169063095ea7b3906044016020604051808303816000875af115801561117e573d6000803e3d6000fd5b505050506040513d601f19601f820116820180604052508101906111a29190612631565b5060408051610100810182526001600160a01b037f0000000000000000000000000000000000000000000000000000000000000000811682527f000000000000000000000000000000000000000000000000000000000000000081166020830152610bb88284015230606083015242608083015260a08201849052600060c0830181905260e0830152915163414bf38960e01b815290917f0000000000000000000000000000000000000000000000000000000000000000169063414bf38990611270908490600401612653565b6020604051808303816000875af115801561128f573d6000803e3d6000fd5b505050506040513d601f19601f820116820180604052508101906112b39190612618565b5060405163573ade8160e01b81526001600160a01b037f0000000000000000000000000000000000000000000000000000000000000000811660048301526000196024830152600260448301523060648301526000917f00000000000000000000000000000000000000000000000000000000000000009091169063573ade81906084016020604051808303816000875af1158015611356573d6000803e3d6000fd5b505050506040513d601f19601f8201168201806040525081019061137a9190612618565b6113899064e8d4a51000612548565b9050806009600082825461139d9190612581565b909155505060408051848152602081018390529081018690527f325d282018b90db35ab640d71430f3cbefe49a9ad1ab195e02edf8e43f829ac89060600160405180910390a1505050505b50565b600033610bc4818585611a29565b60008061140560025490565b90508015610bad57611415610949565b610b9e8285612548565b6001600160a01b038116600090815260208190526040812054610bca90610b77565b6001600160a01b038116600090815260208190526040812054610bca565b611467611a88565b6001600160a01b03811661149157604051631e4fbdf760e01b8152600060048201526024016107c1565b6113e8816120b5565b6002600554036114bd57604051633ee5aeb560e01b815260040160405180910390fd5b6002600555565b60065460ff1615610c0f5760405163d93c066560e01b815260040160405180910390fd5b6001600160a01b03821661151257604051634b637e8f60e11b8152600060048201526024016107c1565b6109458260008361214c565b60008160085410156115725760405162461bcd60e51b815260206004820152601b60248201527f5769746864726177206578636565647320636f6c6c61746572616c000000000060448201526064016107c1565b6000600854836009546115859190612548565b61158f919061255f565b604051631a4ca37b60e21b81526001600160a01b037f000000000000000000000000000000000000000000000000000000000000000081166004830152602482018690523060448301529192507f0000000000000000000000000000000000000000000000000000000000000000909116906369328dec906064016020604051808303816000875af1158015611629573d6000803e3d6000fd5b505050506040513d601f19601f8201168201806040525081019061164d9190612618565b5082600860008282546116609190612581565b909155506000905061167764e8d4a510008361255f565b90508015611991576000611692650ae248c8b6006064612548565b6116a0836305f5e100612548565b6116ab906065612548565b6116b5919061255f565b9050848111156116c25750835b60405163095ea7b360e01b81526001600160a01b037f000000000000000000000000000000000000000000000000000000000000000081166004830152602482018390527f0000000000000000000000000000000000000000000000000000000000000000169063095ea7b3906044016020604051808303816000875af1158015611751573d6000803e3d6000fd5b505050506040513d601f19601f820116820180604052508101906117759190612631565b5060408051610100810182526001600160a01b037f0000000000000000000000000000000000000000000000000000000000000000811682527f000000000000000000000000000000000000000000000000000000000000000081166020830152610bb88284015230606083015242608083015260a08201849052600060c0830181905260e08301819052925163414bf38960e01b81529192917f00000000000000000000000000000000000000000000000000000000000000009091169063414bf38990611848908590600401612653565b6020604051808303816000875af1158015611867573d6000803e3d6000fd5b505050506040513d601f19601f8201168201806040525081019061188b9190612618565b905083811061189a578361189c565b805b60405163573ade8160e01b81526001600160a01b037f00000000000000000000000000000000000000000000000000000000000000008116600483015260248201839052600260448301523060648301529195506000917f0000000000000000000000000000000000000000000000000000000000000000169063573ade81906084016020604051808303816000875af115801561193e573d6000803e3d6000fd5b505050506040513d601f19601f820116820180604052508101906119629190612618565b90506119738164e8d4a51000612548565b965086600960008282546119879190612581565b9091555050505050505b5050919050565b6119a58383836001612276565b505050565b6001600160a01b03838116600090815260016020908152604080832093861683529290522054600019811015611a235781811015611a1457604051637dc7a0d960e11b81526001600160a01b038416600482015260248101829052604481018390526064016107c1565b611a2384848484036000612276565b50505050565b6001600160a01b038316611a5357604051634b637e8f60e11b8152600060048201526024016107c1565b6001600160a01b038216611a7d5760405163ec442f0560e01b8152600060048201526024016107c1565b6119a583838361214c565b6006546001600160a01b03610100909104163314610c0f5760405163118cdaa760e01b81523360048201526024016107c1565b611ac361234b565b6006805460ff191690557f5db9ee0a495bf2e6ff9c91a7834c1ba4fdd244a5e8aa4e537bd38aeae4b073aa335b6040516001600160a01b03909116815260200160405180910390a1565b6001600160a01b038216611b375760405163ec442f0560e01b8152600060048201526024016107c1565b6109456000838361214c565b60405163617ba03760e01b81526001600160a01b037f00000000000000000000000000000000000000000000000000000000000000008116600483015260248201849052306044830152600060648301527f0000000000000000000000000000000000000000000000000000000000000000169063617ba03790608401600060405180830381600087803b158015611bda57600080fd5b505af1158015611bee573d6000803e3d6000fd5b505050508160086000828254611c0491906126bc565b90915550600090505b818110156119a557604051632fe4a15f60e21b81523060048201526000907f00000000000000000000000000000000000000000000000000000000000000006001600160a01b03169063bf92857c9060240160c060405180830381865afa158015611c7c573d6000803e3d6000fd5b505050506040513d601f19601f82011682018060405250810190611ca091906125ce565b5094505050505060006305f5e100611cbb650ae248c8b60090565b600854611cc89190612548565b611cd2919061255f565b90506000612710611ce38484612548565b611ced919061255f565b90506009548111611d0057505050505050565b600060095482611d109190612581565b90506000611d2364e8d4a510008361255f565b60405163a415bcad60e01b81526001600160a01b037f0000000000000000000000000000000000000000000000000000000000000000811660048301526024820183905260026044830152600060648301523060848301529192507f00000000000000000000000000000000000000000000000000000000000000009091169063a415bcad9060a401600060405180830381600087803b158015611dc657600080fd5b505af1158015611dda573d6000803e3d6000fd5b505050508064e8d4a51000611def9190612548565b60096000828254611e0091906126bc565b909155505060405163095ea7b360e01b81526001600160a01b037f000000000000000000000000000000000000000000000000000000000000000081166004830152602482018390527f0000000000000000000000000000000000000000000000000000000000000000169063095ea7b3906044016020604051808303816000875af1158015611e94573d6000803e3d6000fd5b505050506040513d601f19601f82011682018060405250810190611eb89190612631565b5060408051610100810182526001600160a01b037f0000000000000000000000000000000000000000000000000000000000000000811682527f000000000000000000000000000000000000000000000000000000000000000081166020830152610bb88284015230606083015242608083015260a08201849052600060c0830181905260e08301819052925163414bf38960e01b81529192917f00000000000000000000000000000000000000000000000000000000000000009091169063414bf38990611f8b908590600401612653565b6020604051808303816000875af1158015611faa573d6000803e3d6000fd5b505050506040513d601f19601f82011682018060405250810190611fce9190612618565b60405163617ba03760e01b81526001600160a01b037f00000000000000000000000000000000000000000000000000000000000000008116600483015260248201839052306044830152600060648301529192507f00000000000000000000000000000000000000000000000000000000000000009091169063617ba03790608401600060405180830381600087803b15801561206a57600080fd5b505af115801561207e573d6000803e3d6000fd5b50505050806008600082825461209491906126bc565b925050819055505050505050505080806120ad906126cf565b915050611c0d565b600680546001600160a01b03838116610100818102610100600160a81b031985161790945560405193909204169182907f8be0079c531659141344cd1fd0a4f28419497f9722a3daafe3b4186f6b6457e090600090a35050565b6121176114c4565b6006805460ff191660011790557f62e78cea01bee320cd4e420270b5ea74000d11b0c9f74754ebdbfc544b05a258611af03390565b6001600160a01b03831661217757806002600082825461216c91906126bc565b909155506121e99050565b6001600160a01b038316600090815260208190526040902054818110156121ca5760405163391434e360e21b81526001600160a01b038516600482015260248101829052604481018390526064016107c1565b6001600160a01b03841660009081526020819052604090209082900390555b6001600160a01b03821661220557600280548290039055612224565b6001600160a01b03821660009081526020819052604090208054820190555b816001600160a01b0316836001600160a01b03167fddf252ad1be2c89b69c2b068fc378daa952ba7f163c4a11628f55a4df523b3ef8360405161226991815260200190565b60405180910390a3505050565b6001600160a01b0384166122a05760405163e602df0560e01b8152600060048201526024016107c1565b6001600160a01b0383166122ca57604051634a1406b160e11b8152600060048201526024016107c1565b6001600160a01b0380851660009081526001602090815260408083209387168352929052208290558015611a2357826001600160a01b0316846001600160a01b03167f8c5be1e5ebec7d5bd14f71427d1e84f3dd0314c0f7b2291e5b200ac8c7c3b9258460405161233d91815260200190565b60405180910390a350505050565b60065460ff16610c0f57604051638dfc202b60e01b815260040160405180910390fd5b80356001600160a01b038116811461238557600080fd5b919050565b6000806040838503121561239d57600080fd5b823591506123ad6020840161236e565b90509250929050565b600060208083528351808285015260005b818110156123e3578581018301518582016040015282016123c7565b506000604082860101526040601f19601f8301168501019250505092915050565b60006020828403121561241657600080fd5b5035919050565b6000806040838503121561243057600080fd5b6124398361236e565b946020939093013593505050565b60008060006060848603121561245c57600080fd5b6124658461236e565b92506124736020850161236e565b9150604084013590509250925092565b60006020828403121561249557600080fd5b610baf8261236e565b600080604083850312156124b157600080fd5b6124ba8361236e565b91506123ad6020840161236e565b805169ffffffffffffffffffff8116811461238557600080fd5b600080600080600060a086880312156124fa57600080fd5b612503866124c8565b9450602086015193506040860151925060608601519150612526608087016124c8565b90509295509295909350565b634e487b7160e01b600052601160045260246000fd5b8082028115828204841417610bca57610bca612532565b60008261257c57634e487b7160e01b600052601260045260246000fd5b500490565b81810381811115610bca57610bca612532565b600181811c908216806125a857607f821691505b6020821081036125c857634e487b7160e01b600052602260045260246000fd5b50919050565b60008060008060008060c087890312156125e757600080fd5b865195506020870151945060408701519350606087015192506080870151915060a087015190509295509295509295565b60006020828403121561262a57600080fd5b5051919050565b60006020828403121561264357600080fd5b81518015158114610baf57600080fd5b81516001600160a01b03908116825260208084015182169083015260408084015162ffffff16908301526060808401518216908301526080808401519083015260a0838101519083015260c0808401519083015260e09283015116918101919091526101000190565b80820180821115610bca57610bca612532565b6000600182016126e1576126e1612532565b506001019056fea264697066735822122018885f6d5a139d528e1f160aefce96e344cc6884b2bb8a1ea7081399b32e71c564736f6c63430008140033",
  "linkReferences": {},
  "deployedLinkReferences": {}
}