{
  "_format": "hh-sol-artifact-1",
  "contractName": "SatsumaAdapter",
  "sourceName": "contracts/adapters/SatsumaAdapter.sol",
  "abi": [
    {
      "inputs": [
        {
          "internalType": "address",
          "name": "_vault",
          "type": "address"
        },
        {
          "internalType": "address",
          "name": "_underlying",
          "type": "address"
        },
        {
          "internalType": "address",
          "name": "_lpVault",
          "type": "address"
        }
      ],
      "stateMutability": "nonpayable",
      "type": "constructor"
    },
    {
      "inputs": [
        {
          "internalType": "address",
          "name": "owner",
          "type": "address"
        }
      ],
      "name": "OwnableInvalidOwner",
      "type": "error"
    },
    {
      "inputs": [
        {
          "internalType": "address",
          "name": "account",
          "type": "address"
        }
      ],
      "name": "OwnableUnauthorizedAccount",
      "type": "error"
    },
    {
      "anonymous": false,
      "inputs": [
        {
          "indexed": true,
          "internalType": "address",
          "name": "previousOwner",
          "type": "address"
        },
        {
          "indexed": true,
          "internalType": "address",
          "name": "newOwner",
          "type": "address"
        }
      ],
      "name": "OwnershipTransferred",
      "type": "event"
    },
    {
      "inputs": [
        {
          "internalType": "uint256",
          "name": "amountWcBTC",
          "type": "uint256"
        }
      ],
      "name": "divest",
      "outputs": [
        {
          "internalType": "uint256",
          "name": "withdrawn",
          "type": "uint256"
        }
      ],
      "stateMutability": "nonpayable",
      "type": "function"
    },
    {
      "inputs": [
        {
          "internalType": "uint256",
          "name": "amountWcBTC",
          "type": "uint256"
        }
      ],
      "name": "invest",
      "outputs": [],
      "stateMutability": "nonpayable",
      "type": "function"
    },
    {
      "inputs": [],
      "name": "investedBalance",
      "outputs": [
        {
          "internalType": "uint256",
          "name": "",
          "type": "uint256"
        }
      ],
      "stateMutability": "view",
      "type": "function"
    },
    {
      "inputs": [],
      "name": "lpVault",
      "outputs": [
        {
          "internalType": "contract ISatsumaLPVault",
          "name": "",
          "type": "address"
        }
      ],
      "stateMutability": "view",
      "type": "function"
    },
    {
      "inputs": [],
      "name": "owner",
      "outputs": [
        {
          "internalType": "address",
          "name": "",
          "type": "address"
        }
      ],
      "stateMutability": "view",
      "type": "function"
    },
    {
      "inputs": [],
      "name": "renounceOwnership",
      "outputs": [],
      "stateMutability": "nonpayable",
      "type": "function"
    },
    {
      "inputs": [],
      "name": "totalAssets",
      "outputs": [
        {
          "internalType": "uint256",
          "name": "",
          "type": "uint256"
        }
      ],
      "stateMutability": "view",
      "type": "function"
    },
    {
      "inputs": [
        {
          "internalType": "address",
          "name": "newOwner",
          "type": "address"
        }
      ],
      "name": "transferOwnership",
      "outputs": [],
      "stateMutability": "nonpayable",
      "type": "function"
    },
    {
      "inputs": [],
      "name": "underlying",
      "outputs": [
        {
          "internalType": "address",
          "name": "",
          "type": "address"
        }
      ],
      "stateMutability": "view",
      "type": "function"
    },
    {
      "inputs": [],
      "name": "vault",
      "outputs": [
        {
          "internalType": "address",
          "name": "",
          "type": "address"
        }
      ],
      "stateMutability": "view",
      "type": "function"
    }
  ],
  "bytecode": "0x60e060405234801561001057600080fd5b506040516108b43803806108b483398101604081905261002f91610164565b826001600160a01b03811661005e57604051631e4fbdf760e01b81526000600482015260240160405180910390fd5b610067816100f8565b506001600160a01b0383811660805282811660a081905290821660c081905260405163095ea7b360e01b81526004810191909152600019602482015263095ea7b3906044016020604051808303816000875af11580156100cb573d6000803e3d6000fd5b505050506040513d601f19601f820116820180604052508101906100ef91906101a7565b505050506101d0565b600080546001600160a01b038381166001600160a01b0319831681178455604051919092169283917f8be0079c531659141344cd1fd0a4f28419497f9722a3daafe3b4186f6b6457e09190a35050565b80516001600160a01b038116811461015f57600080fd5b919050565b60008060006060848603121561017957600080fd5b61018284610148565b925061019060208501610148565b915061019e60408501610148565b90509250925092565b6000602082840312156101b957600080fd5b815180151581146101c957600080fd5b9392505050565b60805160a05160c05161068c6102286000396000818160d40152818161023501526103730152600081816101130152610436015260008181610182015281816101af015281816102e60152610407015261068c6000f3fe608060405234801561001057600080fd5b506004361061009e5760003560e01c80638ca17995116100665780638ca179951461013d5780638da5cb5b14610150578063c9168a5914610161578063f2fde38b1461016a578063fbfa77cf1461017d57600080fd5b806301e1d114146100a35780632afcf480146100ba5780632f867367146100cf5780636f307dc31461010e578063715018a614610135575b600080fd5b6001545b6040519081526020015b60405180910390f35b6100cd6100c8366004610590565b6101a4565b005b6100f67f000000000000000000000000000000000000000000000000000000000000000081565b6040516001600160a01b0390911681526020016100b1565b6100f67f000000000000000000000000000000000000000000000000000000000000000081565b6100cd6102c5565b6100a761014b366004610590565b6102d9565b6000546001600160a01b03166100f6565b6100a760015481565b6100cd6101783660046105a9565b6104d5565b6100f67f000000000000000000000000000000000000000000000000000000000000000081565b336001600160a01b037f0000000000000000000000000000000000000000000000000000000000000000161461020e5760405162461bcd60e51b815260206004820152600a6024820152691bdb9b1e481d985d5b1d60b21b60448201526064015b60405180910390fd5b806000036102195750565b604051636e553f6560e01b8152600481018290523060248201527f00000000000000000000000000000000000000000000000000000000000000006001600160a01b031690636e553f65906044016020604051808303816000875af1158015610286573d6000803e3d6000fd5b505050506040513d601f19601f820116820180604052508101906102aa91906105d9565b5080600160008282546102bd9190610608565b909155505050565b6102cd610513565b6102d76000610540565b565b6000336001600160a01b037f000000000000000000000000000000000000000000000000000000000000000016146103405760405162461bcd60e51b815260206004820152600a6024820152691bdb9b1e481d985d5b1d60b21b6044820152606401610205565b8160000361035057506000919050565b604051632d182be560e21b815260048101839052306024820181905260448201527f00000000000000000000000000000000000000000000000000000000000000006001600160a01b03169063b460af94906064016020604051808303816000875af11580156103c4573d6000803e3d6000fd5b505050506040513d601f19601f820116820180604052508101906103e891906105d9565b905080156104a55760405163a9059cbb60e01b81526001600160a01b037f000000000000000000000000000000000000000000000000000000000000000081166004830152602482018390527f0000000000000000000000000000000000000000000000000000000000000000169063a9059cbb906044016020604051808303816000875af115801561047f573d6000803e3d6000fd5b505050506040513d601f19601f820116820180604052508101906104a39190610621565b505b6001548111156104b9576000600155919050565b80600160008282546104cb9190610643565b9091555050919050565b6104dd610513565b6001600160a01b03811661050757604051631e4fbdf760e01b815260006004820152602401610205565b61051081610540565b50565b6000546001600160a01b031633146102d75760405163118cdaa760e01b8152336004820152602401610205565b600080546001600160a01b038381166001600160a01b0319831681178455604051919092169283917f8be0079c531659141344cd1fd0a4f28419497f9722a3daafe3b4186f6b6457e09190a35050565b6000602082840312156105a257600080fd5b5035919050565b6000602082840312156105bb57600080fd5b81356001600160a01b03811681146105d257600080fd5b9392505050565b6000602082840312156105eb57600080fd5b5051919050565b634e487b7160e01b600052601160045260246000fd5b8082018082111561061b5761061b6105f2565b92915050565b60006020828403121561063357600080fd5b815180151581146105d257600080fd5b8181038181111561061b5761061b6105f256fea2646970667358221220cb2d6770d98b4cccb7d70d122ef5cf573190195339c12c6f353021bcb4d3925c64736f6c63430008140033",
  "linkReferences": {},
  "deployedLinkReferences": {}
}