{
  "_format": "hh-sol-artifact-1",
  "contractName": "CrossChainAdapter",
  "sourceName": "contracts/adapters/CrossChainAdapter.sol",
  "abi": [
    {
      "inputs": [
        {
          "internalType": "address",
          "name": "_vault",
          "type": "address"
        },
        {
          "internalType": "address",
          "name": "_underlying",
          "type": "address"
        },
        {
          "internalType": "address",
          "name": "_usdc",
          "type": "address"
        },
        {
          "internalType": "address",
          "name": "_bridge",
          "type": "address"
        },
        {
          "internalType": "address",
          "name": "_ys",
          "type": "address"
        }
      ],
      "stateMutability": "nonpayable",
      "type": "constructor"
    },
    {
      "inputs": [
        {
          "internalType": "address",
          "name": "owner",
          "type": "address"
        }
      ],
      "name": "OwnableInvalidOwner",
      "type": "error"
    },
    {
      "inputs": [
        {
          "internalType": "address",
          "name": "account",
          "type": "address"
        }
      ],
      "name": "OwnableUnauthorizedAccount",
      "type": "error"
    },
    {
      "anonymous": false,
      "inputs": [
        {
          "indexed": true,
          "internalType": "address",
          "name": "previousOwner",
          "type": "address"
        },
        {
          "indexed": true,
          "internalType": "address",
          "name": "newOwner",
          "type": "address"
        }
      ],
      "name": "OwnershipTransferred",
      "type": "event"
    },
    {
      "inputs": [],
      "name": "bridge",
      "outputs": [
        {
          "internalType": "contract IBridge",
          "name": "",
          "type": "address"
        }
      ],
      "stateMutability": "view",
      "type": "function"
    },
    {
      "inputs": [
        {
          "internalType": "uint256",
          "name": "amountWcBTC",
          "type": "uint256"
        }
      ],
      "name": "divest",
      "outputs": [
        {
          "internalType": "uint256",
          "name": "withdrawn",
          "type": "uint256"
        }
      ],
      "stateMutability": "nonpayable",
      "type": "function"
    },
    {
      "inputs": [
        {
          "internalType": "uint256",
          "name": "amountWcBTC",
          "type": "uint256"
        }
      ],
      "name": "invest",
      "outputs": [],
      "stateMutability": "nonpayable",
      "type": "function"
    },
    {
      "inputs": [],
      "name": "investedBalance",
      "outputs": [
        {
          "internalType": "uint256",
          "name": "",
          "type": "uint256"
        }
      ],
      "stateMutability": "view",
      "type": "function"
    },
    {
      "inputs": [],
      "name": "owner",
      "outputs": [
        {
          "internalType": "address",
          "name": "",
          "type": "address"
        }
      ],
      "stateMutability": "view",
      "type": "function"
    },
    {
      "inputs": [],
      "name": "renounceOwnership",
      "outputs": [],
      "stateMutability": "nonpayable",
      "type": "function"
    },
    {
      "inputs": [],
      "name": "totalAssets",
      "outputs": [
        {
          "internalType": "uint256",
          "name": "",
          "type": "uint256"
        }
      ],
      "stateMutability": "view",
      "type": "function"
    },
    {
      "inputs": [
        {
          "internalType": "address",
          "name": "newOwner",
          "type": "address"
        }
      ],
      "name": "transferOwnership",
      "outputs": [],
      "stateMutability": "nonpayable",
      "type": "function"
    },
    {
      "inputs": [],
      "name": "underlying",
      "outputs": [
        {
          "internalType": "address",
          "name": "",
          "type": "address"
        }
      ],
      "stateMutability": "view",
      "type": "function"
    },
    {
      "inputs": [],
      "name": "usdc",
      "outputs": [
        {
          "internalType": "contract IERC20",
          "name": "",
          "type": "address"
        }
      ],
      "stateMutability": "view",
      "type": "function"
    },
    {
      "inputs": [],
      "name": "vault",
      "outputs": [
        {
          "internalType": "address",
          "name": "",
          "type": "address"
        }
      ],
      "stateMutability": "view",
      "type": "function"
    },
    {
      "inputs": [],
      "name": "ys",
      "outputs": [
        {
          "internalType": "contract IYieldSourceView",
          "name": "",
          "type": "address"
        }
      ],
      "stateMutability": "view",
      "type": "function"
    }
  ],
  "bytecode": "0x61012060405234801561001157600080fd5b50604051610763380380610763833981016040819052610030916100fe565b846001600160a01b03811661005f57604051631e4fbdf760e01b81526000600482015260240160405180910390fd5b61006881610092565b506001600160a01b0394851660805292841660a05290831660c052821660e0521661010052610163565b600080546001600160a01b038381166001600160a01b0319831681178455604051919092169283917f8be0079c531659141344cd1fd0a4f28419497f9722a3daafe3b4186f6b6457e09190a35050565b80516001600160a01b03811681146100f957600080fd5b919050565b600080600080600060a0868803121561011657600080fd5b61011f866100e2565b945061012d602087016100e2565b935061013b604087016100e2565b9250610149606087016100e2565b9150610157608087016100e2565b90509295509295909350565b60805160a05160c05160e051610100516105a16101c2600039600061017c015260006101ac0152600060ea015260008181610129015261038f0152600081816101e601528181610213015281816102b8015261036001526105a16000f3fe608060405234801561001057600080fd5b50600436106100b45760003560e01c80638da5cb5b116100715780638da5cb5b14610166578063958388ec14610177578063c9168a591461019e578063e78cea92146101a7578063f2fde38b146101ce578063fbfa77cf146101e157600080fd5b806301e1d114146100b95780632afcf480146100d05780633e413bee146100e55780636f307dc314610124578063715018a61461014b5780638ca1799514610153575b600080fd5b6001545b6040519081526020015b60405180910390f35b6100e36100de3660046104be565b610208565b005b61010c7f000000000000000000000000000000000000000000000000000000000000000081565b6040516001600160a01b0390911681526020016100c7565b61010c7f000000000000000000000000000000000000000000000000000000000000000081565b6100e3610297565b6100bd6101613660046104be565b6102ab565b6000546001600160a01b031661010c565b61010c7f000000000000000000000000000000000000000000000000000000000000000081565b6100bd60015481565b61010c7f000000000000000000000000000000000000000000000000000000000000000081565b6100e36101dc3660046104d7565b610403565b61010c7f000000000000000000000000000000000000000000000000000000000000000081565b336001600160a01b037f000000000000000000000000000000000000000000000000000000000000000016146102725760405162461bcd60e51b815260206004820152600a6024820152691bdb9b1e481d985d5b1d60b21b60448201526064015b60405180910390fd5b8060000361027d5750565b806001600082825461028f919061051d565b909155505050565b61029f610441565b6102a9600061046e565b565b6000336001600160a01b037f000000000000000000000000000000000000000000000000000000000000000016146103125760405162461bcd60e51b815260206004820152600a6024820152691bdb9b1e481d985d5b1d60b21b6044820152606401610269565b8160000361032257506000919050565b6001548211156103325760015491505b81600160008282546103449190610536565b909155505060405163a9059cbb60e01b81526001600160a01b037f000000000000000000000000000000000000000000000000000000000000000081166004830152602482018490527f0000000000000000000000000000000000000000000000000000000000000000169063a9059cbb906044016020604051808303816000875af11580156103d8573d6000803e3d6000fd5b505050506040513d601f19601f820116820180604052508101906103fc9190610549565b5090919050565b61040b610441565b6001600160a01b03811661043557604051631e4fbdf760e01b815260006004820152602401610269565b61043e8161046e565b50565b6000546001600160a01b031633146102a95760405163118cdaa760e01b8152336004820152602401610269565b600080546001600160a01b038381166001600160a01b0319831681178455604051919092169283917f8be0079c531659141344cd1fd0a4f28419497f9722a3daafe3b4186f6b6457e09190a35050565b6000602082840312156104d057600080fd5b5035919050565b6000602082840312156104e957600080fd5b81356001600160a01b038116811461050057600080fd5b9392505050565b634e487b7160e01b600052601160045260246000fd5b8082018082111561053057610530610507565b92915050565b8181038181111561053057610530610507565b60006020828403121561055b57600080fd5b8151801515811461050057600080fdfea2646970667358221220a373410c226e5ed546490c3029427c9b082e339a87dc54ac9dfa5d3c5aed100564736f6c63430008140033",
  "linkReferences": {},
  "deployedLinkReferences": {}
}