{
  "_format": "hh-sol-artifact-1",
  "contractName": "MockSatsumaRouter",
  "sourceName": "contracts/MockSatsumaRouter.sol",
  "abi": [
    {
      "inputs": [
        {
          "internalType": "bytes",
          "name": "",
          "type": "bytes"
        }
      ],
      "name": "exactInputSingle",
      "outputs": [
        {
          "internalType": "uint256",
          "name": "",
          "type": "uint256"
        }
      ],
      "stateMutability": "pure",
      "type": "function"
    }
  ],
  "bytecode": "0x608060405234801561001057600080fd5b5060f58061001f6000396000f3fe6080604052348015600f57600080fd5b506004361060285760003560e01c8063c1b2f52814602d575b600080fd5b604060383660046052565b600092915050565b60405190815260200160405180910390f35b60008060208385031215606457600080fd5b823567ffffffffffffffff80821115607b57600080fd5b818501915085601f830112608e57600080fd5b813581811115609c57600080fd5b86602082850101111560ad57600080fd5b6020929092019691955090935050505056fea2646970667358221220aba53d5c3dc031c466dc3a8e0f4a1a3ac0bf468e14c9d604c271c14794fd0e0f64736f6c63430008140033",
  "linkReferences": {},
  "deployedLinkReferences": {}
}