{
  "_format": "hh-sol-artifact-1",
  "contractName": "MockWcBTC",
  "sourceName": "contracts/MockWcBTC.sol",
  "abi": [
    {
      "inputs": [],
      "stateMutability": "nonpayable",
      "type": "constructor"
    },
    {
      "inputs": [
        {
          "internalType": "address",
          "name": "spender",
          "type": "address"
        },
        {
          "internalType": "uint256",
          "name": "allowance",
          "type": "uint256"
        },
        {
          "internalType": "uint256",
          "name": "needed",
          "type": "uint256"
        }
      ],
      "name": "ERC20InsufficientAllowance",
      "type": "error"
    },
    {
      "inputs": [
        {
          "internalType": "address",
          "name": "sender",
          "type": "address"
        },
        {
          "internalType": "uint256",
          "name": "balance",
          "type": "uint256"
        },
        {
          "internalType": "uint256",
          "name": "needed",
          "type": "uint256"
        }
      ],
      "name": "ERC20InsufficientBalance",
      "type": "error"
    },
    {
      "inputs": [
        {
          "internalType": "address",
          "name": "approver",
          "type": "address"
        }
      ],
      "name": "ERC20InvalidApprover",
      "type": "error"
    },
    {
      "inputs": [
        {
          "internalType": "address",
          "name": "receiver",
          "type": "address"
        }
      ],
      "name": "ERC20InvalidReceiver",
      "type": "error"
    },
    {
      "inputs": [
        {
          "internalType": "address",
          "name": "sender",
          "type": "address"
        }
      ],
      "name": "ERC20InvalidSender",
      "type": "error"
    },
    {
      "inputs": [
        {
          "internalType": "address",
          "name": "spender",
          "type": "address"
        }
      ],
      "name": "ERC20InvalidSpender",
      "type": "error"
    },
    {
      "inputs": [
        {
          "internalType": "address",
          "name": "owner",
          "type": "address"
        }
      ],
      "name": "OwnableInvalidOwner",
      "type": "error"
    },
    {
      "inputs": [
        {
          "internalType": "address",
          "name": "account",
          "type": "address"
        }
      ],
      "name": "OwnableUnauthorizedAccount",
      "type": "error"
    },
    {
      "anonymous": false,
      "inputs": [
        {
          "indexed": true,
          "internalType": "address",
          "name": "owner",
          "type": "address"
        },
        {
          "indexed": true,
          "internalType": "address",
          "name": "spender",
          "type": "address"
        },
        {
          "indexed": false,
          "internalType": "uint256",
          "name": "value",
          "type": "uint256"
        }
      ],
      "name": "Approval",
      "type": "event"
    },
    {
      "anonymous": false,
      "inputs": [
        {
          "indexed": true,
          "internalType": "address",
          "name": "previousOwner",
          "type": "address"
        },
        {
          "indexed": true,
          "internalType": "address",
          "name": "newOwner",
          "type": "address"
        }
      ],
      "name": "OwnershipTransferred",
      "type": "event"
    },
    {
      "anonymous": false,
      "inputs": [
        {
          "indexed": true,
          "internalType": "address",
          "name": "from",
          "type": "address"
        },
        {
          "indexed": true,
          "internalType": "address",
          "name": "to",
          "type": "address"
        },
        {
          "indexed": false,
          "internalType": "uint256",
          "name": "value",
          "type": "uint256"
        }
      ],
      "name": "Transfer",
      "type": "event"
    },
    {
      "inputs": [
        {
          "internalType": "address",
          "name": "owner",
          "type": "address"
        },
        {
          "internalType": "address",
          "name": "spender",
          "type": "address"
        }
      ],
      "name": "allowance",
      "outputs": [
        {
          "internalType": "uint256",
          "name": "",
          "type": "uint256"
        }
      ],
      "stateMutability": "view",
      "type": "function"
    },
    {
      "inputs": [
        {
          "internalType": "address",
          "name": "spender",
          "type": "address"
        },
        {
          "internalType": "uint256",
          "name": "value",
          "type": "uint256"
        }
      ],
      "name": "approve",
      "outputs": [
        {
          "internalType": "bool",
          "name": "",
          "type": "bool"
        }
      ],
      "stateMutability": "nonpayable",
      "type": "function"
    },
    {
      "inputs": [
        {
          "internalType": "address",
          "name": "account",
          "type": "address"
        }
      ],
      "name": "balanceOf",
      "outputs": [
        {
          "internalType": "uint256",
          "name": "",
          "type": "uint256"
        }
      ],
      "stateMutability": "view",
      "type": "function"
    },
    {
      "inputs": [],
      "name": "decimals",
      "outputs": [
        {
          "internalType": "uint8",
          "name": "",
          "type": "uint8"
        }
      ],
      "stateMutability": "pure",
      "type": "function"
    },
    {
      "inputs": [],
      "name": "deposit",
      "outputs": [],
      "stateMutability": "payable",
      "type": "function"
    },
    {
      "inputs": [
        {
          "internalType": "address",
          "name": "to",
          "type": "address"
        },
        {
          "internalType": "uint256",
          "name": "amount",
          "type": "uint256"
        }
      ],
      "name": "mintTo",
      "outputs": [],
      "stateMutability": "nonpayable",
      "type": "function"
    },
    {
      "inputs": [],
      "name": "name",
      "outputs": [
        {
          "internalType": "string",
          "name": "",
          "type": "string"
        }
      ],
      "stateMutability": "view",
      "type": "function"
    },
    {
      "inputs": [],
      "name": "owner",
      "outputs": [
        {
          "internalType": "address",
          "name": "",
          "type": "address"
        }
      ],
      "stateMutability": "view",
      "type": "function"
    },
    {
      "inputs": [],
      "name": "renounceOwnership",
      "outputs": [],
      "stateMutability": "nonpayable",
      "type": "function"
    },
    {
      "inputs": [],
      "name": "symbol",
      "outputs": [
        {
          "internalType": "string",
          "name": "",
          "type": "string"
        }
      ],
      "stateMutability": "view",
      "type": "function"
    },
    {
      "inputs": [],
      "name": "totalSupply",
      "outputs": [
        {
          "internalType": "uint256",
          "name": "",
          "type": "uint256"
        }
      ],
      "stateMutability": "view",
      "type": "function"
    },
    {
      "inputs": [
        {
          "internalType": "address",
          "name": "to",
          "type": "address"
        },
        {
          "internalType": "uint256",
          "name": "value",
          "type": "uint256"
        }
      ],
      "name": "transfer",
      "outputs": [
        {
          "internalType": "bool",
          "name": "",
          "type": "bool"
        }
      ],
      "stateMutability": "nonpayable",
      "type": "function"
    },
    {
      "inputs": [
        {
          "internalType": "address",
          "name": "from",
          "type": "address"
        },
        {
          "internalType": "address",
          "name": "to",
          "type": "address"
        },
        {
          "internalType": "uint256",
          "name": "value",
          "type": "uint256"
        }
      ],
      "name": "transferFrom",
      "outputs": [
        {
          "internalType": "bool",
          "name": "",
          "type": "bool"
        }
      ],
      "stateMutability": "nonpayable",
      "type": "function"
    },
    {
      "inputs": [
        {
          "internalType": "address",
          "name": "newOwner",
          "type": "address"
        }
      ],
      "name": "transferOwnership",
      "outputs": [],
      "stateMutability": "nonpayable",
      "type": "function"
    },
    {
      "inputs": [
        {
          "internalType": "uint256",
          "name": "amount",
          "type": "uint256"
        }
      ],
      "name": "withdraw",
      "outputs": [],
      "stateMutability": "nonpayable",
      "type": "function"
    }
  ],
  "bytecode": "0x60806040523480156200001157600080fd5b50336040518060400160405280600c81526020016b57726170706564206342544360a01b81525060405180604001604052806005815260200164576342544360d81b8152508160039081620000679190620001b1565b506004620000768282620001b1565b5050506001600160a01b038116620000a857604051631e4fbdf760e01b81526000600482015260240160405180910390fd5b620000b381620000ba565b506200027d565b600580546001600160a01b038381166001600160a01b0319831681179093556040519116919082907f8be0079c531659141344cd1fd0a4f28419497f9722a3daafe3b4186f6b6457e090600090a35050565b634e487b7160e01b600052604160045260246000fd5b600181811c908216806200013757607f821691505b6020821081036200015857634e487b7160e01b600052602260045260246000fd5b50919050565b601f821115620001ac57600081815260208120601f850160051c81016020861015620001875750805b601f850160051c820191505b81811015620001a85782815560010162000193565b5050505b505050565b81516001600160401b03811115620001cd57620001cd6200010c565b620001e581620001de845462000122565b846200015e565b602080601f8311600181146200021d5760008415620002045750858301515b600019600386901b1c1916600185901b178555620001a8565b600085815260208120601f198616915b828110156200024e578886015182559484019460019091019084016200022d565b50858210156200026d5787850151600019600388901b60f8161c191681555b5050505050600190811b01905550565b610a98806200028d6000396000f3fe6080604052600436106100e85760003560e01c806370a082311161008a578063a9059cbb11610059578063a9059cbb1461026d578063d0e30db01461028d578063dd62ed3e14610295578063f2fde38b146102db57600080fd5b806370a08231146101e5578063715018a61461021b5780638da5cb5b1461023057806395d89b411461025857600080fd5b806323b872dd116100c657806323b872dd146101675780632e1a7d4d14610187578063313ce567146101a9578063449a52f8146101c557600080fd5b806306fdde03146100ed578063095ea7b31461011857806318160ddd14610148575b600080fd5b3480156100f957600080fd5b506101026102fb565b60405161010f91906108c9565b60405180910390f35b34801561012457600080fd5b50610138610133366004610933565b61038d565b604051901515815260200161010f565b34801561015457600080fd5b506002545b60405190815260200161010f565b34801561017357600080fd5b5061013861018236600461095d565b6103a7565b34801561019357600080fd5b506101a76101a2366004610999565b6103cb565b005b3480156101b557600080fd5b506040516008815260200161010f565b3480156101d157600080fd5b506101a76101e0366004610933565b610464565b3480156101f157600080fd5b506101596102003660046109b2565b6001600160a01b031660009081526020819052604090205490565b34801561022757600080fd5b506101a7610476565b34801561023c57600080fd5b506005546040516001600160a01b03909116815260200161010f565b34801561026457600080fd5b5061010261048a565b34801561027957600080fd5b50610138610288366004610933565b610499565b6101a76104a7565b3480156102a157600080fd5b506101596102b03660046109d4565b6001600160a01b03918216600090815260016020908152604080832093909416825291909152205490565b3480156102e757600080fd5b506101a76102f63660046109b2565b6104b1565b60606003805461030a90610a07565b80601f016020809104026020016040519081016040528092919081815260200182805461033690610a07565b80156103835780601f1061035857610100808354040283529160200191610383565b820191906000526020600020905b81548152906001019060200180831161036657829003601f168201915b5050505050905090565b60003361039b8185856104ef565b60019150505b92915050565b6000336103b5858285610501565b6103c0858585610580565b506001949350505050565b6103d533826105df565b604051600090339083908381818185875af1925050503d8060008114610417576040519150601f19603f3d011682016040523d82523d6000602084013e61041c565b606091505b50509050806104605760405162461bcd60e51b815260206004820152600b60248201526a1cd95b990819985a5b195960aa1b60448201526064015b60405180910390fd5b5050565b61046c610615565b6104608282610642565b61047e610615565b6104886000610678565b565b60606004805461030a90610a07565b60003361039b818585610580565b6104883334610642565b6104b9610615565b6001600160a01b0381166104e357604051631e4fbdf760e01b815260006004820152602401610457565b6104ec81610678565b50565b6104fc83838360016106ca565b505050565b6001600160a01b0383811660009081526001602090815260408083209386168352929052205460001981101561057a578181101561056b57604051637dc7a0d960e11b81526001600160a01b03841660048201526024810182905260448101839052606401610457565b61057a848484840360006106ca565b50505050565b6001600160a01b0383166105aa57604051634b637e8f60e11b815260006004820152602401610457565b6001600160a01b0382166105d45760405163ec442f0560e01b815260006004820152602401610457565b6104fc83838361079f565b6001600160a01b03821661060957604051634b637e8f60e11b815260006004820152602401610457565b6104608260008361079f565b6005546001600160a01b031633146104885760405163118cdaa760e01b8152336004820152602401610457565b6001600160a01b03821661066c5760405163ec442f0560e01b815260006004820152602401610457565b6104606000838361079f565b600580546001600160a01b038381166001600160a01b0319831681179093556040519116919082907f8be0079c531659141344cd1fd0a4f28419497f9722a3daafe3b4186f6b6457e090600090a35050565b6001600160a01b0384166106f45760405163e602df0560e01b815260006004820152602401610457565b6001600160a01b03831661071e57604051634a1406b160e11b815260006004820152602401610457565b6001600160a01b038085166000908152600160209081526040808320938716835292905220829055801561057a57826001600160a01b0316846001600160a01b03167f8c5be1e5ebec7d5bd14f71427d1e84f3dd0314c0f7b2291e5b200ac8c7c3b9258460405161079191815260200190565b60405180910390a350505050565b6001600160a01b0383166107ca5780600260008282546107bf9190610a41565b9091555061083c9050565b6001600160a01b0383166000908152602081905260409020548181101561081d5760405163391434e360e21b81526001600160a01b03851660048201526024810182905260448101839052606401610457565b6001600160a01b03841660009081526020819052604090209082900390555b6001600160a01b03821661085857600280548290039055610877565b6001600160a01b03821660009081526020819052604090208054820190555b816001600160a01b0316836001600160a01b03167fddf252ad1be2c89b69c2b068fc378daa952ba7f163c4a11628f55a4df523b3ef836040516108bc91815260200190565b60405180910390a3505050565b600060208083528351808285015260005b818110156108f6578581018301518582016040015282016108da565b506000604082860101526040601f19601f8301168501019250505092915050565b80356001600160a01b038116811461092e57600080fd5b919050565b6000806040838503121561094657600080fd5b61094f83610917565b946020939093013593505050565b60008060006060848603121561097257600080fd5b61097b84610917565b925061098960208501610917565b9150604084013590509250925092565b6000602082840312156109ab57600080fd5b5035919050565b6000602082840312156109c457600080fd5b6109cd82610917565b9392505050565b600080604083850312156109e757600080fd5b6109f083610917565b91506109fe60208401610917565b90509250929050565b600181811c90821680610a1b57607f821691505b602082108103610a3b57634e487b7160e01b600052602260045260246000fd5b50919050565b808201808211156103a157634e487b7160e01b600052601160045260246000fdfea26469706673582212200d1018b11fdbc2969b10d53bd90ad3774e0132813adcfc9ac3bf0dd55c0578fa64736f6c63430008140033",
  "linkReferences": {},
  "deployedLinkReferences": {}
}