{
  "_format": "hh-sol-artifact-1",
  "contractName": "MockBridge",
  "sourceName": "contracts/MockBridge.sol",
  "abi": [
    {
      "inputs": [
        {
          "internalType": "address",
          "name": "_owner",
          "type": "address"
        }
      ],
      "stateMutability": "nonpayable",
      "type": "constructor"
    },
    {
      "inputs": [
        {
          "internalType": "address",
          "name": "owner",
          "type": "address"
        }
      ],
      "name": "OwnableInvalidOwner",
      "type": "error"
    },
    {
      "inputs": [
        {
          "internalType": "address",
          "name": "account",
          "type": "address"
        }
      ],
      "name": "OwnableUnauthorizedAccount",
      "type": "error"
    },
    {
      "anonymous": false,
      "inputs": [
        {
          "indexed": true,
          "internalType": "address",
          "name": "token",
          "type": "address"
        },
        {
          "indexed": false,
          "internalType": "uint256",
          "name": "amount",
          "type": "uint256"
        },
        {
          "indexed": true,
          "internalType": "address",
          "name": "recipient",
          "type": "address"
        }
      ],
      "name": "BridgedIn",
      "type": "event"
    },
    {
      "anonymous": false,
      "inputs": [
        {
          "indexed": true,
          "internalType": "address",
          "name": "token",
          "type": "address"
        },
        {
          "indexed": false,
          "internalType": "uint256",
          "name": "amount",
          "type": "uint256"
        }
      ],
      "name": "BridgedOut",
      "type": "event"
    },
    {
      "anonymous": false,
      "inputs": [
        {
          "indexed": true,
          "internalType": "address",
          "name": "previousOwner",
          "type": "address"
        },
        {
          "indexed": true,
          "internalType": "address",
          "name": "newOwner",
          "type": "address"
        }
      ],
      "name": "OwnershipTransferred",
      "type": "event"
    },
    {
      "anonymous": false,
      "inputs": [
        {
          "indexed": true,
          "internalType": "address",
          "name": "yieldSource",
          "type": "address"
        }
      ],
      "name": "YieldSourceSet",
      "type": "event"
    },
    {
      "inputs": [
        {
          "internalType": "address",
          "name": "token",
          "type": "address"
        },
        {
          "internalType": "uint256",
          "name": "amount",
          "type": "uint256"
        },
        {
          "internalType": "address",
          "name": "recipient",
          "type": "address"
        }
      ],
      "name": "bridgeIn",
      "outputs": [],
      "stateMutability": "nonpayable",
      "type": "function"
    },
    {
      "inputs": [
        {
          "internalType": "address",
          "name": "token",
          "type": "address"
        },
        {
          "internalType": "uint256",
          "name": "amount",
          "type": "uint256"
        }
      ],
      "name": "bridgeOut",
      "outputs": [],
      "stateMutability": "nonpayable",
      "type": "function"
    },
    {
      "inputs": [
        {
          "internalType": "address",
          "name": "token",
          "type": "address"
        }
      ],
      "name": "bridgedBalance",
      "outputs": [
        {
          "internalType": "uint256",
          "name": "",
          "type": "uint256"
        }
      ],
      "stateMutability": "view",
      "type": "function"
    },
    {
      "inputs": [
        {
          "internalType": "address",
          "name": "token",
          "type": "address"
        },
        {
          "internalType": "uint256",
          "name": "amount",
          "type": "uint256"
        }
      ],
      "name": "forwardToYieldSource",
      "outputs": [],
      "stateMutability": "nonpayable",
      "type": "function"
    },
    {
      "inputs": [],
      "name": "owner",
      "outputs": [
        {
          "internalType": "address",
          "name": "",
          "type": "address"
        }
      ],
      "stateMutability": "view",
      "type": "function"
    },
    {
      "inputs": [
        {
          "internalType": "address",
          "name": "token",
          "type": "address"
        },
        {
          "internalType": "uint256",
          "name": "amount",
          "type": "uint256"
        }
      ],
      "name": "pullFromYieldSource",
      "outputs": [],
      "stateMutability": "nonpayable",
      "type": "function"
    },
    {
      "inputs": [],
      "name": "renounceOwnership",
      "outputs": [],
      "stateMutability": "nonpayable",
      "type": "function"
    },
    {
      "inputs": [
        {
          "internalType": "address",
          "name": "_yieldSource",
          "type": "address"
        }
      ],
      "name": "setYieldSource",
      "outputs": [],
      "stateMutability": "nonpayable",
      "type": "function"
    },
    {
      "inputs": [
        {
          "internalType": "address",
          "name": "newOwner",
          "type": "address"
        }
      ],
      "name": "transferOwnership",
      "outputs": [],
      "stateMutability": "nonpayable",
      "type": "function"
    },
    {
      "inputs": [],
      "name": "yieldSource",
      "outputs": [
        {
          "internalType": "address",
          "name": "",
          "type": "address"
        }
      ],
      "stateMutability": "view",
      "type": "function"
    }
  ],
  "bytecode": "0x608060405234801561001057600080fd5b5060405161088938038061088983398101604081905261002f916100be565b806001600160a01b03811661005e57604051631e4fbdf760e01b81526000600482015260240160405180910390fd5b6100678161006e565b50506100ee565b600080546001600160a01b038381166001600160a01b0319831681178455604051919092169283917f8be0079c531659141344cd1fd0a4f28419497f9722a3daafe3b4186f6b6457e09190a35050565b6000602082840312156100d057600080fd5b81516001600160a01b03811681146100e757600080fd5b9392505050565b61078c806100fd6000396000f3fe608060405234801561001057600080fd5b506004361061009e5760003560e01c80639854175f116100665780639854175f146101105780639af9ea6814610123578063b2470e5c14610136578063c05a705214610149578063f2fde38b1461016a57600080fd5b8063121cf911146100a3578063465373c0146100b8578063666a0c84146100cb578063715018a6146100de5780638da5cb5b146100e6575b600080fd5b6100b66100b1366004610693565b61017d565b005b6100b66100c63660046106bd565b6102bb565b6100b66100d93660046106f9565b610389565b6100b66103db565b6000546001600160a01b03165b6040516001600160a01b0390911681526020015b60405180910390f35b6100b661011e366004610693565b6103ef565b6100b6610131366004610693565b6104b6565b6001546100f3906001600160a01b031681565b61015c6101573660046106f9565b61054b565b604051908152602001610107565b6100b66101783660046106f9565b6105bc565b6101856105fa565b6001546001600160a01b03166101d85760405162461bcd60e51b81526020600482015260136024820152721e5a595b1914dbdd5c98d9481b9bdd081cd95d606a1b60448201526064015b60405180910390fd5b60015460405163095ea7b360e01b81526001600160a01b039182166004820152602481018390529083169063095ea7b3906044016020604051808303816000875af115801561022b573d6000803e3d6000fd5b505050506040513d601f19601f8201168201806040525081019061024f919061071b565b506001546040516311f9fbc960e21b81526001600160a01b03848116600483015260248201849052909116906347e7ef24906044015b600060405180830381600087803b15801561029f57600080fd5b505af11580156102b3573d6000803e3d6000fd5b505050505050565b6102c36105fa565b60405163a9059cbb60e01b81526001600160a01b0382811660048301526024820184905284169063a9059cbb906044016020604051808303816000875af1158015610312573d6000803e3d6000fd5b505050506040513d601f19601f82011682018060405250810190610336919061071b565b50806001600160a01b0316836001600160a01b03167ffbe0897cec1cc093c81369309c4f1bb0b78d26b74fc449f91fffd8cffe2604148460405161037c91815260200190565b60405180910390a3505050565b6103916105fa565b600180546001600160a01b0319166001600160a01b0383169081179091556040517fca947f1f00696ec49342dad1ee6988db8b4ef055457a7f7cab0feef4d7dcaa6990600090a250565b6103e36105fa565b6103ed6000610627565b565b6103f76105fa565b6040516323b872dd60e01b8152336004820152306024820152604481018290526001600160a01b038316906323b872dd906064016020604051808303816000875af115801561044a573d6000803e3d6000fd5b505050506040513d601f19601f8201168201806040525081019061046e919061071b565b50816001600160a01b03167fd6f811082282fcd48bc0904e5f578b143ca8a184e2752e70b136ac6dc21fcbe6826040516104aa91815260200190565b60405180910390a25050565b6104be6105fa565b6001546001600160a01b031661050c5760405162461bcd60e51b81526020600482015260136024820152721e5a595b1914dbdd5c98d9481b9bdd081cd95d606a1b60448201526064016101cf565b600154604051631a4ca37b60e21b81526001600160a01b03848116600483015260248201849052306044830152909116906369328dec90606401610285565b6040516370a0823160e01b81523060048201526000906001600160a01b038316906370a0823190602401602060405180830381865afa158015610592573d6000803e3d6000fd5b505050506040513d601f19601f820116820180604052508101906105b6919061073d565b92915050565b6105c46105fa565b6001600160a01b0381166105ee57604051631e4fbdf760e01b8152600060048201526024016101cf565b6105f781610627565b50565b6000546001600160a01b031633146103ed5760405163118cdaa760e01b81523360048201526024016101cf565b600080546001600160a01b038381166001600160a01b0319831681178455604051919092169283917f8be0079c531659141344cd1fd0a4f28419497f9722a3daafe3b4186f6b6457e09190a35050565b80356001600160a01b038116811461068e57600080fd5b919050565b600080604083850312156106a657600080fd5b6106af83610677565b946020939093013593505050565b6000806000606084860312156106d257600080fd5b6106db84610677565b9250602084013591506106f060408501610677565b90509250925092565b60006020828403121561070b57600080fd5b61071482610677565b9392505050565b60006020828403121561072d57600080fd5b8151801515811461071457600080fd5b60006020828403121561074f57600080fd5b505191905056fea2646970667358221220adf60ecd9439b941f1828bf85dbd73569682aefbb727a22a320e806cb82658b864736f6c63430008140033",
  "linkReferences": {},
  "deployedLinkReferences": {}
}