{
  "_format": "hh-sol-artifact-1",
  "contractName": "ZentraAdapter",
  "sourceName": "contracts/adapters/ZentraAdapter.sol",
  "abi": [
    {
      "inputs": [
        {
          "internalType": "address",
          "name": "_vault",
          "type": "address"
        },
        {
          "internalType": "address",
          "name": "_underlying",
          "type": "address"
        },
        {
          "internalType": "address",
          "name": "_pool",
          "type": "address"
        }
      ],
      "stateMutability": "nonpayable",
      "type": "constructor"
    },
    {
      "inputs": [
        {
          "internalType": "address",
          "name": "owner",
          "type": "address"
        }
      ],
      "name": "OwnableInvalidOwner",
      "type": "error"
    },
    {
      "inputs": [
        {
          "internalType": "address",
          "name": "account",
          "type": "address"
        }
      ],
      "name": "OwnableUnauthorizedAccount",
      "type": "error"
    },
    {
      "anonymous": false,
      "inputs": [
        {
          "indexed": true,
          "internalType": "address",
          "name": "previousOwner",
          "type": "address"
        },
        {
          "indexed": true,
          "internalType": "address",
          "name": "newOwner",
          "type": "address"
        }
      ],
      "name": "OwnershipTransferred",
      "type": "event"
    },
    {
      "inputs": [
        {
          "internalType": "uint256",
          "name": "amountWcBTC",
          "type": "uint256"
        }
      ],
      "name": "divest",
      "outputs": [
        {
          "internalType": "uint256",
          "name": "withdrawn",
          "type": "uint256"
        }
      ],
      "stateMutability": "nonpayable",
      "type": "function"
    },
    {
      "inputs": [
        {
          "internalType": "uint256",
          "name": "amountWcBTC",
          "type": "uint256"
        }
      ],
      "name": "invest",
      "outputs": [],
      "stateMutability": "nonpayable",
      "type": "function"
    },
    {
      "inputs": [],
      "name": "investedBalance",
      "outputs": [
        {
          "internalType": "uint256",
          "name": "",
          "type": "uint256"
        }
      ],
      "stateMutability": "view",
      "type": "function"
    },
    {
      "inputs": [],
      "name": "owner",
      "outputs": [
        {
          "internalType": "address",
          "name": "",
          "type": "address"
        }
      ],
      "stateMutability": "view",
      "type": "function"
    },
    {
      "inputs": [],
      "name": "pool",
      "outputs": [
        {
          "internalType": "contract IZentraPoolV2",
          "name": "",
          "type": "address"
        }
      ],
      "stateMutability": "view",
      "type": "function"
    },
    {
      "inputs": [],
      "name": "renounceOwnership",
      "outputs": [],
      "stateMutability": "nonpayable",
      "type": "function"
    },
    {
      "inputs": [],
      "name": "totalAssets",
      "outputs": [
        {
          "internalType": "uint256",
          "name": "",
          "type": "uint256"
        }
      ],
      "stateMutability": "view",
      "type": "function"
    },
    {
      "inputs": [
        {
          "internalType": "address",
          "name": "newOwner",
          "type": "address"
        }
      ],
      "name": "transferOwnership",
      "outputs": [],
      "stateMutability": "nonpayable",
      "type": "function"
    },
    {
      "inputs": [],
      "name": "underlying",
      "outputs": [
        {
          "internalType": "address",
          "name": "",
          "type": "address"
        }
      ],
      "stateMutability": "view",
      "type": "function"
    },
    {
      "inputs": [],
      "name": "vault",
      "outputs": [
        {
          "internalType": "address",
          "name": "",
          "type": "address"
        }
      ],
      "stateMutability": "view",
      "type": "function"
    }
  ],
  "bytecode": "0x60e060405234801561001057600080fd5b5060405161090138038061090183398101604081905261002f91610164565b826001600160a01b03811661005e57604051631e4fbdf760e01b81526000600482015260240160405180910390fd5b610067816100f8565b506001600160a01b0383811660805282811660a081905290821660c081905260405163095ea7b360e01b81526004810191909152600019602482015263095ea7b3906044016020604051808303816000875af11580156100cb573d6000803e3d6000fd5b505050506040513d601f19601f820116820180604052508101906100ef91906101a7565b505050506101d0565b600080546001600160a01b038381166001600160a01b0319831681178455604051919092169283917f8be0079c531659141344cd1fd0a4f28419497f9722a3daafe3b4186f6b6457e09190a35050565b80516001600160a01b038116811461015f57600080fd5b919050565b60008060006060848603121561017957600080fd5b61018284610148565b925061019060208501610148565b915061019e60408501610148565b90509250925092565b6000602082840312156101b957600080fd5b815180151581146101c957600080fd5b9392505050565b60805160a05160c0516106cb6102366000396000818160bf0152818161026c01526103b9015260008181610113015281816102300152818161038401526104a0015260008181610182015281816101af01528181610303015261047101526106cb6000f3fe608060405234801561001057600080fd5b506004361061009e5760003560e01c80638ca17995116100665780638ca179951461013d5780638da5cb5b14610150578063c9168a5914610161578063f2fde38b1461016a578063fbfa77cf1461017d57600080fd5b806301e1d114146100a357806316f0115b146100ba5780632afcf480146100f95780636f307dc31461010e578063715018a614610135575b600080fd5b6001545b6040519081526020015b60405180910390f35b6100e17f000000000000000000000000000000000000000000000000000000000000000081565b6040516001600160a01b0390911681526020016100b1565b61010c6101073660046105cf565b6101a4565b005b6100e17f000000000000000000000000000000000000000000000000000000000000000081565b61010c6102e2565b6100a761014b3660046105cf565b6102f6565b6000546001600160a01b03166100e1565b6100a760015481565b61010c6101783660046105e8565b610514565b6100e17f000000000000000000000000000000000000000000000000000000000000000081565b336001600160a01b037f0000000000000000000000000000000000000000000000000000000000000000161461020e5760405162461bcd60e51b815260206004820152600a6024820152691bdb9b1e481d985d5b1d60b21b60448201526064015b60405180910390fd5b806000036102195750565b60405163617ba03760e01b81526001600160a01b037f00000000000000000000000000000000000000000000000000000000000000008116600483015260248201839052306044830152600060648301527f0000000000000000000000000000000000000000000000000000000000000000169063617ba03790608401600060405180830381600087803b1580156102b057600080fd5b505af11580156102c4573d6000803e3d6000fd5b5050505080600160008282546102da919061062e565b909155505050565b6102ea610552565b6102f4600061057f565b565b6000336001600160a01b037f0000000000000000000000000000000000000000000000000000000000000000161461035d5760405162461bcd60e51b815260206004820152600a6024820152691bdb9b1e481d985d5b1d60b21b6044820152606401610205565b8160000361036d57506000919050565b604051631a4ca37b60e21b81526001600160a01b037f000000000000000000000000000000000000000000000000000000000000000081166004830152602482018490523060448301527f000000000000000000000000000000000000000000000000000000000000000016906369328dec906064016020604051808303816000875af1158015610402573d6000803e3d6000fd5b505050506040513d601f19601f820116820180604052508101906104269190610647565b9050801561050f5760015481111561044257600060015561045a565b80600160008282546104549190610660565b90915550505b60405163a9059cbb60e01b81526001600160a01b037f000000000000000000000000000000000000000000000000000000000000000081166004830152602482018390527f0000000000000000000000000000000000000000000000000000000000000000169063a9059cbb906044016020604051808303816000875af11580156104e9573d6000803e3d6000fd5b505050506040513d601f19601f8201168201806040525081019061050d9190610673565b505b919050565b61051c610552565b6001600160a01b03811661054657604051631e4fbdf760e01b815260006004820152602401610205565b61054f8161057f565b50565b6000546001600160a01b031633146102f45760405163118cdaa760e01b8152336004820152602401610205565b600080546001600160a01b038381166001600160a01b0319831681178455604051919092169283917f8be0079c531659141344cd1fd0a4f28419497f9722a3daafe3b4186f6b6457e09190a35050565b6000602082840312156105e157600080fd5b5035919050565b6000602082840312156105fa57600080fd5b81356001600160a01b038116811461061157600080fd5b9392505050565b634e487b7160e01b600052601160045260246000fd5b8082018082111561064157610641610618565b92915050565b60006020828403121561065957600080fd5b5051919050565b8181038181111561064157610641610618565b60006020828403121561068557600080fd5b8151801515811461061157600080fdfea26469706673582212209629b131ca58b5aa8fbb2e4f3efa4e7105c9a44fa84bffe2f630eddb4196761c64736f6c63430008140033",
  "linkReferences": {},
  "deployedLinkReferences": {}
}